:020000040000FA
:100000000C944D010C947E010C947E010C947E01A5
:100010000C947E010C947E010C947E010C947E0164
:100020000C947E010C94210D0C94210D0C94210D47
:100030000C947E010C947E010C947E010C947E0144
:100040000C947E010C947E010C947E010C947E0134
:100050000C947E010C947E010C947E010C94B30BE5
:100060000C947E010C94890B0C945F0B0C947E0114
:100070000C947E010C947E010C947E010C947E0104
:100080000C947E010C947E010C947E010C947E01F4
:100090000C94350B0C940B0B0C947E010C94FD0B03
:1000A0000C947E010C947E010C947E010C947E01D4
:1000B0000C947E010C947E010C947E010C947E01C4
:1000C0000C947E010C947E010C947E010C94E10A48
:1000D0000C94B70A0C947E010C948D0A0C94630A5C
:1000E0000C947E010C94AE010C948D030C94560379
:1000F0000C942B0D0C9497030C9475030C94D5055C
:100100000C9460030C94F8050C947B030C94A602E9
:100110000C94A7010C94AF010C947F030C94500233
:100120000C9438060C942E020C9468030C948303F0
:100130000C947E040C9442020C945C030C94D6053F
:100140000C94E5050C94F3020C9496030C949B0319
:100150000C9493060C94B9090C9464030C941F023C
:100160000C9471030C9489030C9491030C940B066A
:100170000C94D9010C946B03000022002500280088
:100180002B002E003100340002010000050108019F
:100190000B01000020002300260029002C002F0066
:1001A00032000001000003010601090100000A0BF2
:1001B00002090C0D0E0807030401000000000000F6
:1001C000000000000000000000000000000000002F
:1001D00000000000000000001211100000000000EC
:1001E000000000000000000000000000000000000F
:1001F000000000002100240027002A002D0030000C
:10020000330001010000040107010A01010210206E
:10021000200808102040102040800201020108043C
:1002200002010102040810204080804020100804D0
:100230000201800402018040201008040201080429
:10024000020101020408102040800102040810206D
:100250004080050505050705080808080202020296
:100260000A0A080804040404010101010101010152
:100270000303030303030303040707070C0C0C0C1D
:100280000C0C0C0C02020202060606060606060606
:100290000B0B0B0B0B0B0B0B2B0D11241FBECFEFFE
:1002A000D1E2DEBFCDBF00E00CBF26E0A0E3B3E0AB
:1002B00001C01D92A93BB207E1F713E0A0E0B2E054
:1002C000E2EDF9E200E00BBF02C007900D92A0330F
:1002D000B107D9F711E0CDE4D1E000E006C02197E5
:1002E0000109802FFE010E94B512CC34D10780E0B5
:1002F0000807A9F70E94F30D0C94E7140C94000072
:10030000FC01A089B18982E08C93A485B58586E043
:100310008C93A685B78592E89C93108EA489B589A5
:100320008C93A289B3898C9180618C93A289B389C3
:100330008C9188608C93A289B3898C9180688C930E
:100340000288F389E02D80818F7D808308958091DC
:10035000830390918403891B990B08950895CF938B
:10036000DF93EC01E091A603F091A7033097F1F041
:1003700090918403809183039817C0F090E0292F17
:1003800030E02617370754F4DE01A20FB31F4C915B
:100390002B573C4FD9014C939F5FF1CF10928403B0
:1003A00060938303CB01DF91CF911994DF91CF91BB
:1003B0000895AF92BF92CF92DF92EF92FF920F9388
:1003C0001F93CF93DF936C017B018B01040F151FEB
:1003D000EB015E01AE18BF08C017D10759F0699153
:1003E000D601ED91FC910190F081E02DC6011995A7
:1003F000892B79F7C501DF91CF911F910F91FF9064
:10040000EF90DF90CF90BF90AF900895FC01A0894E
:10041000B1898C91A689B78982FD0FC09C91818D8D
:100420008F5F8F73228D821749F0A18DAE0FBF2F82
:10043000B11D5D969C93818F08958C910895FC0168
:10044000538D448D252F30E0842F90E0821B930B39
:10045000541710F0CF96089501970895FC01918DDF
:10046000828D981761F0A28DAE0FBF2FB11D5D96E2
:100470008C91928D9F5F9F73928F90E008958FEF84
:100480009FEF0895FC01918D828D981731F0828D38
:10049000E80FF11D858D90E008958FEF9FEF08958F
:1004A000FC01918D228D892F90E0805C9F4F821BF3
:1004B00091098F73992708958DE194E00E9450026D
:1004C00021E0892B09F420E0822F08958AEB94E043
:1004D0000E94500221E0892B09F420E0822F089528
:1004E00087E595E00E94500221E0892B09F420E085
:1004F000822F089584EF95E00E94500221E0892B1D
:1005000009F420E0822F0895FC01A48DA80FB92FD3
:10051000B11DA35ABF4F2C91848D90E001968F732B
:100520009927848FA689B7892C93A089B1898C914A
:10053000837080648C93938D848D981306C0028899
:10054000F389E02D80818F7D80830895EF92FF9263
:100550000F931F93CF93DF93EC0181E0888F9B8DE6
:100560008C8D98131AC0E889F989808185FF15C0A0
:100570009FB7F894EE89FF896083E889F9898081C3
:100580008370806480839FBF81E090E0DF91CF9192
:100590001F910F91FF90EF900895F62E0B8D10E0B4
:1005A0000F5F1F4F0F731127E02E8C8D8E110CC023
:1005B0000FB607FCFACFE889F989808185FFF5CF6E
:1005C000CE010E948402F1CFEB8DEC0FFD2FF11DC7
:1005D000E35AFF4FF0829FB7F8940B8FEA89FB89AB
:1005E00080818062CFCFCF93DF93EC01888D882309
:1005F000B9F0AA89BB89E889F9898C9185FD03C086
:10060000808186FD0DC00FB607FCF7CF8C9185FF6A
:10061000F2CF808185FFEDCFCE010E948402E9CF29
:10062000DF91CF91089580E090E0892B29F00E941E
:100630007A0281110E94000080E090E0892B29F06D
:100640000E94700281110E94000080E090E0892BDE
:1006500029F00E94660281110E94000080E090E073
:10066000892B29F00E945C0281110C9400000895EE
:100670008150823108F05AC0E82FF0E08827EC5B07
:10068000FC4F8F4F0C94B5126403680356035C0350
:10069000600396036B03710375037B037F0383037E
:1006A00089038D039603910397039B038091800038
:1006B0008F77809380000895809180008F7DF9CF9F
:1006C00080918000877FF5CF84B58F7784BD0895B2
:1006D00084B58F7DFBCF8091B0008F778093B00081
:1006E00008958091B0008F7DF9CF809190008F7731
:1006F000809390000895809190008F7DF9CF809134
:100700009000877FF5CF8091A0008F778093A00025
:1007100008958091A0008F7DF9CF8091A000877F00
:10072000F5CF809120018F778093200108958091EB
:1007300020018F7DF9CF80912001877FF5CFCF9366
:10074000DF93282F30E0F901E455FE4F8491F90141
:10075000E45FFD4FD491F901EE5AFD4FC491CC23D3
:10076000A1F081110E943803EC2FF0E0EE0FFF1F83
:10077000EE56FE4FA591B491EC91ED2381E090E00F
:1007800009F480E0DF91CF91089580E090E0FACF06
:100790001F93CF93DF93282F30E0F901E455FE4FEC
:1007A0008491F901E45FFD4FD491F901EE5AFD4FB8
:1007B000C491CC23A9F0162F81110E943803EC2F8D
:1007C000F0E0EE0FFF1FE858FE4FA591B4918FB7F0
:1007D000F894EC91111108C0D095DE23DC938FBF03
:1007E000DF91CF911F910895DE2BF8CFCF93DF9348
:1007F00090E0FC01E45FFD4F24918E5A9D4FFC0177
:1008000084918823D1F090E0880F991FFC01EE506D
:10081000FE4FA591B491FC01E858FE4FC591D491CB
:1008200061110EC09FB7F8948C91E22FE0958E2352
:100830008C932881E223E8839FBFDF91CF910895B5
:100840008FB7F894EC91E22BEC938FBFF6CF3FB7C4
:10085000F89480917B0390917C03A0917D03B091EB
:100860007E0326B5A89B05C02F3F19F00196A11D58
:10087000B11D3FBFBA2FA92F982F8827BC01CD01EA
:10088000620F711D811D911D42E0660F771F881F49
:10089000991F4A95D1F708958F929F92AF92BF9278
:1008A000CF92DF92EF92FF924B015C010E942704EE
:1008B0006B017C010E9427046C197D098E099F0938
:1008C000683E734081059105A8F321E0821A9108E2
:1008D000A108B10888EEC80E83E0D81EE11CF11C07
:1008E00081149104A104B10429F7FF90EF90DF90E7
:1008F000CF90BF90AF909F908F90089508952091D2
:100900005303260F3327331F21323105ECF4209196
:10091000F303FC0190E080E0243069F082E0089568
:10092000A09153032191AC014D5C5C4FA40FB52FF6
:10093000B11D2C930196861798F380915303680F8D
:100940006093530380E0089581E008951092F303CB
:1009500081E08093F2031092CD0361E084E10E9474
:10096000C80361E085E10E94C803E9EBF0E0808103
:100970008E7F808380818D7F808388E48093B80020
:1009800085E48093BC000895CF93DF9391E090932A
:1009900032038823B9F0C091B800D091BA00809199
:1009A000BC008A7B8093BC0060E084E10E94C803A5
:1009B00060E085E10E94C8030E94A604D093BA00BB
:1009C000C093B800DF91CF9108958F929F92AF921C
:1009D000BF92CF92DF92EF92FF920F931F93CF932C
:1009E000DF93D0911C04D13208F0D7C0182FC091EA
:1009F0001B040E9427046B017C018091F303811189
:100A00006BC082E08093F3031093F2038FEF809327
:100A1000F1031092F003D093EF03ABEFB3E0EFECF0
:100A2000F3E080E0D81391C01092CE038091CE0302
:100A3000CC0FC82BC093CE038091CD03813009F039
:100A400088C01092CD030E9427046B017C01809125
:100A5000CE038093BB008091F5039091F603A091A3
:100A6000F703B091F803892B8A2B8B2BA1F00E94FE
:100A700027040091F5031091F6032091F7033091BC
:100A8000F8036C197D098E099F09061717072807B7
:100A9000390708F442C08091BC0083FDD8CF85ECB3
:100AA0008093BC000E9427046B017C018091F303BA
:100AB000823009F450C08091F1038F3F09F46FC078
:100AC0008091F103803209F46CC08091F10380338E
:100AD00009F469C084E026C08091F5039091F60383
:100AE000A091F703B091F803892B8A2B8B2B09F483
:100AF00084CF0E9427048090F5039090F603A09085
:100B0000F703B090F8036C197D098E099F098616CA
:100B10009706A806B90608F070CF8091F4030E94EA
:100B2000C40485E01092FA0310921C041092F90399
:100B3000DF91CF911F910F91FF90EF90DF90CF90B9
:100B4000BF90AF909F908F9008959D9191938F5FEC
:100B500069CF85EEA5CF8091F5039091F603A09122
:100B6000F703B091F803892B8A2B8B2B09F49ECFC6
:100B70000E9427040091F5031091F6032091F703DA
:100B80003091F8036C197D098E099F090617170724
:100B90002807390708F08ACFC0CF81E0C3CF80E0B3
:100BA000C1CF82E0BFCF83E0BDCF0895E091840341
:100BB00080918303E81730F4F0E0EB57FC4F80811D
:100BC00090E008958FEF9FEF0895909184038091B6
:100BD00083032FEF3FEF981748F4E92FF0E0EB572E
:100BE000FC4F208130E09F5F90938403C9010895FA
:100BF00081E996E00E94E5058093AA038091AA030B
:100C0000181634F08091AA0381958093AE0308955D
:100C10008091AA03FACFCF92DF92EF92FF920F93C7
:100C20001F93CF93DF937C01CB018A012091F903BD
:100C3000222389F0EB016B01C40ED51ECC15DD0516
:100C400069F06991D701ED91FC910190F081E02D5F
:100C5000C7011995F3CF642F0E947F04C801DF916B
:100C6000CF911F910F91FF90EF90DF90CF9008955B
:100C7000CF93DF931F92CDB7DEB769832091F9033D
:100C80002223F9F020911C04203258F021E030E0BA
:100C9000FC013383228390E080E00F90DF91CF91BD
:100CA00008958091FA03E82FF0E0E550FC4F998118
:100CB00090838F5F8093FA0380931C0481E090E01F
:100CC000ECCF61E0CE0101960E947F04F7CF0F9335
:100CD0001F93CF93DF93C82F8B0181E08093F9039B
:100CE00080E580931B041092FA0310921C0460E0CC
:100CF00081E996E00E9438066C2F81E996E00E9417
:100D00003806E801015F1F4F699181E996E00E9472
:100D10003806C017D107C1F781E0DF91CF911F914D
:100D20000F910C94E50490E080E008954F925F925B
:100D30006F927F928F929F92AF92BF92CF92DF92EB
:100D4000EF92FF920F931F93CF93DF934091AD03E8
:100D5000442309F4C3C0242F042E000C330BB90123
:100D600037FF04C066277727621B730B04E010E08F
:100D70006930710511F010E000E0E091AB03F091F3
:100D8000AC03E055FC4F6080712C062E02C07594B8
:100D900067940A94E2F781E0682277245091AF03C8
:100DA000A52EB12C8091AB039091AC03800F911FC5
:100DB000450102C0959487948A95E2F7A1E08A22C2
:100DC0009924C091A803D091A903CC24C394D12C19
:100DD000F0E0E0E090E080E07F01E830F10580F5B0
:100DE000A091AB03B091AC03A055BC4FAC91B0E067
:100DF0000E2E02C0B595A7950A94E2F7A0FD0196C4
:100E0000E930F10569F4A091AB03B091AC031496FD
:100E1000250102C055944794AA95E2F740FC01963B
:100E20008130910531F5C130D10509F5399709F4C3
:100E300066C081E090E047FFD8C090E080E029C024
:100E4000E830F105E9F6A091AB03B091AC032501C0
:100E500002C055944794AA95E2F740FC0196813070
:100E6000910509F33196AFEFCA1ADA0AB5CF81E0DE
:100E700090E0AAE0CA16D104A9F7209709F4F7C0B8
:100E800047FFB3C0892B51F190E080E02AE0E22EC9
:100E9000F12C22970CF47BC0495F4F3008F053C00F
:100EA000672809F450C0FB01ED53FC4F808181504D
:100EB0008083E091AB03F091AC03E055FC4F81E0FF
:100EC00090E0A0E0B0E004C0880F991FAA1FBB1FEC
:100ED0006A95D2F78095908189238083DF91CF91A5
:100EE0001F910F91FF90EF90DF90CF90BF90AF9048
:100EF0009F908F907F906F905F904F90089584E0C7
:100F000090E047FDC6CF81E090E0892B39F7F901E9
:100F1000ED53FC4F80818F5F808348300CF474C0A8
:100F20002091AB033091AC03483009F09DC081E0C3
:100F300090E0A0E0B0E004C0880F991FAA1FBB1F7B
:100F40002A95D2F78FC06830710544F2892831F2B2
:100F5000FB01ED53FC4F8081815080838091AB0376
:100F60009091AC03080F191F81E090E0A0E0B0E081
:100F700004C0880F991FAA1FBB1F0A95D2F780953E
:100F80009095A095B09585238093AF03A7CFF701E7
:100F9000ED53FC4F20812150208328E0E216F1041C
:100FA00094F4E091AB03F091AC03E055FC4F81E089
:100FB00090E0A0E0B0E004C0880F991FAA1FBB1FFB
:100FC000EA94D2F787CF2091AB033091AC03280F7E
:100FD000391F81E090E0A0E0B0E004C0880F991FC5
:100FE000AA1FBB1F2A95D2F7CACF8C179D070CF0FA
:100FF0008CCF4830ECF4672809F070CFF901ED533D
:10100000FC4F80818F5F8083E091AB03F091AC0354
:10101000E055FC4F81E090E0A0E0B0E004C0880F14
:10102000991FAA1FBB1F4A95D2F72081822B55CF4B
:10103000892809F053CFF901ED53FC4F80818F5F70
:1010400080838091AB039091AC03080F191F81E05E
:1010500090E0A0E0B0E004C0880F991FAA1FBB1F5A
:101060000A95D2F7852B90CF2C5F3F4F60CF47FF7B
:10107000C0CF892B09F010CF31CF8EBD00000DB449
:1010800007FEFDCF8EB50895FC0101900020E9F721
:101090003197AF01481B590BBC018DE996E00C94C8
:1010A000D901CF93DF93EC0160E08E810E94C803E9
:1010B00061E08E810E94C80360E08E810E94C803B7
:1010C0008BE891E00197F1F7DF91CF910895CF92EE
:1010D000DF92EF92FF920F931F93CF93DF936C01F8
:1010E0007C0187E0E80EF11CD0E0C0E0062F10E0A4
:1010F000B8010C2E02C0759567950A94E2F76170ED
:10110000F70181917F010E94C8032196C430D10567
:1011100079F7C601DF91CF911F910F91FF90EF906A
:10112000DF90CF900C945108CF92DF92EF92FF9214
:101130000F931F93CF93DF93EC01F62E642F8C81D6
:101140000E94C8038D818F3F19F060E00E94C803A0
:101150000F2D10E08F8584FF25C06E0187E0C80E3B
:10116000D11CF12CE12CB8010E2C02C075956795AD
:101170000A94E2F76170F60181916F010E94C80341
:10118000FFEFEF1AFF0A88E0E816F10461F7CE01DD
:10119000DF91CF911F910F91FF90EF90DF90CF9053
:1011A0000C945108B80184E0759567958A95E1F72C
:1011B000CE010E9467086F2DCE01DF91CF911F9164
:1011C0000F91FF90EF90DF90CF900C94670840E074
:1011D000682F8DE996E00C94940881E00E94E7085E
:1011E0008BE39FE10197F1F70895FC01448155815C
:1011F000608171818DE996E00E94D90185EA92E0D3
:101200000E94440862E370E080E090E00E944C0499
:101210000C94ED08CF93DF93823029F49091AC06C3
:1012200098609093AC068093B0061092B10680E46B
:101230008093B20680E18093B30680E58093B40684
:1012400061E08091A1060E94F6038091A2068F3F83
:1012500019F061E00E94F60361E08091A3060E940C
:10126000F603CDE9D6E09E012D5936408091AC06BB
:1012700084FD0BC084E090E021962817390744F4E0
:1012800061E08E810E94F603EECF88E090E0F4CF1B
:101290008BE39DE00197F1F760E08091A1060E9449
:1012A000C80360E08091A3060E94C8038091A20653
:1012B0008F3F19F060E00E94C8038091AC0684FD66
:1012C00034C063E08DE996E00E946708CBE4D6E481
:1012D000CE010197F1F763E08DE996E00E9467087F
:1012E0002197F1F763E08DE996E00E94670883E5B6
:1012F00092E00197F1F762E08DE996E00E946708BD
:101300008091AC0680620E94E70884E08093AD067D
:101310008CE00E94E7080E94ED0882E08093AE0610
:1013200086E0DF91CF910C94E70880620E94E70885
:101330008BE496E40197F1F78091AC0680620E94FD
:10134000E70883E592E00197F1F78091AC068062AF
:101350000E94E708D5CFE091B006E23040F4E150BA
:10136000F0E0E356F94F848980680C94E708E1E0E7
:10137000F7CF41E00E94940881E090E00895FC01DD
:1013800080819181009711F00C946D1308950F9353
:101390001F93CF93DF93EC0188819981009759F0D7
:1013A0002A813B812617370730F081E0DF91CF910A
:1013B0001F910F9108958B016F5F7F4F0E94F6136D
:1013C000009759F0998388831B830A832C813D8180
:1013D000232B59F7FC011082E8CF80E0E7CFEF9292
:1013E000FF920F931F93CF93DF93EC017B018A0150
:1013F000BA010E94C70928813981811114C02115C1
:10140000310519F0C9010E946D13198218821D82DD
:101410001C821B821A82CE01DF91CF911F910F9106
:10142000FF90EF9008951D830C83B701C9010E94BE
:10143000E014F1CFFC011182108213821282158216
:101440001482FB0101900020E9F73197AF01461BA0
:10145000570B0C94EF0985ED8093BC008091F50348
:101460009091F603A091F703B091F8030796A11DA0
:10147000B11D23E0B695A795979587952A95D1F745
:101480002091BC0024FD03C01092F3030895409105
:10149000F5035091F6036091F7037091F803452B23
:1014A000462B472B69F30097A105B10541F025E3D1
:1014B0002A95F1F700000197A109B109E1CF8091C8
:1014C000F4030C94C4041F920F920FB60F921124D0
:1014D0000BB60F922F933F934F935F936F937F932E
:1014E0008F939F93AF93BF93EF93FF938DE194E01E
:1014F0000E948402FF91EF91BF91AF919F918F91D4
:101500007F916F915F914F913F912F910F900BBE03
:101510000F900FBE0F901F9018951F920F920FB64D
:101520000F9211240BB60F922F933F934F935F931B
:101530006F937F938F939F93AF93BF93EF93FF939B
:101540008DE194E00E940602FF91EF91BF91AF916F
:101550009F918F917F916F915F914F913F912F91CB
:101560000F900BBE0F900FBE0F901F9018951F92FB
:101570000F920FB60F9211240BB60F922F933F9339
:101580004F935F936F937F938F939F93AF93BF938B
:10159000EF93FF938AEB94E00E948402FF91EF9116
:1015A000BF91AF919F918F917F916F915F914F917B
:1015B0003F912F910F900BBE0F900FBE0F901F9079
:1015C00018951F920F920FB60F9211240BB60F921F
:1015D0002F933F934F935F936F937F938F939F933B
:1015E000AF93BF93EF93FF938AEB94E00E940602C0
:1015F000FF91EF91BF91AF919F918F917F916F91EB
:101600005F914F913F912F910F900BBE0F900FBEA6
:101610000F901F9018951F920F920FB60F921124E2
:101620000BB60F922F933F934F935F936F937F93DC
:101630008F939F93AF93BF93EF93FF9387E595E0CD
:101640000E948402FF91EF91BF91AF919F918F9182
:101650007F916F915F914F913F912F910F900BBEB2
:101660000F900FBE0F901F9018951F920F920FB6FC
:101670000F9211240BB60F922F933F934F935F93CA
:101680006F937F938F939F93AF93BF93EF93FF934A
:1016900087E595E00E940602FF91EF91BF91AF911F
:1016A0009F918F917F916F915F914F913F912F917A
:1016B0000F900BBE0F900FBE0F901F9018951F92AA
:1016C0000F920FB60F9211240BB60F922F933F93E8
:1016D0004F935F936F937F938F939F93AF93BF933A
:1016E000EF93FF9384EF95E00E948402FF91EF91C6
:1016F000BF91AF919F918F917F916F915F914F912A
:101700003F912F910F900BBE0F900FBE0F901F9027
:1017100018951F920F920FB60F9211240BB60F92CD
:101720002F933F934F935F936F937F938F939F93E9
:10173000AF93BF93EF93FF9384EF95E00E9406026F
:10174000FF91EF91BF91AF919F918F917F916F9199
:101750005F914F913F912F910F900BBE0F900FBE55
:101760000F901F9018951F920F920FB60F92112491
:101770002F933F938F939F93AF93BF938091770362
:1017800090917803A0917903B0917A033091760318
:1017900023E0230F2D3758F50196A11DB11D20938D
:1017A00076038093770390937803A0937903B093A3
:1017B0007A0380917B0390917C03A0917D03B0918B
:1017C0007E030196A11DB11D80937B0390937C0342
:1017D000A0937D03B0937E03BF91AF919F918F91B2
:1017E0003F912F910F900FBE0F901F90189526E8F4
:1017F000230F0296A11DB11DD2CF1F920F920FB6DB
:101800000F9211240BB60F922F933F934F935F9338
:101810006F937F938F939F93AF93BF93EF93FF93B8
:101820008091B900887F803609F44DC008F040C02F
:10183000883209F4A9C028F5803109F49DC0C8F4A4
:10184000882309F4FBC0883009F496C0FF91EF911A
:10185000BF91AF919F918F917F916F915F914F91C8
:101860003F912F910F900BBE0F900FBE0F901F90C6
:101870001895883109F488C0803241F78093F103CC
:1018800014C0803409F49DC040F48033B9F3883328
:10189000E9F68093F10385ECB0C0803509F485C08A
:1018A000883509F496C0883489F60E942B0ACECF79
:1018B000883909F48CC038F5883729F050F4883617
:1018C00011F0803719F683E08093F30310927503CB
:1018D00057C0883809F47BC0803919F0803809F086
:1018E000B5CF80917503803208F071C0E091750327
:1018F00081E08E0F809375038091BB00F0E0EB5A7E
:10190000FC4F80833DC0803B39F0E0F4803A09F41D
:1019100079C0883A09F09ACF84E08093F30310925B
:10192000540310925303E0918103F09182031995BF
:101930008091530381110FC081E080935303109273
:10194000330309C0803C09F4A6CF883C09F4A3CF37
:10195000883B09F07BCFE091540381E08E0F8093A8
:101960005403F0E0ED5CFC4F80818093BB009091CC
:1019700054038091530329C08091CE038093BB0010
:1019800085EC8093BC0062CF9091F0038091EF03CF
:10199000981758F5E091F00381E08E0F8093F003E3
:1019A000F0E0E153FC4F8081E9CFE091F00381E06A
:1019B0008E0F8093F0038091BB00F0E0E153FC4F69
:1019C00080839091F0038091EF039817C8F285E827
:1019D000D8CFE091F00381E08E0F8093F0038091E7
:1019E000BB00F0E0E153FC4F80838091F203811152
:1019F0005CCF81E08093CD0384EA8093BC00109299
:101A0000F30324CF85EC8093BC001092F303809104
:101A10007503803230F4E0917503F0E0EB5AFC4F2F
:101A200010826091750370E0E0917F03F091800374
:101A300085E593E019951092750308CF1092F10394
:101A400034CF1F920F920FB60F9211240F900FBE3A
:101A50000F901F901895EDE1F4E01382128288EE4A
:101A600093E0A0E0B0E084839583A683B78329E761
:101A700032E03183208345E351E05587448744E3D6
:101A800051E05787468740E351E0518B408B41E35B
:101A900051E0538B428B42E351E0558B448B46E33C
:101AA00051E0578B468B118E128E138E148EEAEBFB
:101AB000F4E01382128284839583A683B7833183F3
:101AC000208345ED50E05587448744ED50E057872B
:101AD000468740ED50E0518B408B41ED50E0538BF9
:101AE000428B42ED50E0558B448B46ED50E0578BD6
:101AF000468B118E128E138E148EE7E5F5E013825D
:101B0000128284839583A683B783318320834DEC2F
:101B100050E0558744874CEC50E05787468748ECA7
:101B200050E0518B408B49EC50E0538B428B4AEC98
:101B300050E0558B448B4EEC50E0578B468B118E0A
:101B4000128E138E148EE4EFF5E0138212828483DA
:101B50009583A683B7833183208325EC30E03587D6
:101B6000248724EC30E03787268720EC30E0318B67
:101B7000208B21EC30E0338B228B22EC30E0358B54
:101B8000248B26EC30E0378B268B118E128E138E31
:101B9000148EE1E9F6E01382128284839583A68392
:101BA000B7838BE892E091838083EDE9F6E01382BE
:101BB00012828DE992E09183808388E084838FEFA5
:101BC000858389E086838AE087838BE080878CE049
:101BD00081878DE082871386148615861686178680
:101BE00081E00C940A09CF93DF93CDB7DEB7AD97B0
:101BF0000FB6F894DEBF0FBECDBF789484B5826077
:101C000084BD84B5816084BD85B5826085BD85B5A0
:101C1000816085BD80916E00816080936E0010921E
:101C20008100809181008260809381008091810099
:101C3000816080938100809180008160809380002A
:101C40008091B10084608093B1008091B000816088
:101C50008093B00080919100826080939100809188
:101C600091008160809391008091900081608093C9
:101C700090008091A10082608093A1008091A100DA
:101C800081608093A1008091A00081608093A0007A
:101C900080912101826080932101809121018160E6
:101CA00080932101809120018160809320018091A7
:101CB0007A00846080937A0080917A0082608093B9
:101CC0007A0080917A00816080937A0080917A0016
:101CD000806880937A001092C10010928403109261
:101CE00083030E94A6048EEA91E09093820380937E
:101CF00081038FEA91E09093800380937F0380E1DA
:101D00008093BA0087E595E00E9480018AEB94E019
:101D10000E9480018DE194E00E94800161E083E0F7
:101D20000E94F60361E084E00E94F60360E082E036
:101D30000E94F60360E085E00E94F60360E086E022
:101D40000E94F60360E083E00E94C80360E084E044
:101D50000E94C80360E082E00E94C80360E085E062
:101D60000E94C80360E086E00E94C80361E085E34A
:101D70000E94C80381E08093F90380E580931B04EF
:101D80001092FA0310921C0460E081E996E00E9430
:101D9000380660E081E996E00E94380681E00E9402
:101DA000E5040E9427046B017C018091F3038111FB
:101DB00065C081E08093F3038093F2039FEF9093DB
:101DC000F1031092F0039EE09093EF038093CE0313
:101DD0008091CE03806A8093CE038091CD038130C1
:101DE00009F030C21092CD030E9427046B017C01E0
:101DF0008091CE038093BB008091F5039091F60310
:101E0000A091F703B091F803892B8A2B8B2BA1F0BB
:101E10000E9427040091F5031091F6032091F70327
:101E20003091F8036C197D098E099F090617170771
:101E30002807390708F443C08091BC0083FDD8CF40
:101E400085EC8093BC000E9427046B017C0180918B
:101E5000F303813009F4F8C18091F0031FE08F3063
:101E600010F41091F003AFECB3E0E5E8F3E080E0AC
:101E7000811751F19D9191938F5FFACF8091F50376
:101E80009091F603A091F703B091F803892B8A2B68
:101E90008B2B09F48ACF0E9427040091F50310913F
:101EA000F6032091F7033091F8036C197D098E0930
:101EB0009F09061717072807390708F076CF809182
:101EC000F4030E94C40410E010928403109383036F
:101ED00074EBE72E73E0F72E80918403181731F02E
:101EE00081E996E00E94E505F7018083FFEFEF1A94
:101EF000FF0A83ECE81683E0F80671F7E4EBF3E001
:101F000081918F3F19F4DF0111971C92EE16FF06A5
:101F1000B9F7A3ECB3E0E4EBF3E081918D9383E0B8
:101F2000EE3BF807D1F78091BE038093B003809118
:101F3000BF038093B1038091C0038093B20380916B
:101F4000C1038093B3038091C2038093AF0382E007
:101F50000E940A0988EA92E00E9444080E94AB09A4
:101F600087EB92E00E94440864E670E080E090E035
:101F70000E944C040E94ED0865EC72E08E010F5F38
:101F80001F4FC8010E941A0AC8010E94F508C80123
:101F90000E94BF0982E00E949F03892B09F476C149
:101FA00085E00E949F038130910539F086E00E9410
:101FB0009F03019731F486E090E09093A90380930A
:101FC000A8038091A8039091A9031BA21AA21DA2A5
:101FD0001CA21FA21EA24AE0B8010E944A12F801E8
:101FE00001900020E9F73197AF01401B510BB80178
:101FF000CE0182960E94EF0965ED72E0CE018896CF
:102000000E941A0A8EA19FA1CAA0DBA0ECA4FDA485
:10201000E80EF91EC114D10409F445C1892B99F0C9
:10202000B701CE0188960E94C709882309F43BC1F5
:1020300028A539A58CA59DA5B601820F931F0E94E6
:10204000E014FDA6ECA61A8219821C821B821E8255
:102050001D8268A579A56115710529F04CA55DA5BE
:10206000C8010E94EF09C8010E94F508C8010E943A
:10207000BF09CE0188960E94BF09CE0182960E94B8
:10208000BF0984EF95E00E948001FFB6F89480912B
:10209000A503811127C0E7E8F2E08491E1E4F2E0D2
:1020A0009491E82FF0E0EE0FFF1FEE50FE4FA59148
:1020B000B491EC91E92321F461E085E30E94C80327
:1020C00061E085E30E94F6038CB580618CBD8CB520
:1020D00080648CBD61E084E30E94F60361E083E3E9
:1020E0000E94F6038091A5038F5F8093A503FFBE36
:1020F0008CB58C7F81608CBD8DB581608DBD60E0BD
:1021000085E30E94C8038091A8039091A9030097DA
:1021100009F0D6C051E5E52E52E0F52EF701819188
:102120007F010E943D086AE070E080E090E00E943C
:102130004C04F5E7EF16F2E0FF0681F78DED92E033
:102140000E9444080E94AB098EEE92E00E9444086F
:1021500064E670E080E090E00E944C040E94ED088C
:102160006CEF72E0C8010E941A0AC8010E94F508CB
:10217000C8010E94BF0988EF95E09093A703809360
:10218000A60393E0E92EF12C4E0180E1880E911C0C
:102190002AE0422E512C612C712C82E00E949F0378
:1021A000019709F0BDC061E083E00E94C80361E0CF
:1021B00084E00E94C80362E370E080E090E00E9447
:1021C0004C0460E083E00E94C80360E084E00E9469
:1021D000C8038BE093E00E9444080E94AB0984ECA2
:1021E000A82E83E0B82EF50121915F0130E050E088
:1021F00040E019A26E01F1E2CF0ED11CCA01B90173
:10220000A30192010E949312605DF60162936F0137
:10221000211531054105510589F7309719F0CF0196
:102220000E944408FDECAF16F3E0BF06E1F664E659
:1022300070E080E090E00E944C040E94ED080E9453
:102240001303ABCF85EEFDCD8091F5039091F6039E
:10225000A091F703B091F803892B8A2B8B2B09F4FB
:10226000F6CD0E9427040091F5031091F60320910A
:10227000F7033091F8036C197D098E099F09061741
:1022800017072807390708F0E2CD19CE85E00E942C
:102290009F03892B09F084CE86E00E949F03892B3F
:1022A00009F478CE7DCE88A599A5009711F00E94FB
:1022B0006D1319A618A61DA61CA61BA61AA6C3CE8A
:1022C00081309105A9F443E3E42E42E0F42EF701B6
:1022D00081917F010E943D086AE070E080E090E01B
:1022E0000E944C04F1E5EF16F2E0FF0681F726CFDD
:1022F00002970CF423CF36E0E32E32E0F32EF70101
:1023000081917F010E943D086AE070E080E090E0EA
:102310000E944C04F3E3EF16F2E0FF0681F70ECFC4
:1023200085E00E949F03A4EBB3E0E3ECF3E00197A8
:10233000E1F086E00E949F03019709F047C0F80191
:1023400011928E169F06E1F7B80180E00E946706A1
:1023500061E273E0CE0182960E941A0ACE01829653
:102360000E94F508CE01829628C081918D9383E06A
:10237000ED3CF807D1F78091B0038093BE038091C4
:10238000B1038093BF038091B2038093C003809117
:10239000B3038093C1038091AF038093C20364EBC6
:1023A00073E080E00E94670665E173E0C8010E9467
:1023B0001A0AC8010E94F508C8010E94BF0964E614
:1023C00070E080E090E00E944C0439CF8091AE0331
:1023D0008823F1F01092AE03B090AD03C090AB0330
:1023E000D090AC038091AA038093AD03F092AC032C
:1023F000E092AB031092AA030E949606B092AD033E
:102400000C2C000CDD08D092AC03C092AB0317CFAC
:102410008091AB039091AC038130910549F18230FA
:10242000910579F1892B09F00ACF87E595E00E94A3
:102430005002892B41F087E595E00E942E0280939F
:10244000AD030E9496068091AB039091AC03019678
:102450009093AC038093AB038091AB039091AC035A
:10246000B7010E947F129093AC038093AB03E7CE39
:102470008AEB94E00E945002892B29F38AEB94E0C6
:10248000DCCF8DE194E00E945002892BE1F28DE1D6
:1024900094E0D3CFBB274A3031F4992322F4BDE234
:1024A000909581959F4F0C945612BB27FB015527A1
:1024B000AA27880F991FAA1FA41710F0A41B8395A1
:1024C0005051B9F7A05DAA3308F0A95DA193009718
:1024D00079F7B111B1931192CB010C946F12DC0119
:1024E000FC01672F71917723E1F7329704C07C914B
:1024F0006D9370836291AE17BF07C8F3089597FB81
:10250000072E16F4009407D077FD09D00E94BD1263
:1025100007FC05D03EF4909581959F4F08957095E6
:1025200061957F4F0895A1E21A2EAA1BBB1BFD01E6
:102530000DC0AA1FBB1FEE1FFF1FA217B307E407A2
:10254000F50720F0A21BB30BE40BF50B661F771FFA
:10255000881F991F1A9469F76095709580959095DA
:102560009B01AC01BD01CF010895EE0FFF1F881F35
:102570008BBF0790F691E02D1994AA1BBB1B51E16C
:1025800007C0AA1FBB1FA617B70710F0A61BB70BE3
:10259000881F991F5A95A9F780959095BC01CD0188
:1025A00008950F931F93CF93DF938230910510F41A
:1025B00082E090E0E091B706F091B80630E020E0CC
:1025C000B0E0A0E0309799F42115310509F44AC034
:1025D000281B390B24303105D8F58A819B81611580
:1025E000710589F1FB0193838283FE0111C0408153
:1025F00051810281138148175907E0F048175907A4
:1026000099F4109761F012960C93129713961C93FD
:102610003296CF01DF91CF911F910F9108950093D2
:10262000B7061093B806F4CF2115310551F04217C3
:10263000530738F0A901DB019A01BD01DF01F80160
:10264000C1CFEF01F9CF9093B8068093B706CDCFF5
:10265000FE01E20FF31F81939193225031093983D8
:102660002883D7CF2091B5063091B606232B41F4AD
:1026700020910202309103023093B6062093B506F2
:1026800020910002309101022115310541F42DB74E
:102690003EB74091040250910502241B350BE09196
:1026A000B506F091B606E217F307A0F42E1B3F0B18
:1026B0002817390778F0AC014E5F5F4F24173507B4
:1026C00048F04E0F5F1F5093B6064093B5068193B6
:1026D00091939FCFF0E0E0E09CCFCF93DF93009702
:1026E000E9F0FC01329713821282A091B706B091F3
:1026F000B806ED0130E020E01097A1F4208131818F
:10270000820F931F2091B5063091B606281739071E
:1027100009F061C0F093B606E093B506DF91CF9162
:102720000895EA01CE17DF07E8F54A815B819E0133
:1027300041155105B1F7E901FB83EA8349915991AC
:10274000C40FD51FEC17FD0761F4808191810296BB
:10275000840F951FE90199838883828193819B83EC
:102760008A83F0E0E0E012968D919C911397009798
:10277000B9F52D913C911197CD010296820F931FCF
:102780002091B5063091B6062817390739F63097EB
:1027900051F51092B8061092B706B093B606A09302
:1027A000B506BCCFD383C28340815181840F951F6E
:1027B000C817D90761F44E5F5F4F88819981480F30
:1027C000591F518340838A819B8193838283211582
:1027D000310509F0B0CFF093B806E093B7069ECF6D
:1027E000FD01DC01C0CF13821282D7CF4F925F92DE
:1027F0006F927F928F929F92AF92BF92CF92DF9211
:10280000EF92FF920F931F93CF93DF938C0100976A
:1028100099F4CB01DF91CF911F910F91FF90EF9031
:10282000DF90CF90BF90AF909F908F907F906F90F0
:102830005F904F900C94D112FC01E60FF71F9C01A2
:1028400022503109E217F30708F4AEC0D901CD9147
:10285000DC911197C617D70720F1C530D10578F064
:10286000CE0104978617970750F0C61BD70B229707
:10287000C193D1936D937C93CF010E946D13C801D6
:10288000DF91CF911F910F91FF90EF90DF90CF904C
:10289000BF90AF909F908F907F906F905F904F9080
:1028A00008955B01AC1ABD0A4C018C0E9D1EA091CF
:1028B000B706B091B806512C412CF12CE12C1097A1
:1028C00031F58091B5069091B6068815990509F005
:1028D0005CC04616570608F058C0809100029091DF
:1028E0000102009741F48DB79EB7409104025091C8
:1028F0000502841B950BE817F90708F055C0F09303
:10290000B606E093B506F90171836083B8CF8D9167
:102910009C91119712966C90129713967C90139736
:10292000A815B90559F56C0142E0C40ED11CCA14B2
:10293000DB0420F1AC014A195B09DA011296159704
:1029400080F06282738251834083D9016D937C93BE
:10295000E114F10471F0D7011396FC93EE931297F2
:102960008ECF22968C0F9D1FF90191838083F301F6
:10297000EFCFF093B806E093B70681CF481659061B
:1029800008F42C017D01D3019ACFCB010E94D11212
:102990007C01009749F0AE01B8010E94D714C8012C
:1029A0000E946D1387016BCF10E000E068CFFB0140
:1029B000DC0102C001900D9241505040D8F70895BB
:1029C000FB01DC0101900D920020E1F70895F894DD
:1029D000FFCF0000B90680007472756D7028313D1C
:1029E0003C783C3D3329626964656E28343C3D780F
:1029F0003C3D36296265726E696528373C3D783CFE
:102A00003D392921007472756D7028313D3C783C48
:102A10003D3429626964656E28353C3D783C3D391A
:102A20002921007472756D702831303130313031A8
:102A300030313029626964656E283031303130318F
:102A40003031303129210000000000A602D9011FD9
:102A500002F30250022E0242020000000038060B70
:102A6000069306D505A701E505D60500000000B9C7
:102A700009D90193067E040D0A0070696E32206642
:102A80006F72206D756C74690070696E3520666FA9
:102A90007220736F6C6F0070696E3620666F7220E3
:102AA0006D756C746936006D6F64652069730070B4
:102AB000696E3220666F7220726573756C74730074
:102AC00070696E3520666F7220736176650070697B
:102AD0006E3620666F722072657365740031323312
:102AE00034353637383900646F6E65207361766926
:102AF0006E6700646F6E65207265736574696E67DA
:022B00000000D3
:10E000000D9489F10D94B2F10D94B2F10D94B2F129
:10E010000D94B2F10D94B2F10D94B2F10D94B2F1F0
:10E020000D94B2F10D94B2F10D94B2F10D94B2F1E0
:10E030000D94B2F10D94B2F10D94B2F10D94B2F1D0
:10E040000D94B2F10D94B2F10D94B2F10D94B2F1C0
:10E050000D94B2F10D94B2F10D94B2F10D94B2F1B0
:10E060000D94B2F10D94B2F10D94B2F10D94B2F1A0
:10E070000D94B2F10D94B2F10D94B2F10D94B2F190
:10E080000D94B2F10D94B2F10D94B2F10D94B2F180
:10E090000D94B2F10D94B2F10D94B2F10D94B2F170
:10E0A0000D94B2F10D94B2F10D94B2F10D94B2F160
:10E0B0000D94B2F10D94B2F10D94B2F10D94B2F150
:10E0C0000D94B2F10D94B2F10D94B2F10D94B2F140
:10E0D0000D94B2F10D94B2F10D94B2F10D94B2F130
:10E0E0000D94B2F141546D656761323536300041AF
:10E0F000726475696E6F206578706C6F72657220DE
:10E1000073746B3530305632206279204D4C530099
:10E11000426F6F746C6F616465723E004875683F52
:10E1200000436F6D70696C6564206F6E203D200048
:10E130004350552054797065202020203D20005FF9
:10E140005F4156525F415243485F5F3D2000415658
:10E1500052204C696243205665723D20004743437C
:10E160002056657273696F6E203D20004350552024
:10E1700049442020202020203D20004C6F7720663D
:10E18000757365202020203D20004869676820665F
:10E190007573652020203D200045787420667573D6
:10E1A00065202020203D20004C6F636B2066757336
:10E1B000652020203D20004D617220203720323024
:10E1C000313300312E362E3800342E332E350056A2
:10E1D00023202020414444522020206F7020636F70
:10E1E00064652020202020696E73747275637469E1
:10E1F0006F6E2061646472202020496E74657272B3
:10E20000757074006E6F20766563746F7200726A49
:10E210006D702020006A6D70200057686174207056
:10E220006F72743A00506F7274206E6F7420737541
:10E2300070706F72746564004D7573742062652030
:10E2400061206C6574746572002000577269747483
:10E25000696E672045450052656164696E672045B7
:10E26000450045452065727220636E743D00504F35
:10E27000525400303D5A65726F2061646472003FF1
:10E280003D43505520737461747300403D454550C3
:10E29000524F4D207465737400423D426C696E6B41
:10E2A000204C454400453D44756D70204545505215
:10E2B0004F4D00463D44756D7020464C415348001B
:10E2C000483D48656C70004C3D4C69737420492F83
:10E2D0004F20506F72747300513D51756974005234
:10E2E0003D44756D702052414D00563D73686F7707
:10E2F00020696E7465727275707420566563746FF0
:10E30000727300593D506F727420626C696E6B00BD
:10E310002A0011241FBECFEFD1E2DEBFCDBF01E046
:10E320000CBF12E0A0E0B2E0EEE1FDEF03E00BBFB6
:10E3300002C007900D92A030B107D9F712E0A0E01B
:10E34000B2E001C01D92AE30B107E1F70F9460F367
:10E350000D948DFE01E20EBF0FEF0DBF11241FBE05
:10E360000D9460F30D9400F020E030E040ED57E0B4
:10E3700005C0FA013197F1F72F5F3F4F2817390792
:10E38000C0F308959C01260F311DC901A0E0B0E043
:10E390002F5F3F4FABBFFC018791882361F08093D3
:10E3A000C6008091C00086FFFCCF8091C0008064D1
:10E3B0008093C000EACF08958DE08093C6008091DD
:10E3C000C00086FFFCCF8091C00080648093C000B5
:10E3D0008AE08093C6008091C00086FFFCCF8091C8
:10E3E000C00080648093C00008950F94C2F10F9420
:10E3F000DCF10895FC019081992359F09093C600B7
:10E400008091C00086FFFCCF8091C0008064809323
:10E41000C0003196992379F70895282F982F929567
:10E420009F70892F805D8A3308F0895F8093C600D2
:10E430008091C00086FFFCCF8091C00080648093F3
:10E44000C000822F8F70982F905D9A3308F0995FEB
:10E450009093C6008091C00086FFFCCF8091C000E1
:10E4600080648093C00008959C01FB01853691056E
:10E470001CF46330710594F0C90164E670E00F94F8
:10E480002EFE605D7F4F6093C6008091C00086FFC6
:10E49000FCCF8091C00080648093C0002B30310598
:10E4A00014F43297B4F0C90164E670E00F942EFEC4
:10E4B0006AE070E00F942EFE605D7F4F6093C600AF
:10E4C0008091C00086FFFCCF8091C0008064809363
:10E4D000C000C9016AE070E00F942EFEC0968093E0
:10E4E000C6008091C00086FFFCCF8091C000806490
:10E4F0008093C00008951F93182F8EE692EE60E07F
:10E500000F94C2F11093C6008091C00086FFFCCF2B
:10E510008091C00080648093C0000F94DCF11F9153
:10E5200008952F923F924F925F926F927F928F92B7
:10E530009F92AF92BF92CF92DF92EF92FF920F9392
:10E540001F93DF93CF93CDB7DEB762970FB6F894E2
:10E55000DEBF0FBECDBF382E622ECA01DB015C01CB
:10E560006D01772420E2222E2E010894411C511CBB
:10E570008BC081E0A81680E0B80681E0C80680E084
:10E58000D80628F0C601AA27BB270F940DF2BB2797
:10E59000AD2D9C2D8B2D0F940DF28A2D0F940DF225
:10E5A0002092C6008091C00086FFFCCF8091C00001
:10E5B00080648093C0009DE29093C6008091C0006B
:10E5C00086FFFCCF8091C00080648093C0002092C1
:10E5D000C6008091C00086FFFCCF8091C00080649F
:10E5E0008093C00019828601750188249924A1E0D6
:10E5F0003A1651F03A1620F0B2E03B1661F409C029
:10E600000BBFF701779007C0C7010F9477FE782EF4
:10E6100002C0F7017080872D0F940DF22092C60082
:10E620008091C00086FFFCCF8091C0008064809301
:10E63000C000872D8052F401EF70F0708F3520F408
:10E64000E40DF51D708204C0E40DF51D8EE280839B
:10E650000894E11CF11C011D111D0894811C911CE2
:10E6600090E18916910409F0C2CF80E190E0A0E02A
:10E67000B0E0A80EB91ECA1EDB1E198AC2010F9493
:10E68000FAF10F94DCF16A94662009F072CF629679
:10E690000FB6F894DEBF0FBECDBFCF91DF911F91B3
:10E6A0000F91FF90EF90DF90CF90BF90AF909F9031
:10E6B0008F907F906F905F904F903F902F90089534
:10E6C0002F923F924F925F926F927F928F929F9282
:10E6D000AF92BF92CF92DF92EF92FF920F931F9370
:10E6E000DF93CF93CDB7DEB7CD53D1400FB6F894BB
:10E6F000DEBF0FBECDBF01E20EBF0FEF0DBF94B75F
:10E70000F894A89514BE80916000886180936000A1
:10E7100010926000789493FF05C0E0910002F091A0
:10E7200001021995279A2F9A8091C00082608093E8
:10E73000C00080E18093C40088E18093C1000000A4
:10E74000EE24FF24870144E0A42EB12CCC24DD2448
:10E7500024C0C5010197F1F70894E11CF11C011DCB
:10E76000111D21E2E2162EE4F20620E0020720E06D
:10E77000120718F031E0C32ED12CC801B70127ECE5
:10E780003BE140E050E00F9441FE611571058105C9
:10E79000910519F485B1805885B98091C00087FD35
:10E7A00003C0C114D104A9F2A6014F5F5F4FC25E3E
:10E7B000DE4F59834883CE51D140C25EDE4F8881FF
:10E7C0009981CE51D140019711F00D9410FEC05D9A
:10E7D000DE4F19821882C053D14060E0C15DDE4F28
:10E7E0001882CF52D14088249924C35DDE4F19820C
:10E7F0001882CD52D140C05EDE4F188219821A8233
:10E800001B82C052D140CE5CDE4F188219821A8220
:10E810001B82C253D140EE24FF2487010BBFF701B6
:10E8200007911691C45CDE4F19830883CC53D14005
:10E830000D940BFEC25EDE4F28813981CE51D1404E
:10E840002130310509F52091C600C25EDE4F1982E4
:10E850001882CE51D14022C02F5F3F4F4F4F5F4FA4
:10E86000213082E138078AE7480780E0580780F0C6
:10E87000C45CDE4FE881F981CC53D140EF5FFF4F9C
:10E8800019F0EE27FF27099420E030E040E050E047
:10E890008091C00087FFE0CF2091C600C35DDE4FAE
:10E8A00048815981CD52D1404F5F5F4FC35DDE4FEC
:10E8B00059834883CD52D140213209F063C64A3092
:10E8C000510508F05FC60894811C911C53E0851621
:10E8D000910409F059C600E010E018C081E280936D
:10E8E000C6008091C00086FFFCCF8091C00080648C
:10E8F0008093C0002F5F3F4F2931310579F70F9486
:10E90000DCF10F5F1F4F0530110519F020E030E0FA
:10E91000E5CF10920A0210920B0210920C02109294
:10E920000D02109206021092070210920802109235
:10E930000902109202021092030210920402109235
:10E9400005028FEE90EE60E00F94F5F180E191EE1C
:10E9500060E00F94C2F18091C00087FFFCCF9091DE
:10E96000C600903608F09F759032B8F09093C600BC
:10E970008091C00086FFFCCF8091C00080648093AE
:10E98000C000A0E2A093C6008091C00086FFFCCF2B
:10E990008091C00080648093C000983409F4D7C18E
:10E9A0009934B8F4923409F459C1933458F490333B
:10E9B00019F1903308F4E3C59F33A1F1903409F0C5
:10E9C000DEC5BDC0953409F470C1963409F0D7C5D1
:10E9D00098C1923509F42BC2933538F49C3409F46C
:10E9E000F5C1913509F0CBC518C2963509F445C279
:10E9F000993509F0C4C567C483E792EE62E00F94CD
:10EA0000F5F110920602109207021092080210927D
:10EA1000090210920A0210920B0210920C0210923C
:10EA20000D0213C18FE792EE62E00F94F5F18FEEC5
:10EA300090EE60E00F94F5F181E291EE60E00F94CA
:10EA4000C2F187EB91EE60E00F94F5F180E391EE77
:10EA500060E00F94C2F184EE90EE60E00F94F5F167
:10EA60008FE391EE60E00F94C2F186E090E061E008
:10EA700070E00F9434F20F94DCF18DE591EE60E0DC
:10EA80000F94C2F189EC91EE60E00F94F5F18EE401
:10EA900091EE60E00F94C2F183EC91EE60E00F9490
:10EAA000F5F18CE691EE60E00F94C2F18EE10F94E7
:10EAB0000DF288E90F940DF281E00F940DF20F949E
:10EAC000DCF18BE791EE60E00F94C2F119E0E0E039
:10EAD000F0E010935700E4918E2F0F940DF20F94F5
:10EAE000DCF18AE891EE60E00F94C2F1E3E0F0E03F
:10EAF00010935700E4918E2F0F940DF20F94DCF1D8
:10EB000089E991EE60E00F94C2F1E2E0F0E0109349
:10EB10005700E4918E2F0F940DF20F94DCF188EAE8
:10EB200091EE60E00F94C2F1E1E0F0E01093570045
:10EB30001491812F0F940DF20F94DCF107CF8BE825
:10EB400092EE62E00F94F5F18BE492EE60E00F94A8
:10EB5000F5F10F94DCF100E010E019C0C8016F2D51
:10EB60000F947FFEFF2031F489E492EE60E00F9471
:10EB7000C2F10BC0F092C6008091C00086FFFCCFAE
:10EB80008091C00080648093C0000F5F1F4FC80158
:10EB900081519F41A0E0B0E0ABBFFC01F790BAE229
:10EBA000FB1621F0E2E000301E07C1F60F94DCF105
:10EBB0000F94DCF187E592EE60E00F94F5F10F948D
:10EBC000DCF1CC24DD2400E010E01EC0C8010F946D
:10EBD00077FEF82E882331F489E492EE60E00F94FA
:10EBE000C2F10BC08093C6008091C00086FFFCCFAD
:10EBF0008091C00080648093C000FE1419F00894D6
:10EC0000C11CD11C0F5F1F4FC80181519F41A0E063
:10EC1000B0E0ABBFFC01E790FAE2EF1621F022E092
:10EC20000030120799F60F94DCF10F94DCF182E6C4
:10EC300092EE60E00F94C2F1C60161E070E00F94C3
:10EC400034F20F94DCF10F94DCF110920202109276
:10EC50000302109204021092050278CE89E992EE26
:10EC600062E00F94F5F1279A2F9A16C02F9880E052
:10EC700090E0E0EDF7E03197F1F7019684369105E9
:10EC8000C1F72F9A80E090E0E0EDF7E03197F1F7DF
:10EC9000019684369105C1F78091C00087FFE6CFC9
:10ECA0008091C00087FFFCCF64C485EA92EE62E0E9
:10ECB0000F94F5F140910202509103026091040219
:10ECC0007091050281E020E10F9491F2809102029F
:10ECD00090910302A0910402B091050280509F4FD1
:10ECE000AF4FBF4F8093020290930302A0930402A0
:10ECF000B093050280509041A040B04008F426CE69
:10ED0000A4CF83EB92EE62E00F94F5F140910602FE
:10ED100050910702609108027091090280E020E1A1
:10ED20000F9491F28091060290910702A09108023F
:10ED3000B091090280509F4FAF4FBF4F80930602A2
:10ED400090930702A0930802B0930902FFCD80ECD4
:10ED500092EE62E00F94F5F183E792EE60E00F949B
:10ED6000F5F18FE792EE60E00F94F5F18BE892EE0B
:10ED700060E00F94F5F189E992EE60E00F94F5F10F
:10ED800085EA92EE60E00F94F5F183EB92EE60E09D
:10ED90000F94F5F180EC92EE60E00F94F5F187ECC2
:10EDA00092EE60E00F94F5F188ED92EE60E00F9442
:10EDB000F5F18FED92EE60E00F94F5F18AEE92EEB0
:10EDC00060E00F94F5F183E093EEBDCD87EC92EE19
:10EDD00062E00F94F5F181E40F947BF282E40F94EA
:10EDE0007BF283E40F947BF284E40F947BF285E45E
:10EDF0000F947BF286E40F947BF287E40F947BF20E
:10EE000088E40F947BF28AE40F947BF28BE40F94F6
:10EE10007BF28CE40F947BF299CD88ED92EE62E068
:10EE20000F94F5F1772473948824992409C48FED05
:10EE300092EE62E00F94F5F140910A0250910B02BC
:10EE400060910C0270910D0282E020E10F9491F22A
:10EE500080910A0290910B02A0910C02B0910D02D8
:10EE600080509F4FAF4FBF4F80930A0290930B0289
:10EE7000A0930C02B0930D0269CD8AEE92EE62E08F
:10EE80000F94F5F184EE90EE60E00F94F5F18FECC5
:10EE900091EE60E00F94F5F1662477244301CC5D98
:10EEA000DE4F19821882C452D140D401C301B695F5
:10EEB000A79597958795CA5DDE4F88839983AA8326
:10EEC000BB83C652D140CC5DDE4FA881B981C4520C
:10EED000D1401196CC5DDE4FB983A883C452D14096
:10EEE000CD0162E070E00F9434F2B0E2B093C6005E
:10EEF0008091C00086FFFCCF8091C0008064809329
:10EF0000C000EDE2E093C6008091C00086FFFCCF18
:10EF10008091C00080648093C000F0E2F093C6004E
:10EF20008091C00086FFFCCF8091C00080648093F8
:10EF3000C000CA5DDE4FE880F9800A811B81C6529D
:10EF4000D140BB27A12F902F8F2D0F940DF2CA5DBA
:10EF5000DE4F8881C652D1400F940DF2B0E2FB2EF5
:10EF6000F092C6008091C00086FFFCCF8091C00067
:10EF700080648093C0000DE30093C6008091C000C0
:10EF800086FFFCCF8091C00080648093C00010E2B7
:10EF90001093C6008091C00086FFFCCF8091C00016
:10EFA00080648093C0008BBEF3012791C65DDE4F65
:10EFB0002883CA52D140A22EBB24CC24DD2408943D
:10EFC000611C711C811C911C8BBEF3018791282E42
:10EFD0003324442455240894611C711C811C911C09
:10EFE0008BBEF3013791C55DDE4F3883CB52D140E4
:10EFF0000894611C711C811C911C8BBEF30147910C
:10F00000C45DDE4F4883CC52D140ADEFEA2EAFEF66
:10F01000FA2EAFEF0A2FAFEF1A2F6E0C7F1C801E57
:10F02000911E142D032DF22CEE24EA0CFB1C0C1D5A
:10F030001D1D0F940DF220E22093C6008091C000A8
:10F0400086FFFCCF8091C00080648093C000C65DC5
:10F05000DE4F8881CA52D1400F940DF230E23093D6
:10F06000C6008091C00086FFFCCF8091C000806404
:10F070008093C000C45DDE4F8881CC52D1400F9494
:10F080000DF240E24093C6008091C00086FFFCCFA5
:10F090008091C00080648093C000C55DDE4F888190
:10F0A000CB52D1400F940DF250E25093C6008091A4
:10F0B000C00086FFFCCF8091C00080648093C000B8
:10F0C0008FEFE8168FEFF80680E0080780E018075A
:10F0D00031F484E092EE60E00F94C2F1DFC0D80119
:10F0E000C7018070907CA070B0708050904CA040A0
:10F0F000B040D1F52FEF3FE340E050E0E222F322B1
:10F1000004231523CA5DDE4FA880B980CA80DB8046
:10F11000C652D140AE0CBF1CC01ED11EAA0CBB1CD7
:10F12000CC1CDD1C8EE092EE60E00F94C2F1BB2798
:10F13000A12F902F8F2D0F940DF28E2D0F940DF285
:10F1400030E23093C6008091C00086FFFCCF8091F2
:10F15000C00080648093C0004EE34093C60080915D
:10F16000C00086FFFCCF87C08EE09EEFA0E0B0E03D
:10F17000E822F9220A231B239CE0E91694E9F90608
:10F1800090E0090790E0190709F088C0C45DDE4FE0
:10F19000A881CC52D140EA2EFF2400E010E0102FCD
:10F1A0000F2DFE2CEE24C55DDE4FB881CB52D14031
:10F1B000EB0EF11C011D111DD601C501817090706F
:10F1C000A070B070DC0199278827E80EF91E0A1F8D
:10F1D0001B1F20EF30E040E050E0A222B322C42207
:10F1E000D52241E1AA0CBB1CCC1CDD1C4A95D1F7F1
:10F1F000EA0CFB1C0C1D1D1D81E090E0A0E0B0E0BE
:10F20000282239224A225B2235E1220C331C441C7D
:10F21000551C3A95D1F7E20CF31C041D151D57013E
:10F220006801AA0CBB1CCC1CDD1C85E192EE60E0E1
:10F230000F94C2F1C801AA27BB270F940DF2BB2778
:10F24000A12F902F8F2D0F940DF28E2D0F940DF274
:10F2500090E29093C6008091C00086FFFCCF809121
:10F26000C00080648093C000AEE3A093C60080918C
:10F27000C00086FFFCCF8091C00080648093C000F6
:10F28000C601AA27BB270F940DF2BB27AD2D9C2DDD
:10F290008B2D0F940DF28A2D0F940DF20F94DCF14B
:10F2A000CC5DDE4FE881F981C452D140F99709F471
:10F2B0004DCBF4E0EF2EF12C012D112D6E0C7F1CA7
:10F2C000801E911EF2CD83E093EE62E00F94F5F183
:10F2D0008AE192EE60E00F94C2F18091C00087FF56
:10F2E000FCCF1091C6001F751093C6008091C0001E
:10F2F00086FFFCCF8091C00080648093C0000F9493
:10F30000DCF1812F81548A3108F036C1163409F4BA
:10F3100095C0173490F4133409F44EC0143430F40B
:10F320001134F1F0123409F01DC130C0143409F465
:10F3300059C0153409F016C16BC01A3409F4C4C0A1
:10F340001B3438F4173409F48FC0183409F00AC19B
:10F35000A1C01B3409F4D2C01C3409F003C1E8C0B9
:10F360008FEF81B90DC082B1809582B980E090E0C5
:10F37000E0EDF7E03197F1F70196883C9105C1F790
:10F380008091C00087FFEFCF12B8EFC08FEF84B934
:10F390000DC085B1809585B980E090E0E0EDF7E0A3
:10F3A0003197F1F70196883C9105C1F78091C00033
:10F3B00087FFEFCF15B8D9C08FEF87B90DC088B1DF
:10F3C000809588B980E090E0E0EDF7E03197F1F7C3
:10F3D0000196883C9105C1F78091C00087FFEFCF6F
:10F3E00018B8C3C08FEF8AB90DC08BB180958BB9A7
:10F3F00080E090E0E0EDF7E03197F1F70196883C8E
:10F400009105C1F78091C00087FFEFCF1BB8ADC059
:10F410008FEF8DB90DC08EB180958EB980E090E0F0
:10F42000E0EDF7E03197F1F70196883C9105C1F7DF
:10F430008091C00087FFEFCF1EB897C08FEF80BBD1
:10F440000DC081B3809581BB80E090E0E0EDF7E0F6
:10F450003197F1F70196883C9105C1F78091C00082
:10F4600087FFEFCF11BA81C08FEF83BB0DC084B38C
:10F47000809584BB80E090E0E0EDF7E03197F1F714
:10F480000196883C9105C1F78091C00087FFEFCFBE
:10F4900014BA6BC08FEF809301010FC080910201FD
:10F4A00080958093020180E090E0E0EDF7E03197F5
:10F4B000F1F70196883C9105C1F78091C00087FF64
:10F4C000EDCF1092020151C08FEF809304010FC065
:10F4D0008091050180958093050180E090E0E0ED4A
:10F4E000F7E03197F1F70196883C9105C1F78091DB
:10F4F000C00087FFEDCF1092050137C08FEF8093DA
:10F5000007010FC08091080180958093080180E079
:10F5100090E0E0EDF7E03197F1F70196883C910536
:10F52000C1F78091C00087FFEDCF109208011DC088
:10F530008FEF80930A010FC080910B01809580931B
:10F540000B0180E090E0E0EDF7E03197F1F70196F4
:10F55000883C9105C1F78091C00087FFEDCF1092E4
:10F560000B0103C085E292EEEEC98091C00087FFD7
:10F57000FCCF8091C600EAC988E392EEE4C98CE131
:10F5800091EEE1C988249924933011F1943028F444
:10F59000913089F09230B8F408C0953061F195301F
:10F5A000F0F0963009F048C043C02B3109F042C951
:10F5B00091E06BE13FC96227C15DDE4F2883CF52E6
:10F5C000D14092E037C9B22FA0E0622793E032C960
:10F5D000822F90E0A82BB92B622794E02BC92E3004
:10F5E00009F039C3622795E0C05DDE4F19821882A9
:10F5F000C053D1401FC9E1E0F0E0EC0FFD1FC05D3A
:10F60000DE4F08811981C053D140E00FF11F2083E4
:10F610000F5F1F4FC05DDE4F19830883C053D14079
:10F6200062270A171B0709F005C9D80196E002C92D
:10F63000261709F010C303C0973009F0FBC87724E0
:10F640009981933109F412C19431C8F4963009F4C8
:10F65000D8C0973050F4923009F406C1933009F4C1
:10F660006DC0913009F059C253C0913109F477C08F
:10F67000923108F0BBC0903109F04FC2F5C098310B
:10F6800009F487C0993150F4953109F4EFC09531F0
:10F6900008F4C6C1963109F040C2C2C19A3109F4DA
:10F6A0006CC09A3108F491C09B3109F45BC09D3164
:10F6B00009F033C29D81903359F48F81882311F46E
:10F6C0009EE11CC0813011F091E018C098E916C08D
:10F6D000892F807591F0903539F4E0E0F0E089E011
:10F6E0008093570094910AC0983539F4E3E0F0E034
:10F6F00089E080935700949101C090E01A821B82A8
:10F700008D818C831D829E831F8227E030E009C299
:10F710001A8288E08B8381E48C8386E58D8382E581
:10F720008E8389E48F8383E5888780E589878FE5E9
:10F730008A8782E38B872BE030E0F3C18A818139AD
:10F7400041F0823941F0803911F48FE005C080E04A
:10F7500003C082E001C08AE01A828B8344C0772410
:10F76000739482C08D81882311F48EE12CC0813086
:10F7700011F081E028C088E926C01A82E1E0F0E0BB
:10F7800089E08093570084918B831C8224E030E0D1
:10F79000C8C18B81803589F48C81883039F4E2E0EE
:10F7A000F0E089E08093570084910DC0E0E0F0E044
:10F7B00089E080935700849106C0E3E0F0E089E09F
:10F7C0008093570084911A82DFCF8D81836C99E0FA
:10F7D000E1E0F0E0082E90935700E89507B600FCB2
:10F7E000FDCF1A821B8223E030E09BC180EC8A832C
:10F7F000CE5CDE4F188219821A821B82C253D1401E
:10F800008EC18A8190E0A0E0B0E0582F44273327D2
:10F8100022278B8190E0A0E0B0E0DC0199278827C7
:10F82000282B392B4A2B5B2B8D8190E0A0E0B0E098
:10F83000282B392B4A2B5B2B8C8190E0A0E0B0E089
:10F84000BA2FA92F982F8827282B392B4A2B5B2BCF
:10F85000220F331F441F551FC05EDE4F288339839C
:10F860004A835B83C052D1401A8259C13A81C95C34
:10F87000DE4F3883C753D140CA5CDE4F1882C6536F
:10F88000D1408B81C82EDD24CA5CDE4F488159816E
:10F89000C653D140C42AD52A933109F082C0CE5C28
:10F8A000DE4F88819981AA81BB81C253D1408050AB
:10F8B000904CA340B04030F583E0CE5CDE4FE88052
:10F8C000F9800A811B81C253D140F70100935B008C
:10F8D00080935700E89507B600FCFDCFCE5CDE4F65
:10F8E000088119812A813B81C253D14000501F4FAA
:10F8F0002F4F3F4FCE5CDE4F088319832A833B8313
:10F90000C253D140C05EDE4F488159816A817B81FC
:10F91000C052D140DE011B9631E08C9111962C91A2
:10F9200011971296C75CDE4F2883C953D140C85C3B
:10F93000DE4F1882C853D14090E0C85CDE4FE881AA
:10F94000F981C853D1408E2B9F2B0C01FA01609393
:10F950005B0030935700E89511244E5F5F4F6F4F67
:10F960007F4F0EEFE02E0FEFF02ECE0CDF1CC114F8
:10F97000D10499F685E0C05EDE4F088119812A81A5
:10F980003B81C052D140F80120935B008093570027
:10F99000E89507B600FCFDCF81E180935700E8951C
:10F9A00035C0C05EDE4F88819981AA81BB81C0527B
:10F9B000D140B695A795979587957C018601ABE0D8
:10F9C000AA2EB12CAC0EBD1E0BC0D5016D915D01F0
:10F9D000C7010F947FFE0894E11CF11C01501040F8
:10F9E0000115110591F7A60160E070E0440F551F65
:10F9F000661F771FC05EDE4FE880F9800A811B8199
:10FA0000C052D1404E0D5F1D601F711F1A82C05E33
:10FA1000DE4F488359836A837B83C052D1407FC0C5
:10FA2000FA80C55CDE4FF882CB53D140C65CDE4F16
:10FA30001882CA53D1408B81C82EDD24C65CDE4FAC
:10FA400008811981CA53D140C02AD12A1A828981DA
:10FA5000BE016D5F7F4F843121F59601C05EDE4FA0
:10FA6000E880F9800A811B81C052D1400BBFF701A9
:10FA700087919691DB018C9311969C936E5F7F4FDB
:10FA8000D801C7010296A11DB11DC05EDE4F88835B
:10FA90009983AA83BB83C052D14022503040F1F6F3
:10FAA00036C0C05EDE4F288139814A815B81C052F9
:10FAB000D1400894C108D108760100E010E0089414
:10FAC000C11CD11C0894E11CF11C011D111DE20E8A
:10FAD000F31E041F151F21BDBB27A52F942F832FB5
:10FAE00082BD2F5F3F4F4F4F5F4FF89A80B5DB01CC
:10FAF0008D93BD012E153F054007510761F7C05E8C
:10FB0000DE4F288339834A835B83C052D1409601FC
:10FB10002D5F3F4FFB01108204C080EC8A8322E0FE
:10FB200030E08BE18093C6008091C00086FFFCCF5F
:10FB30008091C00080648093C000C15DDE4FF88179
:10FB4000CF52D140F093C6008091C00086FFFCCF19
:10FB50008091C00080648093C000432F3093C60022
:10FB60008091C00086FFFCCF8091C00080648093AC
:10FB7000C000922F2093C6008091C00086FFFCCF6A
:10FB80008091C00080648093C0008EE08093C600A6
:10FB90008091C00086FFFCCF8091C000806480937C
:10FBA000C00065E1C15DDE4FE880CF52D1406E25D7
:10FBB00069276427FE01319610C090819093C6009A
:10FBC0008091C00086FFFCCF31968091C000806498
:10FBD0008093C0006927215030402115310569F715
:10FBE0006093C6008091C00086FFFCCF8091C0006A
:10FBF00080648093C00085B1805885B9772081F4F6
:10FC0000C15DDE4F0881CF52D1400F5FC15DDE4F35
:10FC10000883CF52D14090E0A0E0B0E00D941AF4F8
:10FC200027982F9880E090E020ED37E0F901319798
:10FC3000F1F7019684369105C9F700008091C00064
:10FC40008D7F8093C00081E180935700E895EE2777
:10FC5000FF270994FFCF90E00D941AF497FB092E2B
:10FC600007260AD077FD04D02ED006D000201AF443
:10FC7000709561957F4F0895F6F7909581959F4F08
:10FC80000895A1E21A2EAA1BBB1BFD010DC0AA1FDD
:10FC9000BB1FEE1FFF1FA217B307E407F50720F0F5
:10FCA000A21BB30BE40BF50B661F771F881F991F70
:10FCB0001A9469F760957095809590959B01AC01B9
:10FCC000BD01CF010895AA1BBB1B51E107C0AA1FAC
:10FCD000BB1FA617B70710F0A61BB70B881F991FED
:10FCE0005A95A9F780959095BC01CD010895F99991
:10FCF000FECF92BD81BDF89A992780B50895262F31
:10FD0000F999FECF1FBA92BD81BD20BD0FB6F89400
:0EFD1000FA9AF99A0FBE01960895F894FFCF63
:00000001FF
