:020000040000FA
:100000000C944E010C947F010C947F010C947F01A1
:100010000C947F010C947F010C947F010C947F0160
:100020000C947F010C94F90E0C94F90E0C94F90EBB
:100030000C947F010C947F010C947F010C947F0140
:100040000C947F010C947F010C947F010C947F0130
:100050000C947F010C947F010C947F010C94AF0EE3
:100060000C9495100C94790E0C944F0E0C947F0107
:100070000C947F010C947F010C947F010C947F0100
:100080000C947F010C947F010C947F010C947F01F0
:100090000C947F010C947F010C947F010C94750FDC
:1000A0000C947F010C947F010C947F010C947F01D0
:1000B0000C947F010C947F010C947F010C947F01C0
:1000C0000C947F010C947F010C947F010C94190E09
:1000D0000C94EF0D0C947F010C947F010C947F0124
:1000E0000C947F010C945E050C9499020C948B0285
:1000F0000C94BC030C9468020C94A7100C94C603D7
:100100000C9499030C94EA040C94B2030C94E90443
:100110000C94D1040C94C0030C9477020C94CE037D
:100120000C9476040C9493030C94CA030C94280347
:100130000C94F6140C9446050C94CF050C9405040D
:100140000C94D4030C94A5030C94A8030C94AE0354
:100150000C9436040C94D8030C9429070C94D00505
:100160000C949D030C94B8030C94A1030C94DB0233
:100170000C943B020C94D3030000210024002700C0
:100180002A002D00300033000101000004010701A6
:100190000A0100000A0B02090C0D0E0807030401F6
:1001A000000000000000000000000000000000004F
:1001B000000000000000000000000000000012111C
:1001C000100000000000000000000000000000001F
:1001D00000000000000000000000200023002600B6
:1001E00029002C002F00320000010000030106014D
:1001F000090100002200250028002B002E003100FC
:10020000340002010000050108010B010505050588
:10021000070508080808020202020A0A080804047E
:1002200004040101010101010101030303030303AC
:100230000303040707070C0C0C0C0C0C0C0C02023B
:10024000020206060606060606060B0B0B0B0B0B38
:100250000B0B0102102020080810204010204080C5
:10026000020102010804020101020408102040807A
:100270008040201008040201800402018040201008
:100280000804020108040201010204081020408051
:100290000102040810204080A710F61411241FBE8C
:1002A000CFEFD1E2DEBFCDBF00E00CBF25E0AEE571
:1002B000B2E001C01D92AF30B207E1F712E0A0E05A
:1002C000B2E0E4E6F0E300E00BBF02C007900D925D
:1002D000AE35B107D9F711E0CDE4D1E000E006C0BA
:1002E00021970109802FFE010E94EE15CC34D10721
:1002F00080E00807A9F70E9417120C9420180C94AC
:100300000000FC01A089B18982E08C93A485B585A9
:1003100086E08C93A685B78592E89C93108EA4897D
:10032000B5898C93A289B3898C9180618C93A289C1
:10033000B3898C9188608C93A289B3898C918068F1
:100340008C930288F389E02D80818F7D80830895CE
:1003500096E0899FD0011124A358BB4F90967C93BF
:100360006E935F9791E091969C939197E091EA0448
:10037000F091EB049091E904992339F0309751F012
:10038000811108C0809199041994309719F05C96F6
:100390008C91FACF0895CF92DF92EF92FF920F9354
:1003A0001F9396E0899FF0011124E358FB4F11A29F
:1003B000278D30A12130310551F178F022303105FF
:1003C00009F451C02330310509F452C01F910F9137
:1003D000FF90EF90DF90CF9008956623B9F361E02E
:1003E00070E00E94A8012FB7F894809121039091AA
:1003F0002203A0912303B09124032FBF8093D5043F
:100400009093D604A093D704B093D804DFCF9FB7BE
:10041000F894C0902103D0902203E0902303F09041
:1004200024039FBF0091D5041091D6042091D704D6
:100430003091D804C01AD10AE20AF30A0091E70405
:100440001091E80430E020E00C151D052E053F0555
:1004500050F462E070E01F910F91FF90EF90DF90F9
:10046000CF900C94A8016111B1CF63E070E0F3CF9D
:1004700070E060E0F0CFAF92BF92CF92DF92EF9248
:10048000FF920F931F93CF93DF936C017B018B013E
:10049000040F151FEB015E01AE18BF08C017D1078E
:1004A00059F06991D601ED91FC910190F081E02D18
:1004B000C6011995892B79F7C501DF91CF911F915D
:1004C0000F91FF90EF90DF90CF90BF90AF90089585
:1004D000FC01538D448D252F30E0842F90E0821B4A
:1004E000930B541710F0CF96089501970895FC01CF
:1004F000918D828D981761F0A28DAE0FBF2FB11D27
:100500005D968C91928D9F5F9F73928F90E008957E
:100510008FEF9FEF0895FC01918D828D981731F038
:10052000828DE80FF11D858D90E008958FEF9FEF8C
:100530000895FC01918D228D892F90E0805C9F4F62
:10054000821B91098F739927089585E293E00E9499
:10055000990221E0892B09F420E0822F089582EC92
:1005600093E00E94990221E0892B09F420E0822F78
:100570000895FC01A48DA80FB92FB11DA35ABF4F38
:100580002C91848D90E001968F739927848FA68992
:10059000B7892C93A089B1898C91837080648C93E6
:1005A000938D848D981306C00288F389E02D808195
:1005B0008F7D80830895EF92FF920F931F93CF93C7
:1005C000DF93EC0181E0888F9B8D8C8D98131AC08E
:1005D000E889F989808185FF15C09FB7F894EE8975
:1005E000FF896083E889F9898081837080648083D2
:1005F0009FBF81E090E0DF91CF911F910F91FF901D
:10060000EF900895F62E0B8D10E00F5F1F4F0F73C4
:100610001127E02E8C8D8E110CC00FB607FCFACF7F
:10062000E889F989808185FFF5CFCE010E94B90262
:10063000F1CFEB8DEC0FFD2FF11DE35AFF4FF08250
:100640009FB7F8940B8FEA89FB8980818062CFCFB6
:10065000CF93DF93EC01888D8823B9F0AA89BB89F9
:10066000E889F9898C9185FD03C0808186FD0DC0E4
:100670000FB607FCF7CF8C9185FFF2CF808185FF05
:10068000EDCFCE010E94B902E9CFDF91CF9108955D
:1006900080E090E0892B29F00E94AF0281110E9436
:1006A000000080E090E0892B49F080E090E0892B09
:1006B00029F00E94000081110E94000080E090E07B
:1006C000892B29F00E94A50281110E94000080E080
:1006D00090E0892B49F080E090E0892B29F00E947E
:1006E000000081110C94000008958150823108F0BF
:1006F0005AC0E82FF0E08827EF57FC4F8F4F0C943B
:10070000EE15A103A503930399039D03D303A80347
:10071000AE03B203B803BC03C003C603CA03D303CA
:10072000CE03D403D803809180008F77809380001C
:100730000895809180008F7DF9CF80918000877F20
:10074000F5CF84B58F7784BD089584B58F7DFBCFB9
:100750008091B0008F778093B00008958091B000B1
:100760008F7DF9CF809190008F77809390000895CE
:10077000809190008F7DF9CF80919000877FF5CF99
:100780008091A0008F778093A00008958091A000B1
:100790008F7DF9CF8091A000877FF5CF80912001D8
:1007A0008F77809320010895809120018F7DF9CF6C
:1007B00080912001877FF5CFCF93DF93282F30E002
:1007C000F901EE56FE4F8491F901EE5AFD4FD49196
:1007D000F901E45FFD4FC491CC23A1F081110E9487
:1007E0007503EC2FF0E0EE0FFF1FE852FE4FA591CE
:1007F000B491EC91ED2381E090E009F480E0DF9189
:10080000CF91089580E090E0FACF862F0C94DC031E
:100810001F93CF93DF93282F30E0F901EE56FE4F60
:100820008491F901EE5AFD4FD491F901E45FFD4F37
:10083000C491CC23A9F0162F81110E947503EC2FCF
:10084000F0E0EE0FFF1FEE50FE4FA591B4918FB771
:10085000F894EC91111108C0D095DE23DC938FBF82
:10086000DF91CF911F910895DE2BF8CF862F642F53
:100870000C940804CF93DF9390E0FC01EE5AFD4FF7
:100880002491845F9D4FFC0184918823C9F090E0FE
:10089000880F991FFC01E858FE4FA591B491FC0107
:1008A000EE50FE4FC591D49161110DC09FB7F894E1
:1008B0008C91209582238C938881282328839FBF45
:1008C000DF91CF910895623051F49FB7F8943C9135
:1008D000822F809583238C93E8812E2BEFCF8FB7C7
:1008E000F894EC912E2B2C938FBFEACF862F642F98
:1008F0000C943A043FB7F894809116039091170333
:10090000A0911803B091190326B5A89B05C02F3FED
:1009100019F00196A11DB11D3FBFBA2FA92F982F25
:100920008827BC01CD01620F711D811D911D42E020
:10093000660F771F881F991F4A95D1F708958F92E8
:100940009F92AF92BF92CF92DF92EF92FF924B01B4
:100950005C010E947A046B017C010E947A046C198C
:100960007D098E099F09683E734081059105A8F3B2
:1009700021E0821A9108A108B10888EEC80E83E030
:10098000D81EE11CF11C81149104A104B10429F7C3
:10099000FF90EF90DF90CF90BF90AF909F908F909F
:1009A000089520911303309114032817390771F427
:1009B0009091120380911103981741F0E091120376
:1009C000F0E0EF52FD4F808190E008958FEF9FEFB0
:1009D00008950895EF92FF920F931F93CF93DF93A3
:1009E000DC015C96ED90FC905D97E114F10479F4E4
:1009F00081E090E013969C938E93129790E080E0B4
:100A0000DF91CF911F910F91FF90EF900895519634
:100A1000ED91FC91529750968C915097982F90950C
:100A20000FB75E962C915E97122F127021FD609584
:100A3000F8942081112319F1282B2083E7012197B5
:100A4000F1F728E0462F50E0308160FF1AC0382BC4
:100A50003083E7012197F1F7BA0175956795215029
:100A600089F7112381F08081892380830FBF5C96F1
:100A70008D919C910197F1F781E090E0C1CF2923FE
:100A8000DCCF3923E5CF9081892BEFCF2091130361
:100A9000309114032817390771F4809111032091C4
:100AA000120390E0805C9F4F821B910960E470E02C
:100AB0000E94B815089590E080E0089520911303F6
:100AC0003091140328173907B9F4909112038091DB
:100AD0001103981789F0E0911203F0E0EF52FD4FF7
:100AE00080812091120330E02F5F3F4F2F73332717
:100AF0002093120390E008958FEF9FEF08952091C7
:100B00008702260F3327331F21323105ECF4209161
:100B1000AB02FC0190E080E0243069F082E00895AF
:100B2000A09187022191AC0149595D4FA40FB52FC7
:100B3000B11D2C930196861798F380918702680F58
:100B40006093870280E0089581E008958FEF9FEF22
:100B500008958FEF9FEF08958091600290E0919546
:100B6000819591090895CF93DF93CB01EA01642F1A
:100B70000E947F05CE01DF91CF910895CF93DF933F
:100B80001F92CDB7DEB7698361E0CE0101960E9466
:100B90007F0581E090E00F90DF91CF910895089557
:100BA00090E080E00895CF93DF93EC0160E08E81C8
:100BB0000E94080461E08E810E94080460E08E813A
:100BC0000E9408048BE891E00197F1F7DF91CF9143
:100BD0000895CF92DF92EF92FF920F931F93CF93DE
:100BE000DF936C017C0187E0E80EF11CD0E0C0E0EF
:100BF000062F10E0B8010C2E02C0759567950A9477
:100C0000E2F76170F70181917F010E94080421964B
:100C1000C430D10579F7C601DF91CF911F910F91B3
:100C2000FF90EF90DF90CF900C94D305CF92DF929E
:100C3000EF92FF920F931F93CF93DF93EC01F62E69
:100C4000642F8C810E9408048D818F3F19F060E031
:100C50000E9408040F2D10E08F8584FF25C06E01CF
:100C600087E0C80ED11CF12CE12CB8010E2C02C07B
:100C7000759567950A94E2F76170F60181916F01AD
:100C80000E940804FFEFEF1AFF0A88E0E816F1045B
:100C900061F7CE01DF91CF911F910F91FF90EF90FF
:100CA000DF90CF900C94D305B80184E075956795DB
:100CB0008A95E1F7CE010E94E9056F2DCE01DF9103
:100CC000CF911F910F91FF90EF90DF90CF900C94F8
:100CD000E90540E0682F85E694E00C94160681E073
:100CE0000E9469068BE39FE10197F1F70895CF9386
:100CF000DF93823029F49091740498609093740487
:100D0000809378041092790480E480937A0480E1DF
:100D100080937B0480E580937C0461E0809169048A
:100D20000E943A0480916A048F3F19F061E00E94AA
:100D30003A0461E080916B040E943A04C5E6D4E075
:100D40009E01255634408091740484FD0BC084E0DC
:100D500090E021962817390744F461E08E810E94C3
:100D60003A04EECF88E090E0F4CF8BE39DE001976A
:100D7000F1F760E0809169040E94080460E08091CE
:100D80006B040E94080480916A048F3F19F060E0B0
:100D90000E9408048091740484FD34C063E085E6F9
:100DA00094E00E94E905CBE4D6E4CE010197F1F787
:100DB00063E085E694E00E94E9052197F1F763E09E
:100DC00085E694E00E94E90583E592E00197F1F75A
:100DD00062E085E694E00E94E905809174048062F7
:100DE0000E94690684E0809375048CE00E94690685
:100DF0000E946F0682E08093760486E0DF91CF91B7
:100E00000C94690680620E9469068BE496E401975F
:100E1000F1F78091740480620E94690683E592E094
:100E20000197F1F78091740480620E946906D5CF22
:100E3000843008F083E090917804891710F08FEFE8
:100E4000890FE82FF0E0EB59FB4F848980680C9400
:100E5000690641E00E94160681E090E008958F92B5
:100E60009F92AF92BF920F931F93CF93DF93CDB713
:100E7000DEB7A1970FB6F894DEBF0FBECDBF19A2A3
:100E8000423008F44AE08E010F5D1F4F842E912CF2
:100E9000B12CA12CA50194010E94CC15E62FB9011B
:100EA000CA01EA3044F5E05DD801EE938D01232BB1
:100EB000242B252B79F790E080E0109769F0FD0155
:100EC00001900020E9F73197AF014A1B5B0BBD0190
:100ED00085E694E00E943B02A1960FB6F894DEBF2F
:100EE0000FBECDBFDF91CF911F910F91BF90AF90FB
:100EF0009F908F900895E95CD7CFCF92DF92EF92C9
:100F0000FF926C01092E000CEE08FF0897FF16C037
:100F100041E06DE285E694E00E9416066627772799
:100F2000CB016C197D098E099F094AE00E942F07A9
:100F30000196FF90EF90DF90CF9008954AE0C701AF
:100F4000B601FF90EF90DF90CF900C942F0780E0D8
:100F50000E94180780911F03082E000C990B0E9415
:100F60007D0741E06091000285E694E00E9416064C
:100F700042E050E06AE572E085E694E00E943B02C0
:100F800081E00E94180780915F02082E000C990BE7
:100F90000C947D070F931F93CF93DF93EC0188810F
:100FA0009981009759F02A813B812617370730F045
:100FB00081E0DF91CF911F910F9108958B016F5FB9
:100FC0007F4F0E942F17009759F0998388831B83C6
:100FD0000A832C813D81232B59F7FC011082E8CF35
:100FE00080E0E7CFCF93DF93EC0188819981009770
:100FF00011F00E94A616198218821D821C821B8283
:101000001A82DF91CF910895EF92FF920F931F9371
:10101000CF93DF93EC01FB01E080F180E114F10458
:1010200011F10481158101151105A9F08C819D81B3
:10103000080F191FB801CE010E94CA07882399F032
:10104000288139818C819D81B701820F931F0E9475
:1010500019181D830C83CE01DF91CF911F910F9141
:10106000FF90EF900895CE010E94F207F4CFEF9227
:10107000FF920F931F93CF93DF93EC017B018A01C3
:10108000BA010E94CA0781110BC0CE010E94F2076B
:10109000CE01DF91CF911F910F91FF90EF900895B6
:1010A0001D830C83B701888199810E941918F0CFA4
:1010B000FB0101900020E9F73197AF01461B570B68
:1010C0000C943708AF92BF92CF92DF92EF92FF92CB
:1010D0000F931F93CF93DF93EC017B015A01CC2434
:1010E000C394D12C452B29F4D12CC12CAA24A39430
:1010F000B12C198218821B821A821D821C8250E038
:1011000040E06CE572E0CE010E943708D7011496EA
:101110000D911C91C016D106E8F4A016B10608F492
:101120008501D701ED91FC911197E00FF11FB0807F
:1011300010826D917C916C0D7D1DCE016115710544
:10114000A9F00E945808F70180819181080F191FAA
:10115000D801BC92CE01DF91CF911F910F91FF90EA
:10116000EF90DF90CF90BF90AF9008950E94F2076C
:10117000EACF0F931F93CF93DF93CDB7DEB762977C
:101180000FB6F894DEBF0FBECDBF8C01CB01F801C6
:101190001182108213821282158214824AE0BE01EB
:1011A0006F5F7F4F0E943D15BE016F5F7F4FC8018B
:1011B0000E94580862960FB6F894DEBF0FBECDBFEE
:1011C000DF91CF911F910F9108950F931F93CF93AC
:1011D000DF93CDB7DEB7A2970FB6F894DEBF0FBE90
:1011E000CDBF8C01CB01BA01F801118210821382AC
:1011F0001282158214822AE0AE014F5F5F4F0E9477
:101200004815BE016F5F7F4FC8010E945808A29623
:101210000FB6F894DEBF0FBECDBFDF91CF911F9107
:101220000F910895CF93DF93EC01FB018617970789
:1012300049F0608171816115710541F044815581EA
:101240000E943708CE01DF91CF9108950E94F207E6
:10125000F9CFFC011182108213821282158214824E
:101260000C941209FC0180819181009711F00C947B
:10127000A61608951F93CF93DF9385ED8093BC004E
:101280008091630290916402A0916502B091660220
:101290000796A11DB11D23E0B695A7959795879553
:1012A0002A95D1F72091BC0024FD03C01092AB0217
:1012B00052C0409163025091640260916502709146
:1012C0006602452B462B472B69F30097A105B10514
:1012D00041F025E32A95F1F700000197A109B10932
:1012E000E1CF80916202C1E0C0936102882399F14D
:1012F000D091B8001091BA008091BC008A7B809395
:10130000BC0060E084E10E94080460E085E10E9486
:1013100008041092AB02C093AD021092AC0261E0DF
:1013200084E10E94080461E085E10E940804809144
:10133000B9008E7F8093B9008091B9008D7F809332
:10134000B90088E48093B80085E48093BC001093D2
:10135000BA00D093B800DF91CF911F910895CF923A
:10136000DF92EF92FF920F931F93CF93DF93CDB74E
:10137000DEB768970FB6F894DEBF0FBECDBF0E94F0
:101380006F06809120038A3209F0DEC010921F039D
:1013900010925F021092010280912003843339F48D
:1013A00080915F02811136C184E080935F02809159
:1013B0002003873339F480915F02811186C187E071
:1013C00080935F0280912003803309F05DC080919B
:1013D0005F02882309F463C0C82E082E000CDD08C4
:1013E000EE08FF089AE0899F802D112480935F0208
:1013F000B701A601CE0101960E94E5080D811E816C
:10140000CE0101960E943209012BF1F1B701A6012C
:10141000CE0101960E94E50870E060E0CE0143969F
:101420000E94B9084D815E81BE016F5F7F4FCE0182
:1014300007960E946208BE01695F7F4FCE010D963C
:101440000E942909BE016D5E7F4FCE010D960E945C
:101450000408BC01CE0101960E941209CE010D962E
:101460000E943209CE0107960E943209CE014396AE
:101470000E94320989819A810E94161560935F0249
:10148000CE0101960E94320980912003823339F403
:1014900080915F02811174C182E080935F0280912C
:1014A0002003853339F480915F028111C4C185E046
:1014B00080935F0280912003883339F480915F022A
:1014C000811114C288E080935F02809120038332EF
:1014D00009F067C281E08093010280912003863386
:1014E00039F480915F028111C2C286E080935F026D
:1014F00080912003893339F480915F02811112C3F6
:1015000089E080935F02809120039FEB980F9230D7
:1015100060F490915F0290931F0310925F028134F8
:1015200009F05BC38BE28093000268960FB6F894D3
:10153000DEBF0FBECDBFDF91CF911F910F91FF9006
:10154000EF90DF90CF900895813309F025CF8091FF
:101550005F02811104C081E080935F021DCFC82E1D
:10156000082E000CDD08EE08FF089AE0899F802D08
:1015700011248F5F80935F02B701A601CE0101960F
:101580000E94E5080D811E81CE0101960E9432095C
:10159000012B09F401CFB701A601CE0101960E94EB
:1015A000E50861E070E0CE0143960E94B9084D81E4
:1015B0005E81BE016F5F7F4FCE0107960E94620879
:1015C000BE01695F7F4FCE010D960E942909BE01C1
:1015D0006D5E7F4FCE010D960E940408BC01CE01C6
:1015E00001960E941209CE010D960E943209CE0189
:1015F00007960E943209CE0143960E9432098981E2
:101600009A810E94161560935F02CE0101960E9496
:101610003209C2CEC82E082E000CDD08EE08FF08E5
:101620009AE0899F802D11248C5F80935F02B7011F
:10163000A601CE0101960E94E5080D811E81CE0112
:1016400001960E943209012B09F4B1CEB701A6011F
:10165000CE0101960E94E50864E070E0CE01439659
:101660000E94B9084D815E81BE016F5F7F4FCE0140
:1016700007960E946208BE01695F7F4FCE010D96FA
:101680000E942909BE016D5E7F4FCE010D960E941A
:101690000408BC01CE0101960E941209CE010D96EC
:1016A0000E943209CE0107960E943209CE0143966C
:1016B0000E94320989819A810E94161560935F0207
:1016C000CE0101960E94320972CEC82E082E000C5F
:1016D000DD08EE08FF089AE0899F802D1124895FBC
:1016E00080935F02B701A601CE0101960E94E50832
:1016F0000D811E81CE0101960E943209012B09F451
:1017000061CEB701A601CE0101960E94E50867E00F
:1017100070E0CE0143960E94B9084D815E81BE0102
:101720006F5F7F4FCE0107960E946208BE01695F1E
:101730007F4FCE010D960E942909BE016D5E7F4F3D
:10174000CE010D960E940408BC01CE0101960E94B4
:101750001209CE010D960E943209CE0107960E9411
:101760003209CE0143960E94320989819A810E94F2
:10177000161560935F02CE0101960E94320922CEB7
:10178000C82E082E000CDD08EE08FF089AE0899F9D
:10179000802D11248E5F80935F02B701A601CE01D8
:1017A00001960E94E5080D811E81CE0101960E94DE
:1017B0003209012B09F473CEB701A601CE010196BF
:1017C0000E94E50862E070E0CE0143960E94B908ED
:1017D0004D815E81BE016F5F7F4FCE0107960E94F3
:1017E0006208BE01695F7F4FCE010D960E942909F4
:1017F000BE016D5E7F4FCE010D960E940408BC01B4
:10180000CE0101960E941209CE010D960E94320966
:10181000CE0107960E943209CE0143960E943209FA
:1018200089819A810E94161560935F02CE0101960C
:101830000E94320934CEC82E082E000CDD08EE08B6
:10184000FF089AE0899F802D11248B5F80935F02AF
:10185000B701A601CE0101960E94E5080D811E8107
:10186000CE0101960E943209012B09F423CEB70163
:10187000A601CE0101960E94E50865E070E0CE0168
:1018800043960E94B9084D815E81BE016F5F7F4F14
:10189000CE0107960E946208BE01695F7F4FCE01AC
:1018A0000D960E942909BE016D5E7F4FCE010D96F7
:1018B0000E940408BC01CE0101960E941209CE01CB
:1018C0000D960E943209CE0107960E943209CE0180
:1018D00043960E94320989819A810E94161560936D
:1018E0005F02CE0101960E943209E4CDC82E082E77
:1018F000000CDD08EE08FF089AE0899F802D112476
:10190000885F80935F02B701A601CE0101960E9415
:10191000E5080D811E81CE0101960E943209012B3E
:1019200009F4D3CDB701A601CE0101960E94E508C6
:1019300068E070E0CE0143960E94B9084D815E8157
:10194000BE016F5F7F4FCE0107960E946208BE0105
:10195000695F7F4FCE010D960E942909BE016D5E21
:101960007F4FCE010D960E940408BC01CE01019666
:101970000E941209CE010D960E943209CE010796EF
:101980000E943209CE0143960E94320989819A81D0
:101990000E94161560935F02CE0101960E943209E3
:1019A00094CD833309F099CD80915F02811104C0F9
:1019B00083E080935F0291CDC82E082E000CDD08D5
:1019C000EE08FF089AE0899F802D11248D5F809397
:1019D0005F02B701A601CE0101960E94E5080D81C4
:1019E0001E81CE0101960E943209012B09F475CDAA
:1019F000B701A601CE0101960E94E50863E070E000
:101A0000CE0143960E94B9084D815E81BE016F5F91
:101A10007F4FCE0107960E946208BE01695F7F4F2B
:101A2000CE010D960E942909BE016D5E7F4FCE0149
:101A30000D960E940408BC01CE0101960E94120975
:101A4000CE010D960E943209CE0107960E943209FE
:101A5000CE0143960E94320989819A810E9416150F
:101A600060935F02CE0101960E94320936CDC82EE6
:101A7000082E000CDD08EE08FF089AE0899F802DF3
:101A800011248A5F80935F02B701A601CE010196FF
:101A90000E94E5080D811E81CE0101960E94320947
:101AA000012B09F425CDB701A601CE0101960E94B4
:101AB000E50866E070E0CE0143960E94B9084D81CA
:101AC0005E81BE016F5F7F4FCE0107960E94620864
:101AD000BE01695F7F4FCE010D960E942909BE01AC
:101AE0006D5E7F4FCE010D960E940408BC01CE01B1
:101AF00001960E941209CE010D960E943209CE0174
:101B000007960E943209CE0143960E9432098981CC
:101B10009A810E94161560935F02CE0101960E9481
:101B20003209E6CCC82E082E000CDD08EE08FF08AE
:101B30009AE0899F802D1124875F80935F02B7010F
:101B4000A601CE0101960E94E5080D811E81CE01FD
:101B500001960E943209012B09F4D5CCB701A601E8
:101B6000CE0101960E94E50869E070E0CE0143963F
:101B70000E94B9084D815E81BE016F5F7F4FCE012B
:101B800007960E946208BE01695F7F4FCE010D96E5
:101B90000E942909BE016D5E7F4FCE010D960E9405
:101BA0000408BC01CE0101960E941209CE010D96D7
:101BB0000E943209CE0107960E943209CE01439657
:101BC0000E94320989819A810E94161560935F02F2
:101BD000CE0101960E94320996CC8DE2A4CC1F92D0
:101BE0000F920FB60F9211240BB60F922F933F93C3
:101BF0004F935F936F937F938F939F93AF93BF9315
:101C0000EF93FF9385E293E00E94B902FF91EF9179
:101C1000BF91AF919F918F917F916F915F914F9104
:101C20003F912F910F900BBE0F900FBE0F901F9002
:101C300018951F920F920FB60F9211240BB60F92A8
:101C40002F938F939F93EF93FF93E0913503F09140
:101C500036038081E0913B03F0913C0382FD1DC07F
:101C6000908180913E038F5F8F7320913F03821795
:101C700041F0E0913E03F0E0EB5DFC4F958F8093E7
:101C80003E03FF91EF919F918F912F910F900BBE8B
:101C90000F900FBE0F901F9018958081F2CF1F926A
:101CA0000F920FB60F9211240BB60F922F933F9302
:101CB0004F935F936F937F938F939F93AF93BF9354
:101CC000EF93FF9382EC93E00E94B902FF91EF91B2
:101CD000BF91AF919F918F917F916F915F914F9144
:101CE0003F912F910F900BBE0F900FBE0F901F9042
:101CF00018951F920F920FB60F9211240BB60F92E8
:101D00002F938F939F93EF93FF93E091D203F091E2
:101D1000D3038081E091D803F091D90382FD1DC0E7
:101D200090818091DB038F5F8F732091DC0382179A
:101D300041F0E091DB03F0E0EE53FC4F958F809390
:101D4000DB03FF91EF919F918F912F910F900BBE2D
:101D50000F900FBE0F901F9018958081F2CF1F92A9
:101D60000F920FB60F9211242F933F938F939F934F
:101D7000AF93BF938091210390912203A0912303FD
:101D8000B09124033091150323E0230F2D3758F52C
:101D90000196A11DB11D20931503809321039093FB
:101DA0002203A0932303B093240380911603909100
:101DB0001703A0911803B09119030196A11DB11D3D
:101DC0008093160390931703A0931803B0931903FD
:101DD000BF91AF919F918F913F912F910F900FBE27
:101DE0000F901F90189526E8230F0296A11DB11D94
:101DF000D2CF1F920F920FB60F9211240BB60F92F3
:101E00002F933F934F935F936F937F938F939F9302
:101E1000AF93BF93EF93FF93E0911303F0911403FB
:101E2000309749F0A685B7858585968D91FF16C0B8
:101E30009C918923B1F4FF91EF91BF91AF919F9154
:101E40008F917F916F915F914F913F912F910F9063
:101E50000BBE0F900FBE0F901F9018959C91892379
:101E600051F7A389B4899C918589809589238C93A6
:101E7000868997890197F1F7608D718DA685B78561
:101E8000558538E020E0CB010197F1F7822F90E0F3
:101E900095958795282F4C91452309F0206831505E
:101EA00091F7868D81FD20958091110390E0019638
:101EB0008F73992730911203381799F0A09111036D
:101EC000B0E0AF52BD4F2C9380931103828D938D60
:101ED0000197F1F7A389B4898C919589892B8C930B
:101EE000AACF868D8160868FF1CF1F920F920FB699
:101EF0000F9211240BB60F922F933F934F935F9342
:101F00006F937F938F939F93AF93BF93EF93FF93C1
:101F10008091B900887F803609F44DC008F040C038
:101F2000883209F4A7C028F5803109F49BC0C8F4B1
:101F3000882309F4F7C0883009F494C0FF91EF9129
:101F4000BF91AF919F918F917F916F915F914F91D1
:101F50003F912F910F900BBE0F900FBE0F901F90CF
:101F60001895883109F486C0803241F78093AA021F
:101F700014C0803409F49BC040F48033B9F3883333
:101F8000E9F68093AA0285ECAEC0803509F483C0DF
:101F9000883509F494C0883489F60E943A09CECF76
:101FA000883909F48AC038F5883729F050F4883622
:101FB00011F0803719F683E08093AB021092A902EA
:101FC00055C0883809F479C0803919F0803809F093
:101FD000B5CF8091A902803208F06FC0E091A902CC
:101FE00081E08E0F8093A9028091BB00F0E0E7575B
:101FF000FD4F80833BC0803B39F0D0F4803A09F438
:1020000077C0883A09F09ACF84E08093AB021092AF
:10201000880210928702F0E0E0E019958091870233
:1020200081110FC081E0809387021092670209C07E
:10203000803C09F4A8CF883C09F4A5CF883B09F07F
:102040007DCFE091880281E08E0F80938802F0E0DE
:10205000E959FD4F80818093BB0090918802809167
:10206000870229C08091D0028093BB0085EC8093C9
:10207000BC0064CF9091CF028091CE02981758F5A2
:10208000E091CF0281E08E0F8093CF02F0E0E25525
:10209000FD4F8081E9CFE091CF0281E08E0F8093E8
:1020A000CF028091BB00F0E0E255FD4F808390911C
:1020B000CF028091CE029817C8F285E8D8CFE09180
:1020C000CF0281E08E0F8093CF028091BB00F0E0C1
:1020D000E255FD4F80838091AD0281115ECF81E09A
:1020E0008093AC0284EA8093BC001092AB0226CFAE
:1020F00085EC8093BC001092AB028091A9028032E3
:1021000030F4E091A902F0E0E757FD4F10826091B2
:10211000A90270E089E892E0F0E0E0E01995109201
:10212000A9020CCF1092AA0238CF1F920F920FB6BD
:102130000F9211248F938EB580931C0381E08093BE
:102140001E038F910F900FBE0F901F901895109245
:1021500028031092270388EE93E0A0E0B0E080937C
:10216000290390932A03A0932B03B0932C0324E21A
:1021700032E0309326032093250345ED50E0509341
:1021800032034093310344ED50E0509334034093C5
:10219000330340ED50E0509336034093350341ED57
:1021A00050E0509338034093370342ED50E0509392
:1021B0003A034093390346ED50E050933C0340937B
:1021C0003B0310923E0310923F0310924003109283
:1021D00041031092C5031092C4038093C6039093E9
:1021E000C703A093C803B093C9033093C3032093DC
:1021F000C20325EC30E03093CF032093CE0324ECD0
:1022000030E03093D1032093D00320EC30E03093C2
:10221000D3032093D20321EC30E03093D5032093F5
:10222000D40322EC30E03093D7032093D60326EC7E
:1022300030E03093D9032093D8031092DB0310923F
:10224000DC031092DD031092DE031092EF04109273
:10225000EE048093F0049093F104A093F204B09301
:10226000F3048CE492E09093ED048093EC041092DC
:1022700003051092020510920505109204051092B4
:102280000705109206051092090510920805609145
:102290000A056E7F6D7F60930A056695617081E027
:1022A000682783E10E94080461E083E10E943A0408
:1022B000E5E6F2E0E491E093FC04EFE1F2E0E49182
:1022C000F0E0EE0FFF1FEE50FE4F8591949190933A
:1022D000FE048093FD0460E082E10E943A04809154
:1022E0000A0581FD04C061E082E10E94080482E1E8
:1022F0008093F804E4E6F2E0E491E093F904EEE17F
:10230000F2E0E491F0E0EE0FFF1FE852FE4F8591FE
:1023100094919093FB048093FA0410927F0410929E
:102320008304109282041092840482E492E09093D9
:102330007E0480937D04E9E9F4E010821482138224
:102340001582369684E0E53DF807B9F786E092E01D
:102350009093E0048093DF0482E092E09093E204A3
:102360008093E10484E08093E3048093E4048AE0B2
:1023700092E09093DE048093DD048AE090E09093F5
:10238000E6048093E50484EF91E09093E804809361
:10239000E7041092EB041092EA041092D904109210
:1023A000DA041092DB041092DC041092E90410921B
:1023B00068041092670486E392E090936604809329
:1023C000650488E0809369048FEF80936A0489E054
:1023D00080936B048AE080936C048BE080936D049F
:1023E0008CE080936E048DE080936F0410927004F3
:1023F000109271041092720410927304109274047B
:1024000081E00E9477061092600410925F0410929F
:10241000620410926104109264041092630450E00C
:1024200040E06CE572E08FE594E00C943708CF93C0
:10243000DF9300D000D01F921F92CDB7DEB7789403
:1024400084B5826084BD84B5816084BD85B58260B9
:1024500085BD85B5816085BD80916E00816080936A
:102460006E001092810080918100826080938100D3
:1024700080918100816080938100809180008160E3
:10248000809380008091B10084608093B10080913E
:10249000B00081608093B000809191008260809351
:1024A00091008091910081608093910080919000D3
:1024B0008160809390008091A10082608093A10050
:1024C0008091A10081608093A1008091A000816033
:1024D0008093A000809121018260809321018091EE
:1024E000210181608093210180912001816080938E
:1024F000200180917A00846080937A0080917A0034
:10250000826080937A0080917A00816080937A0063
:1025100080917A00806880937A001092C10082E0F6
:102520000E94770685E293E00E94810182EC93E0AD
:102530000E94810161E082E30E943A048CB58064CC
:102540008CBD10921E038CB580688CBD61E08EE05E
:102550000E943A0461E08FE00E943A0461E084E165
:102560000E943A0461E085E10E943A0460E08EE056
:102570000E94080460E08FE00E94080460E084E1AB
:102580000E94080460E085E10E940804BB24B39423
:1025900080911D0381118FC080911E038823E1F378
:1025A000F0901C03F0921B036FE574E0CE010196DE
:1025B0000E942909FF8218860D811E810F5F1F4F1F
:1025C000B801CE0101960E94CA07882309F44DC0C4
:1025D00029813A818D819E81BE01695F7F4F820F83
:1025E000931F0E9419181E830D83BE016F5F7F4FDA
:1025F0008FE594E00E941209CE0101960E943209F3
:1026000021E2F21255C0B0921D0380E00E9418072B
:10261000F12CE12C10E000E08091630490916404BF
:102620000817190708F044C0680150E1C50ED11C15
:102630000C151D0511F18091630490916404081735
:102640001907D8F4E0915F04F0916004309791F499
:1026500010921A03EAE1F3E041E0608185E694E03C
:102660000E9416060F5F1F4FE3CFCE0101960E9416
:10267000F207BBCFE00FF11FEFCFC70101967C013E
:10268000E1E0EE22FF2480FF07C080916304909177
:1026900064040817190740F064E670E080E090E0F9
:1026A0000E949F040E946F068E2D0E941807B4CFCF
:1026B00010921E036DCF0E946F060E94A707412C47
:1026C000512C3201439488248A94982CF1E0F093A1
:1026D000E9048FB7F894409121035091220360914F
:1026E0002303709124038FBF8091D9049091DA0461
:1026F000A091DB04B091DC04481B590B6A0B7B0BE7
:102700008091E5049091E604B0E0A0E0841795077D
:10271000A607B70708F03FC110E08091E30418173F
:1027200060F4E091DF04F091E004E10FF11D62E05C
:1027300080810E943A041F5FF0CF312C8091E40425
:10274000381608F061C0E32CF12CE091E104F0911F
:10275000E204EE0DFF1D61E080810E943A04E091E9
:10276000E104F091E204EE0DFF1D60E080810E9423
:102770000804D301C201032C04C0880F991FAA1FAB
:10278000BB1F0A94D2F75C016C01C094D094212C39
:102790008091E304281608F5022D10E0E091DF0493
:1027A000F091E004E00FF11F80810E94DC030C5FD8
:1027B0001F4F000F111FF801E358FB4F892B41F405
:1027C000808191818A299B29918380832394E0CF02
:1027D000808191818C219D21F7CFE091E104F091DE
:1027E000E204EE0DFF1D61E080810E9408048091EB
:1027F000E1049091E204E80EF91E60E0F7018081A7
:102800000E943A0433949ACF0DE714E07801F7015F
:10281000878D90A1892B21F4148E968E858E11A21E
:10282000F6E0EF0EF11C89EB94E08E159F0579F729
:10283000B12C8091E304B81608F053C0A12CCB2C26
:10284000D12CCC0CDD1CF601EB57FB4F6F01209116
:10285000E404A21608F043C0F601608171810A2CDD
:1028600002C0769567950A94E2F7B29E9001112412
:102870002A0D311DEDE7F4E080E0458D568D2417DB
:10288000350709F4B1C08F5F36968A30B1F760FF23
:1028900024C0EDE7F4E090E080E0448D411118C0E1
:1028A000E091DD04F091DE04E20FF31F408156E079
:1028B000589FF001599FF00D1124E358FB4F448FAE
:1028C000368F258F10A2178E61E00E94CB0105C0C4
:1028D000019636968A30910501F7A394B8CFB39448
:1028E000A8CF80E0F80191A19111892F0A5F1F4FB5
:1028F0000E151F05B9F79FB7F89440912103509129
:10290000220360912303709124039FBF4093D90455
:102910005093DA046093DB047093DC048823D9F1CC
:1029200080919E048823B9F180919C0490919D042C
:10293000019789F58091990480932003811130C01B
:1029400080910102882311F1809100028B3259F5A8
:1029500060911F0385E293E00E94DB0261E084E165
:102960000E94080461E085E10E94080462E370E0CF
:1029700080E090E00E949F0460E084E10E940804EF
:1029800060E085E10E940804109201020E94A707FE
:102990000E9448039BCE1092E90410922003D0CFEE
:1029A0000E94AF09CDCF8D3279F760911F03772751
:1029B00061950CF4709585E293E00E94DB0261E082
:1029C0008EE00E94080461E08FE00E94080462E348
:1029D00070E080E090E00E949F0460E08EE00E9442
:1029E000080460E08FE0CECF61706FCF8FE594E098
:1029F0000E9432098CE492E09093ED048093EC0401
:102A000080911303909114038C5E944071F4E091D3
:102A1000FF04F09100059081809101058095892344
:102A20008083109214031092130308951F93FC01E6
:102A300099278827BC01E89411911032E9F31930E5
:102A400010F01E30C8F31B3251F01D3249F4689467
:102A500006C00E945715610F711D811D911D1191B6
:102A600010531A30B0F33EF49095809570956195AF
:102A70007F4F8F4F9F4F1F910895BB274A3031F4EE
:102A8000992322F4BDE2909581959F4F0C948F1568
:102A9000BB272A3051F4992342F4BDE290958095EA
:102AA000709561957F4F8F4F9F4F0C946D15592FE7
:102AB000482F372F262F660F771F881F991F660F05
:102AC000771F881F991F620F731F841F951F660F42
:102AD000771F881F991F0895BB27FA01A62F621739
:102AE000710581059105330B30FB66F0AA27660F4F
:102AF000771F881F991FAA1FA21710F0A21B6395AA
:102B00003850A9F7A05DAA3308F0A95DA19336F764
:102B1000B111B1931082CA010C94A815BB27FB0117
:102B20005527AA27880F991FAA1FA41710F0A41BC6
:102B300083955051B9F7A05DAA3308F0A95DA19320
:102B4000009779F7B111B1931192CB010C94A815AC
:102B5000DC01FC01672F71917723E1F7329704C004
:102B60007C916D9370836291AE17BF07C8F308958F
:102B700097FB072E16F4009407D077FD09D00E942A
:102B8000F61507FC05D03EF4909581959F4F08956A
:102B9000709561957F4F0895A1E21A2EAA1BBB1B69
:102BA000FD010DC0AA1FBB1FEE1FFF1FA217B30719
:102BB000E407F50720F0A21BB30BE40BF50B661F2F
:102BC000771F881F991F1A9469F7609570958095F3
:102BD00090959B01AC01BD01CF010895EE0FFF1F41
:102BE000881F8BBF0790F691E02D1994AA1BBB1B81
:102BF00051E107C0AA1FBB1FA617B70710F0A61BFD
:102C0000B70B881F991F5A95A9F780959095BC011D
:102C1000CD0108950F931F93CF93DF9382309105D9
:102C200010F482E090E0E0910D05F0910E0530E0A7
:102C300020E0B0E0A0E0309799F42115310509F4C7
:102C40004AC0281B390B24303105D8F58A819B8175
:102C50006115710589F1FB0193838283FE0111C027
:102C6000408151810281138148175907E0F04817CC
:102C7000590799F4109761F012960C9312971396D6
:102C80001C933296CF01DF91CF911F910F91089540
:102C900000930D0510930E05F4CF2115310551F069
:102CA0004217530738F0A901DB019A01BD01DF018A
:102CB000F801C1CFEF01F9CF90930E0580930D0578
:102CC000CDCFFE01E20FF31F819391932250310982
:102CD00039832883D7CF20910B0530910C05232B06
:102CE00041F420911C0230911D0230930C05209379
:102CF0000B0520911A0230911B022115310541F478
:102D00002DB73EB740911E0250911F02241B350B78
:102D1000E0910B05F0910C05E217F307A0F42E1BD0
:102D20003F0B2817390778F0AC014E5F5F4F24172F
:102D3000350748F04E0F5F1F50930C0540930B056D
:102D4000819391939FCFF0E0E0E09CCFCF93DF930E
:102D50000097E9F0FC01329713821282A0910D05D1
:102D6000B0910E05ED0130E020E01097A1F4208134
:102D70003181820F931F20910B0530910C0528178C
:102D8000390709F061C0F0930C05E0930B05DF9162
:102D9000CF910895EA01CE17DF07E8F54A815B81FC
:102DA0009E0141155105B1F7E901FB83EA83499181
:102DB0005991C40FD51FEC17FD0761F480819181F3
:102DC0000296840F951FE9019983888382819381FC
:102DD0009B838A83F0E0E0E012968D919C9113979B
:102DE0000097B9F52D913C911197CD010296820F74
:102DF000931F20910B0530910C052817390739F6E0
:102E0000309751F510920E0510920D05B0930C05F8
:102E1000A0930B05BCCFD383C28340815181840F23
:102E2000951FC817D90761F44E5F5F4F888199815C
:102E3000480F591F518340838A819B8193838283EA
:102E40002115310509F0B0CFF0930E05E0930D0583
:102E50009ECFFD01DC01C0CF13821282D7CF4F92EB
:102E60005F926F927F928F929F92AF92BF92CF921A
:102E7000DF92EF92FF920F931F93CF93DF938C011A
:102E8000009799F4CB01DF91CF911F910F91FF90A3
:102E9000EF90DF90CF90BF90AF909F908F907F90FA
:102EA0006F905F904F900C940A16FC01E60FF71F8D
:102EB0009C0122503109E217F30708F4AEC0D90192
:102EC000CD91DC911197C617D70720F1C530D105F8
:102ED00078F0CE0104978617970750F0C61BD70BE2
:102EE0002297C193D1936D937C93CF010E94A61634
:102EF000C801DF91CF911F910F91FF90EF90DF906C
:102F0000CF90BF90AF909F908F907F906F905F9089
:102F10004F9008955B01AC1ABD0A4C018C0E9D1EAA
:102F2000A0910D05B0910E05512C412CF12CE12CF6
:102F3000109731F580910B0590910C058815990536
:102F400009F05CC04616570608F058C080911A0276
:102F500090911B02009741F48DB79EB740911E02DD
:102F600050911F02841B950BE817F90708F055C014
:102F7000F0930C05E0930B05F90171836083B8CFE2
:102F80008D919C91119712966C90129713967C904C
:102F90001397A815B90559F56C0142E0C40ED11C70
:102FA000CA14DB0420F1AC014A195B09DA0112965C
:102FB000159780F06282738251834083D9016D93AB
:102FC0007C93E114F10471F0D7011396FC93EE9316
:102FD00012978ECF22968C0F9D1FF90191838083CB
:102FE000F301EFCFF0930E05E0930D0581CF481666
:102FF000590608F42C017D01D3019ACFCB010E9420
:103000000A167C01009749F0AE01B8010E94101821
:10301000C8010E94A61687016BCF10E000E068CFC0
:10302000FB01DC0102C001900D9241505040D8F7E5
:103030000895FB01DC0101900D920020E1F7089555
:1030400011E0CDE4D1E000E006C0802FFE010E9437
:10305000EE152196011DCE34D10780E00807A9F7AF
:10306000F894FFCF20011A1B1C1D161718193738AA
:10307000394434353643313233422A30234100005B
:103080000F05800000000000DB023B0268022803FD
:10309000990277028B020000000029073B02D0054D
:1030A000CF0500000000760436040504000000008F
:1030B000EA043B02D005E90446055E05D1040D0A89
:0230C00000000E
:10E000000D9489F10D94B2F10D94B2F10D94B2F129
:10E010000D94B2F10D94B2F10D94B2F10D94B2F1F0
:10E020000D94B2F10D94B2F10D94B2F10D94B2F1E0
:10E030000D94B2F10D94B2F10D94B2F10D94B2F1D0
:10E040000D94B2F10D94B2F10D94B2F10D94B2F1C0
:10E050000D94B2F10D94B2F10D94B2F10D94B2F1B0
:10E060000D94B2F10D94B2F10D94B2F10D94B2F1A0
:10E070000D94B2F10D94B2F10D94B2F10D94B2F190
:10E080000D94B2F10D94B2F10D94B2F10D94B2F180
:10E090000D94B2F10D94B2F10D94B2F10D94B2F170
:10E0A0000D94B2F10D94B2F10D94B2F10D94B2F160
:10E0B0000D94B2F10D94B2F10D94B2F10D94B2F150
:10E0C0000D94B2F10D94B2F10D94B2F10D94B2F140
:10E0D0000D94B2F10D94B2F10D94B2F10D94B2F130
:10E0E0000D94B2F141546D656761323536300041AF
:10E0F000726475696E6F206578706C6F72657220DE
:10E1000073746B3530305632206279204D4C530099
:10E11000426F6F746C6F616465723E004875683F52
:10E1200000436F6D70696C6564206F6E203D200048
:10E130004350552054797065202020203D20005FF9
:10E140005F4156525F415243485F5F3D2000415658
:10E1500052204C696243205665723D20004743437C
:10E160002056657273696F6E203D20004350552024
:10E1700049442020202020203D20004C6F7720663D
:10E18000757365202020203D20004869676820665F
:10E190007573652020203D200045787420667573D6
:10E1A00065202020203D20004C6F636B2066757336
:10E1B000652020203D20004D617220203720323024
:10E1C000313300312E362E3800342E332E350056A2
:10E1D00023202020414444522020206F7020636F70
:10E1E00064652020202020696E73747275637469E1
:10E1F0006F6E2061646472202020496E74657272B3
:10E20000757074006E6F20766563746F7200726A49
:10E210006D702020006A6D70200057686174207056
:10E220006F72743A00506F7274206E6F7420737541
:10E2300070706F72746564004D7573742062652030
:10E2400061206C6574746572002000577269747483
:10E25000696E672045450052656164696E672045B7
:10E26000450045452065727220636E743D00504F35
:10E27000525400303D5A65726F2061646472003FF1
:10E280003D43505520737461747300403D454550C3
:10E29000524F4D207465737400423D426C696E6B41
:10E2A000204C454400453D44756D70204545505215
:10E2B0004F4D00463D44756D7020464C415348001B
:10E2C000483D48656C70004C3D4C69737420492F83
:10E2D0004F20506F72747300513D51756974005234
:10E2E0003D44756D702052414D00563D73686F7707
:10E2F00020696E7465727275707420566563746FF0
:10E30000727300593D506F727420626C696E6B00BD
:10E310002A0011241FBECFEFD1E2DEBFCDBF01E046
:10E320000CBF12E0A0E0B2E0EEE1FDEF03E00BBFB6
:10E3300002C007900D92A030B107D9F712E0A0E01B
:10E34000B2E001C01D92AE30B107E1F70F9460F367
:10E350000D948DFE01E20EBF0FEF0DBF11241FBE05
:10E360000D9460F30D9400F020E030E040ED57E0B4
:10E3700005C0FA013197F1F72F5F3F4F2817390792
:10E38000C0F308959C01260F311DC901A0E0B0E043
:10E390002F5F3F4FABBFFC018791882361F08093D3
:10E3A000C6008091C00086FFFCCF8091C0008064D1
:10E3B0008093C000EACF08958DE08093C6008091DD
:10E3C000C00086FFFCCF8091C00080648093C000B5
:10E3D0008AE08093C6008091C00086FFFCCF8091C8
:10E3E000C00080648093C00008950F94C2F10F9420
:10E3F000DCF10895FC019081992359F09093C600B7
:10E400008091C00086FFFCCF8091C0008064809323
:10E41000C0003196992379F70895282F982F929567
:10E420009F70892F805D8A3308F0895F8093C600D2
:10E430008091C00086FFFCCF8091C00080648093F3
:10E44000C000822F8F70982F905D9A3308F0995FEB
:10E450009093C6008091C00086FFFCCF8091C000E1
:10E4600080648093C00008959C01FB01853691056E
:10E470001CF46330710594F0C90164E670E00F94F8
:10E480002EFE605D7F4F6093C6008091C00086FFC6
:10E49000FCCF8091C00080648093C0002B30310598
:10E4A00014F43297B4F0C90164E670E00F942EFEC4
:10E4B0006AE070E00F942EFE605D7F4F6093C600AF
:10E4C0008091C00086FFFCCF8091C0008064809363
:10E4D000C000C9016AE070E00F942EFEC0968093E0
:10E4E000C6008091C00086FFFCCF8091C000806490
:10E4F0008093C00008951F93182F8EE692EE60E07F
:10E500000F94C2F11093C6008091C00086FFFCCF2B
:10E510008091C00080648093C0000F94DCF11F9153
:10E5200008952F923F924F925F926F927F928F92B7
:10E530009F92AF92BF92CF92DF92EF92FF920F9392
:10E540001F93DF93CF93CDB7DEB762970FB6F894E2
:10E55000DEBF0FBECDBF382E622ECA01DB015C01CB
:10E560006D01772420E2222E2E010894411C511CBB
:10E570008BC081E0A81680E0B80681E0C80680E084
:10E58000D80628F0C601AA27BB270F940DF2BB2797
:10E59000AD2D9C2D8B2D0F940DF28A2D0F940DF225
:10E5A0002092C6008091C00086FFFCCF8091C00001
:10E5B00080648093C0009DE29093C6008091C0006B
:10E5C00086FFFCCF8091C00080648093C0002092C1
:10E5D000C6008091C00086FFFCCF8091C00080649F
:10E5E0008093C00019828601750188249924A1E0D6
:10E5F0003A1651F03A1620F0B2E03B1661F409C029
:10E600000BBFF701779007C0C7010F9477FE782EF4
:10E6100002C0F7017080872D0F940DF22092C60082
:10E620008091C00086FFFCCF8091C0008064809301
:10E63000C000872D8052F401EF70F0708F3520F408
:10E64000E40DF51D708204C0E40DF51D8EE280839B
:10E650000894E11CF11C011D111D0894811C911CE2
:10E6600090E18916910409F0C2CF80E190E0A0E02A
:10E67000B0E0A80EB91ECA1EDB1E198AC2010F9493
:10E68000FAF10F94DCF16A94662009F072CF629679
:10E690000FB6F894DEBF0FBECDBFCF91DF911F91B3
:10E6A0000F91FF90EF90DF90CF90BF90AF909F9031
:10E6B0008F907F906F905F904F903F902F90089534
:10E6C0002F923F924F925F926F927F928F929F9282
:10E6D000AF92BF92CF92DF92EF92FF920F931F9370
:10E6E000DF93CF93CDB7DEB7CD53D1400FB6F894BB
:10E6F000DEBF0FBECDBF01E20EBF0FEF0DBF94B75F
:10E70000F894A89514BE80916000886180936000A1
:10E7100010926000789493FF05C0E0910002F091A0
:10E7200001021995279A2F9A8091C00082608093E8
:10E73000C00080E18093C40088E18093C1000000A4
:10E74000EE24FF24870144E0A42EB12CCC24DD2448
:10E7500024C0C5010197F1F70894E11CF11C011DCB
:10E76000111D21E2E2162EE4F20620E0020720E06D
:10E77000120718F031E0C32ED12CC801B70127ECE5
:10E780003BE140E050E00F9441FE611571058105C9
:10E79000910519F485B1805885B98091C00087FD35
:10E7A00003C0C114D104A9F2A6014F5F5F4FC25E3E
:10E7B000DE4F59834883CE51D140C25EDE4F8881FF
:10E7C0009981CE51D140019711F00D9410FEC05D9A
:10E7D000DE4F19821882C053D14060E0C15DDE4F28
:10E7E0001882CF52D14088249924C35DDE4F19820C
:10E7F0001882CD52D140C05EDE4F188219821A8233
:10E800001B82C052D140CE5CDE4F188219821A8220
:10E810001B82C253D140EE24FF2487010BBFF701B6
:10E8200007911691C45CDE4F19830883CC53D14005
:10E830000D940BFEC25EDE4F28813981CE51D1404E
:10E840002130310509F52091C600C25EDE4F1982E4
:10E850001882CE51D14022C02F5F3F4F4F4F5F4FA4
:10E86000213082E138078AE7480780E0580780F0C6
:10E87000C45CDE4FE881F981CC53D140EF5FFF4F9C
:10E8800019F0EE27FF27099420E030E040E050E047
:10E890008091C00087FFE0CF2091C600C35DDE4FAE
:10E8A00048815981CD52D1404F5F5F4FC35DDE4FEC
:10E8B00059834883CD52D140213209F063C64A3092
:10E8C000510508F05FC60894811C911C53E0851621
:10E8D000910409F059C600E010E018C081E280936D
:10E8E000C6008091C00086FFFCCF8091C00080648C
:10E8F0008093C0002F5F3F4F2931310579F70F9486
:10E90000DCF10F5F1F4F0530110519F020E030E0FA
:10E91000E5CF10920A0210920B0210920C02109294
:10E920000D02109206021092070210920802109235
:10E930000902109202021092030210920402109235
:10E9400005028FEE90EE60E00F94F5F180E191EE1C
:10E9500060E00F94C2F18091C00087FFFCCF9091DE
:10E96000C600903608F09F759032B8F09093C600BC
:10E970008091C00086FFFCCF8091C00080648093AE
:10E98000C000A0E2A093C6008091C00086FFFCCF2B
:10E990008091C00080648093C000983409F4D7C18E
:10E9A0009934B8F4923409F459C1933458F490333B
:10E9B00019F1903308F4E3C59F33A1F1903409F0C5
:10E9C000DEC5BDC0953409F470C1963409F0D7C5D1
:10E9D00098C1923509F42BC2933538F49C3409F46C
:10E9E000F5C1913509F0CBC518C2963509F445C279
:10E9F000993509F0C4C567C483E792EE62E00F94CD
:10EA0000F5F110920602109207021092080210927D
:10EA1000090210920A0210920B0210920C0210923C
:10EA20000D0213C18FE792EE62E00F94F5F18FEEC5
:10EA300090EE60E00F94F5F181E291EE60E00F94CA
:10EA4000C2F187EB91EE60E00F94F5F180E391EE77
:10EA500060E00F94C2F184EE90EE60E00F94F5F167
:10EA60008FE391EE60E00F94C2F186E090E061E008
:10EA700070E00F9434F20F94DCF18DE591EE60E0DC
:10EA80000F94C2F189EC91EE60E00F94F5F18EE401
:10EA900091EE60E00F94C2F183EC91EE60E00F9490
:10EAA000F5F18CE691EE60E00F94C2F18EE10F94E7
:10EAB0000DF288E90F940DF281E00F940DF20F949E
:10EAC000DCF18BE791EE60E00F94C2F119E0E0E039
:10EAD000F0E010935700E4918E2F0F940DF20F94F5
:10EAE000DCF18AE891EE60E00F94C2F1E3E0F0E03F
:10EAF00010935700E4918E2F0F940DF20F94DCF1D8
:10EB000089E991EE60E00F94C2F1E2E0F0E0109349
:10EB10005700E4918E2F0F940DF20F94DCF188EAE8
:10EB200091EE60E00F94C2F1E1E0F0E01093570045
:10EB30001491812F0F940DF20F94DCF107CF8BE825
:10EB400092EE62E00F94F5F18BE492EE60E00F94A8
:10EB5000F5F10F94DCF100E010E019C0C8016F2D51
:10EB60000F947FFEFF2031F489E492EE60E00F9471
:10EB7000C2F10BC0F092C6008091C00086FFFCCFAE
:10EB80008091C00080648093C0000F5F1F4FC80158
:10EB900081519F41A0E0B0E0ABBFFC01F790BAE229
:10EBA000FB1621F0E2E000301E07C1F60F94DCF105
:10EBB0000F94DCF187E592EE60E00F94F5F10F948D
:10EBC000DCF1CC24DD2400E010E01EC0C8010F946D
:10EBD00077FEF82E882331F489E492EE60E00F94FA
:10EBE000C2F10BC08093C6008091C00086FFFCCFAD
:10EBF0008091C00080648093C000FE1419F00894D6
:10EC0000C11CD11C0F5F1F4FC80181519F41A0E063
:10EC1000B0E0ABBFFC01E790FAE2EF1621F022E092
:10EC20000030120799F60F94DCF10F94DCF182E6C4
:10EC300092EE60E00F94C2F1C60161E070E00F94C3
:10EC400034F20F94DCF10F94DCF110920202109276
:10EC50000302109204021092050278CE89E992EE26
:10EC600062E00F94F5F1279A2F9A16C02F9880E052
:10EC700090E0E0EDF7E03197F1F7019684369105E9
:10EC8000C1F72F9A80E090E0E0EDF7E03197F1F7DF
:10EC9000019684369105C1F78091C00087FFE6CFC9
:10ECA0008091C00087FFFCCF64C485EA92EE62E0E9
:10ECB0000F94F5F140910202509103026091040219
:10ECC0007091050281E020E10F9491F2809102029F
:10ECD00090910302A0910402B091050280509F4FD1
:10ECE000AF4FBF4F8093020290930302A0930402A0
:10ECF000B093050280509041A040B04008F426CE69
:10ED0000A4CF83EB92EE62E00F94F5F140910602FE
:10ED100050910702609108027091090280E020E1A1
:10ED20000F9491F28091060290910702A09108023F
:10ED3000B091090280509F4FAF4FBF4F80930602A2
:10ED400090930702A0930802B0930902FFCD80ECD4
:10ED500092EE62E00F94F5F183E792EE60E00F949B
:10ED6000F5F18FE792EE60E00F94F5F18BE892EE0B
:10ED700060E00F94F5F189E992EE60E00F94F5F10F
:10ED800085EA92EE60E00F94F5F183EB92EE60E09D
:10ED90000F94F5F180EC92EE60E00F94F5F187ECC2
:10EDA00092EE60E00F94F5F188ED92EE60E00F9442
:10EDB000F5F18FED92EE60E00F94F5F18AEE92EEB0
:10EDC00060E00F94F5F183E093EEBDCD87EC92EE19
:10EDD00062E00F94F5F181E40F947BF282E40F94EA
:10EDE0007BF283E40F947BF284E40F947BF285E45E
:10EDF0000F947BF286E40F947BF287E40F947BF20E
:10EE000088E40F947BF28AE40F947BF28BE40F94F6
:10EE10007BF28CE40F947BF299CD88ED92EE62E068
:10EE20000F94F5F1772473948824992409C48FED05
:10EE300092EE62E00F94F5F140910A0250910B02BC
:10EE400060910C0270910D0282E020E10F9491F22A
:10EE500080910A0290910B02A0910C02B0910D02D8
:10EE600080509F4FAF4FBF4F80930A0290930B0289
:10EE7000A0930C02B0930D0269CD8AEE92EE62E08F
:10EE80000F94F5F184EE90EE60E00F94F5F18FECC5
:10EE900091EE60E00F94F5F1662477244301CC5D98
:10EEA000DE4F19821882C452D140D401C301B695F5
:10EEB000A79597958795CA5DDE4F88839983AA8326
:10EEC000BB83C652D140CC5DDE4FA881B981C4520C
:10EED000D1401196CC5DDE4FB983A883C452D14096
:10EEE000CD0162E070E00F9434F2B0E2B093C6005E
:10EEF0008091C00086FFFCCF8091C0008064809329
:10EF0000C000EDE2E093C6008091C00086FFFCCF18
:10EF10008091C00080648093C000F0E2F093C6004E
:10EF20008091C00086FFFCCF8091C00080648093F8
:10EF3000C000CA5DDE4FE880F9800A811B81C6529D
:10EF4000D140BB27A12F902F8F2D0F940DF2CA5DBA
:10EF5000DE4F8881C652D1400F940DF2B0E2FB2EF5
:10EF6000F092C6008091C00086FFFCCF8091C00067
:10EF700080648093C0000DE30093C6008091C000C0
:10EF800086FFFCCF8091C00080648093C00010E2B7
:10EF90001093C6008091C00086FFFCCF8091C00016
:10EFA00080648093C0008BBEF3012791C65DDE4F65
:10EFB0002883CA52D140A22EBB24CC24DD2408943D
:10EFC000611C711C811C911C8BBEF3018791282E42
:10EFD0003324442455240894611C711C811C911C09
:10EFE0008BBEF3013791C55DDE4F3883CB52D140E4
:10EFF0000894611C711C811C911C8BBEF30147910C
:10F00000C45DDE4F4883CC52D140ADEFEA2EAFEF66
:10F01000FA2EAFEF0A2FAFEF1A2F6E0C7F1C801E57
:10F02000911E142D032DF22CEE24EA0CFB1C0C1D5A
:10F030001D1D0F940DF220E22093C6008091C000A8
:10F0400086FFFCCF8091C00080648093C000C65DC5
:10F05000DE4F8881CA52D1400F940DF230E23093D6
:10F06000C6008091C00086FFFCCF8091C000806404
:10F070008093C000C45DDE4F8881CC52D1400F9494
:10F080000DF240E24093C6008091C00086FFFCCFA5
:10F090008091C00080648093C000C55DDE4F888190
:10F0A000CB52D1400F940DF250E25093C6008091A4
:10F0B000C00086FFFCCF8091C00080648093C000B8
:10F0C0008FEFE8168FEFF80680E0080780E018075A
:10F0D00031F484E092EE60E00F94C2F1DFC0D80119
:10F0E000C7018070907CA070B0708050904CA040A0
:10F0F000B040D1F52FEF3FE340E050E0E222F322B1
:10F1000004231523CA5DDE4FA880B980CA80DB8046
:10F11000C652D140AE0CBF1CC01ED11EAA0CBB1CD7
:10F12000CC1CDD1C8EE092EE60E00F94C2F1BB2798
:10F13000A12F902F8F2D0F940DF28E2D0F940DF285
:10F1400030E23093C6008091C00086FFFCCF8091F2
:10F15000C00080648093C0004EE34093C60080915D
:10F16000C00086FFFCCF87C08EE09EEFA0E0B0E03D
:10F17000E822F9220A231B239CE0E91694E9F90608
:10F1800090E0090790E0190709F088C0C45DDE4FE0
:10F19000A881CC52D140EA2EFF2400E010E0102FCD
:10F1A0000F2DFE2CEE24C55DDE4FB881CB52D14031
:10F1B000EB0EF11C011D111DD601C501817090706F
:10F1C000A070B070DC0199278827E80EF91E0A1F8D
:10F1D0001B1F20EF30E040E050E0A222B322C42207
:10F1E000D52241E1AA0CBB1CCC1CDD1C4A95D1F7F1
:10F1F000EA0CFB1C0C1D1D1D81E090E0A0E0B0E0BE
:10F20000282239224A225B2235E1220C331C441C7D
:10F21000551C3A95D1F7E20CF31C041D151D57013E
:10F220006801AA0CBB1CCC1CDD1C85E192EE60E0E1
:10F230000F94C2F1C801AA27BB270F940DF2BB2778
:10F24000A12F902F8F2D0F940DF28E2D0F940DF274
:10F2500090E29093C6008091C00086FFFCCF809121
:10F26000C00080648093C000AEE3A093C60080918C
:10F27000C00086FFFCCF8091C00080648093C000F6
:10F28000C601AA27BB270F940DF2BB27AD2D9C2DDD
:10F290008B2D0F940DF28A2D0F940DF20F94DCF14B
:10F2A000CC5DDE4FE881F981C452D140F99709F471
:10F2B0004DCBF4E0EF2EF12C012D112D6E0C7F1CA7
:10F2C000801E911EF2CD83E093EE62E00F94F5F183
:10F2D0008AE192EE60E00F94C2F18091C00087FF56
:10F2E000FCCF1091C6001F751093C6008091C0001E
:10F2F00086FFFCCF8091C00080648093C0000F9493
:10F30000DCF1812F81548A3108F036C1163409F4BA
:10F3100095C0173490F4133409F44EC0143430F40B
:10F320001134F1F0123409F01DC130C0143409F465
:10F3300059C0153409F016C16BC01A3409F4C4C0A1
:10F340001B3438F4173409F48FC0183409F00AC19B
:10F35000A1C01B3409F4D2C01C3409F003C1E8C0B9
:10F360008FEF81B90DC082B1809582B980E090E0C5
:10F37000E0EDF7E03197F1F70196883C9105C1F790
:10F380008091C00087FFEFCF12B8EFC08FEF84B934
:10F390000DC085B1809585B980E090E0E0EDF7E0A3
:10F3A0003197F1F70196883C9105C1F78091C00033
:10F3B00087FFEFCF15B8D9C08FEF87B90DC088B1DF
:10F3C000809588B980E090E0E0EDF7E03197F1F7C3
:10F3D0000196883C9105C1F78091C00087FFEFCF6F
:10F3E00018B8C3C08FEF8AB90DC08BB180958BB9A7
:10F3F00080E090E0E0EDF7E03197F1F70196883C8E
:10F400009105C1F78091C00087FFEFCF1BB8ADC059
:10F410008FEF8DB90DC08EB180958EB980E090E0F0
:10F42000E0EDF7E03197F1F70196883C9105C1F7DF
:10F430008091C00087FFEFCF1EB897C08FEF80BBD1
:10F440000DC081B3809581BB80E090E0E0EDF7E0F6
:10F450003197F1F70196883C9105C1F78091C00082
:10F4600087FFEFCF11BA81C08FEF83BB0DC084B38C
:10F47000809584BB80E090E0E0EDF7E03197F1F714
:10F480000196883C9105C1F78091C00087FFEFCFBE
:10F4900014BA6BC08FEF809301010FC080910201FD
:10F4A00080958093020180E090E0E0EDF7E03197F5
:10F4B000F1F70196883C9105C1F78091C00087FF64
:10F4C000EDCF1092020151C08FEF809304010FC065
:10F4D0008091050180958093050180E090E0E0ED4A
:10F4E000F7E03197F1F70196883C9105C1F78091DB
:10F4F000C00087FFEDCF1092050137C08FEF8093DA
:10F5000007010FC08091080180958093080180E079
:10F5100090E0E0EDF7E03197F1F70196883C910536
:10F52000C1F78091C00087FFEDCF109208011DC088
:10F530008FEF80930A010FC080910B01809580931B
:10F540000B0180E090E0E0EDF7E03197F1F70196F4
:10F55000883C9105C1F78091C00087FFEDCF1092E4
:10F560000B0103C085E292EEEEC98091C00087FFD7
:10F57000FCCF8091C600EAC988E392EEE4C98CE131
:10F5800091EEE1C988249924933011F1943028F444
:10F59000913089F09230B8F408C0953061F195301F
:10F5A000F0F0963009F048C043C02B3109F042C951
:10F5B00091E06BE13FC96227C15DDE4F2883CF52E6
:10F5C000D14092E037C9B22FA0E0622793E032C960
:10F5D000822F90E0A82BB92B622794E02BC92E3004
:10F5E00009F039C3622795E0C05DDE4F19821882A9
:10F5F000C053D1401FC9E1E0F0E0EC0FFD1FC05D3A
:10F60000DE4F08811981C053D140E00FF11F2083E4
:10F610000F5F1F4FC05DDE4F19830883C053D14079
:10F6200062270A171B0709F005C9D80196E002C92D
:10F63000261709F010C303C0973009F0FBC87724E0
:10F640009981933109F412C19431C8F4963009F4C8
:10F65000D8C0973050F4923009F406C1933009F4C1
:10F660006DC0913009F059C253C0913109F477C08F
:10F67000923108F0BBC0903109F04FC2F5C098310B
:10F6800009F487C0993150F4953109F4EFC09531F0
:10F6900008F4C6C1963109F040C2C2C19A3109F4DA
:10F6A0006CC09A3108F491C09B3109F45BC09D3164
:10F6B00009F033C29D81903359F48F81882311F46E
:10F6C0009EE11CC0813011F091E018C098E916C08D
:10F6D000892F807591F0903539F4E0E0F0E089E011
:10F6E0008093570094910AC0983539F4E3E0F0E034
:10F6F00089E080935700949101C090E01A821B82A8
:10F700008D818C831D829E831F8227E030E009C299
:10F710001A8288E08B8381E48C8386E58D8382E581
:10F720008E8389E48F8383E5888780E589878FE5E9
:10F730008A8782E38B872BE030E0F3C18A818139AD
:10F7400041F0823941F0803911F48FE005C080E04A
:10F7500003C082E001C08AE01A828B8344C0772410
:10F76000739482C08D81882311F48EE12CC0813086
:10F7700011F081E028C088E926C01A82E1E0F0E0BB
:10F7800089E08093570084918B831C8224E030E0D1
:10F79000C8C18B81803589F48C81883039F4E2E0EE
:10F7A000F0E089E08093570084910DC0E0E0F0E044
:10F7B00089E080935700849106C0E3E0F0E089E09F
:10F7C0008093570084911A82DFCF8D81836C99E0FA
:10F7D000E1E0F0E0082E90935700E89507B600FCB2
:10F7E000FDCF1A821B8223E030E09BC180EC8A832C
:10F7F000CE5CDE4F188219821A821B82C253D1401E
:10F800008EC18A8190E0A0E0B0E0582F44273327D2
:10F8100022278B8190E0A0E0B0E0DC0199278827C7
:10F82000282B392B4A2B5B2B8D8190E0A0E0B0E098
:10F83000282B392B4A2B5B2B8C8190E0A0E0B0E089
:10F84000BA2FA92F982F8827282B392B4A2B5B2BCF
:10F85000220F331F441F551FC05EDE4F288339839C
:10F860004A835B83C052D1401A8259C13A81C95C34
:10F87000DE4F3883C753D140CA5CDE4F1882C6536F
:10F88000D1408B81C82EDD24CA5CDE4F488159816E
:10F89000C653D140C42AD52A933109F082C0CE5C28
:10F8A000DE4F88819981AA81BB81C253D1408050AB
:10F8B000904CA340B04030F583E0CE5CDE4FE88052
:10F8C000F9800A811B81C253D140F70100935B008C
:10F8D00080935700E89507B600FCFDCFCE5CDE4F65
:10F8E000088119812A813B81C253D14000501F4FAA
:10F8F0002F4F3F4FCE5CDE4F088319832A833B8313
:10F90000C253D140C05EDE4F488159816A817B81FC
:10F91000C052D140DE011B9631E08C9111962C91A2
:10F9200011971296C75CDE4F2883C953D140C85C3B
:10F93000DE4F1882C853D14090E0C85CDE4FE881AA
:10F94000F981C853D1408E2B9F2B0C01FA01609393
:10F950005B0030935700E89511244E5F5F4F6F4F67
:10F960007F4F0EEFE02E0FEFF02ECE0CDF1CC114F8
:10F97000D10499F685E0C05EDE4F088119812A81A5
:10F980003B81C052D140F80120935B008093570027
:10F99000E89507B600FCFDCF81E180935700E8951C
:10F9A00035C0C05EDE4F88819981AA81BB81C0527B
:10F9B000D140B695A795979587957C018601ABE0D8
:10F9C000AA2EB12CAC0EBD1E0BC0D5016D915D01F0
:10F9D000C7010F947FFE0894E11CF11C01501040F8
:10F9E0000115110591F7A60160E070E0440F551F65
:10F9F000661F771FC05EDE4FE880F9800A811B8199
:10FA0000C052D1404E0D5F1D601F711F1A82C05E33
:10FA1000DE4F488359836A837B83C052D1407FC0C5
:10FA2000FA80C55CDE4FF882CB53D140C65CDE4F16
:10FA30001882CA53D1408B81C82EDD24C65CDE4FAC
:10FA400008811981CA53D140C02AD12A1A828981DA
:10FA5000BE016D5F7F4F843121F59601C05EDE4FA0
:10FA6000E880F9800A811B81C052D1400BBFF701A9
:10FA700087919691DB018C9311969C936E5F7F4FDB
:10FA8000D801C7010296A11DB11DC05EDE4F88835B
:10FA90009983AA83BB83C052D14022503040F1F6F3
:10FAA00036C0C05EDE4F288139814A815B81C052F9
:10FAB000D1400894C108D108760100E010E0089414
:10FAC000C11CD11C0894E11CF11C011D111DE20E8A
:10FAD000F31E041F151F21BDBB27A52F942F832FB5
:10FAE00082BD2F5F3F4F4F4F5F4FF89A80B5DB01CC
:10FAF0008D93BD012E153F054007510761F7C05E8C
:10FB0000DE4F288339834A835B83C052D1409601FC
:10FB10002D5F3F4FFB01108204C080EC8A8322E0FE
:10FB200030E08BE18093C6008091C00086FFFCCF5F
:10FB30008091C00080648093C000C15DDE4FF88179
:10FB4000CF52D140F093C6008091C00086FFFCCF19
:10FB50008091C00080648093C000432F3093C60022
:10FB60008091C00086FFFCCF8091C00080648093AC
:10FB7000C000922F2093C6008091C00086FFFCCF6A
:10FB80008091C00080648093C0008EE08093C600A6
:10FB90008091C00086FFFCCF8091C000806480937C
:10FBA000C00065E1C15DDE4FE880CF52D1406E25D7
:10FBB00069276427FE01319610C090819093C6009A
:10FBC0008091C00086FFFCCF31968091C000806498
:10FBD0008093C0006927215030402115310569F715
:10FBE0006093C6008091C00086FFFCCF8091C0006A
:10FBF00080648093C00085B1805885B9772081F4F6
:10FC0000C15DDE4F0881CF52D1400F5FC15DDE4F35
:10FC10000883CF52D14090E0A0E0B0E00D941AF4F8
:10FC200027982F9880E090E020ED37E0F901319798
:10FC3000F1F7019684369105C9F700008091C00064
:10FC40008D7F8093C00081E180935700E895EE2777
:10FC5000FF270994FFCF90E00D941AF497FB092E2B
:10FC600007260AD077FD04D02ED006D000201AF443
:10FC7000709561957F4F0895F6F7909581959F4F08
:10FC80000895A1E21A2EAA1BBB1BFD010DC0AA1FDD
:10FC9000BB1FEE1FFF1FA217B307E407F50720F0F5
:10FCA000A21BB30BE40BF50B661F771F881F991F70
:10FCB0001A9469F760957095809590959B01AC01B9
:10FCC000BD01CF010895AA1BBB1B51E107C0AA1FAC
:10FCD000BB1FA617B70710F0A61BB70B881F991FED
:10FCE0005A95A9F780959095BC01CD010895F99991
:10FCF000FECF92BD81BDF89A992780B50895262F31
:10FD0000F999FECF1FBA92BD81BD20BD0FB6F89400
:0EFD1000FA9AF99A0FBE01960895F894FFCF63
:00000001FF
