:020000040000FA
:100000000C945C010C948D010C948D010C948D0169
:100010000C948D010C948D010C948D010C948D0128
:100020000C948D010C944E100C944E100C944E10A8
:100030000C948D010C948D010C948D010C948D0108
:100040000C948D010C948D010C948D010C948D01F8
:100050000C948D010C948D010C948D010C94041062
:100060000C94EE110C94CE0F0C94A40F0C948D01F3
:100070000C948D010C948D010C948D010C948D01C8
:100080000C948D010C948D010C948D010C948D01B8
:100090000C948D010C948D010C948D010C94CA105C
:1000A0000C948D010C948D010C948D010C948D0198
:1000B0000C948D010C948D010C948D010C948D0188
:1000C0000C948D010C948D010C948D010C946E0F89
:1000D0000C94440F0C948D010C948D010C948D01A3
:1000E0000C948D010C9415040C94E8030C944604B4
:1000F0000C9486040C9432070C94B1030C94DC0627
:100100000C94A3030C94B5030C9400120C94FA0401
:100110000C94C8030C9462070C94CC030C94E40375
:100120000C944A020C949B020C94D6030C94780213
:100130000C94F9040C94D0030C9461070C94E10422
:100140000C94BB080C9456050C94B3160C944B02FB
:100150000C94EB060C94A9030C94DE030C94B803E6
:100160000C94FE060C94E3030C946E050C94AD0302
:100170000C94DA030C9405070C94BE030C9438031A
:100180000C94C2030C94EB020C9487020C94490269
:100190000C94A90200002100240027002A002D0051
:1001A0003000330001010000040107010A010000D2
:1001B0000A0B02090C0D0E080703040100000000E1
:1001C000000000000000000000000000000000002F
:1001D00000000000000000000000121110000000EC
:1001E000000000000000000000000000000000000F
:1001F00000000000000020002300260029002C0041
:100200002F00320000010000030106010901000077
:100210002200250028002B002E00310034000201AE
:100220000000050108010B01050505050705080883
:100230000808020202020A0A080804040404010170
:100240000101010101010303030303030303040785
:1002500007070C0C0C0C0C0C0C0C0202020206061C
:100260000606060606060B0B0B0B0B0B0B0B01020F
:1002700010202008081020401020408002010201B8
:100280000804020101020408102040808040201070
:1002900008040201800402018040201008040201C9
:1002A0000804020101020408102040800102040831
:1002B000102040800012B31611241FBECFEFD1E2F0
:1002C000DEBFCDBF00E00CBF25E0AEE6B2E001C06E
:1002D0001D92A537B207E1F712E0A0E0B2E0EEED23
:1002E000F3E300E00BBF02C007900D92AE36B107FA
:1002F000D9F711E0CBE5D1E000E006C02197010974
:10030000802FFE010E94AB17CA35D10780E0080795
:10031000A9F70E9483130C94DD190C940000FC01D2
:10032000A089B18982E08C93A485B58586E08C9301
:10033000A685B78592E89C93108EA489B5898C9385
:10034000A289B3898C9180618C93A289B3898C91A5
:1003500088608C93A289B3898C9180688C93028881
:10036000F389E02D80818F7D8083089596E0899FB9
:10037000D0011124AD51BB4F90967C936E935F9743
:1003800091E091969C939197E0915005F0915105E1
:1003900090914F05992339F0309751F0811108C0A1
:1003A0008091FF041994309719F05C968C91FACFE4
:1003B0000895CF92DF92EF92FF920F931F9396E0F2
:1003C000899FF0011124ED51FB4F11A2278D30A11F
:1003D0002130310551F178F02230310509F451C056
:1003E0002330310509F452C01F910F91FF90EF9017
:1003F000DF90CF9008956623B9F361E070E00E942A
:10040000B6012FB7F89480912B0390912C03A09103
:100410002D03B0912E032FBF80933B0590933C0595
:10042000A0933D05B0933E05DFCF9FB7F894C090F1
:100430002B03D0902C03E0902D03F0902E039FBF50
:1004400000913B0510913C0520913D0530913E0502
:10045000C01AD10AE20AF30A00914D0510914E0527
:1004600030E020E00C151D052E053F0550F462E03C
:1004700070E01F910F91FF90EF90DF90CF900C9460
:10048000B6016111B1CF63E070E0F3CF70E060E0DE
:10049000F0CF08950895AF92BF92CF92DF92EF927E
:1004A000FF920F931F93CF93DF936C017B018B011E
:1004B000040F151FEB015E01AE18BF08C017D1076E
:1004C00059F06991D601ED91FC910190F081E02DF8
:1004D000C6011995892B79F7C501DF91CF911F913D
:1004E0000F91FF90EF90DF90CF90BF90AF90089565
:1004F000FC01538D448D252F30E0842F90E0821B2A
:10050000930B541710F0CF96089501970895FC01AE
:10051000918D828D981761F0A28DAE0FBF2FB11D06
:100520005D968C91928D9F5F9F73928F90E008955E
:100530008FEF9FEF0895FC01918D828D981731F018
:10054000828DE80FF11D858D90E008958FEF9FEF6C
:100550000895FC01918D228D892F90E0805C9F4F42
:10056000821B91098F73992708958FE793E00E946A
:10057000A90221E0892B09F420E0822F08958CE163
:1005800094E00E94A90221E0892B09F420E0822F47
:100590000895FC01A48DA80FB92FB11DA35ABF4F18
:1005A0002C91848D90E001968F739927848FA68972
:1005B000B7892C93A089B1898C91837080648C93C6
:1005C000938D848D981306C00288F389E02D808175
:1005D0008F7D80830895EF92FF920F931F93CF93A7
:1005E000DF93EC0181E0888F9B8D8C8D98131AC06E
:1005F000E889F989808185FF15C09FB7F894EE8955
:10060000FF896083E889F9898081837080648083B1
:100610009FBF81E090E0DF91CF911F910F91FF90FC
:10062000EF900895F62E0B8D10E00F5F1F4F0F73A4
:100630001127E02E8C8D8E110CC00FB607FCFACF5F
:10064000E889F989808185FFF5CFCE010E94C90232
:10065000F1CFEB8DEC0FFD2FF11DE35AFF4FF08230
:100660009FB7F8940B8FEA89FB8980818062CFCF96
:10067000CF93DF93EC01888D8823B9F0AA89BB89D9
:10068000E889F9898C9185FD03C0808186FD0DC0C4
:100690000FB607FCF7CF8C9185FFF2CF808185FFE5
:1006A000EDCFCE010E94C902E9CFDF91CF9108952D
:1006B00080E090E0892B29F00E94BF0281110E9406
:1006C000000080E090E0892B49F080E090E0892BE9
:1006D00029F00E94000081110E94000080E090E05B
:1006E000892B29F00E94B50281110E94000080E050
:1006F00090E0892B49F080E090E0892B29F00E945E
:10070000000081110C94000008958150823108F09E
:100710005AC0E82FF0E08827EF56FC4F8F4F0C941B
:10072000AB17B103B503A303A903AD03E303B803F8
:10073000BE03C203C803CC03D003D603DA03E3032A
:10074000DE03E403E803809180008F7780938000CC
:100750000895809180008F7DF9CF80918000877F00
:10076000F5CF84B58F7784BD089584B58F7DFBCF99
:100770008091B0008F778093B00008958091B00091
:100780008F7DF9CF809190008F77809390000895AE
:10079000809190008F7DF9CF80919000877FF5CF79
:1007A0008091A0008F778093A00008958091A00091
:1007B0008F7DF9CF8091A000877FF5CF80912001B8
:1007C0008F77809320010895809120018F7DF9CF4C
:1007D00080912001877FF5CFCF93DF93282F30E0E2
:1007E000F901E255FE4F8491F901E259FD4FD49190
:1007F000F901E85DFD4FC491CC23A1F081110E9465
:100800008503EC2FF0E0EE0FFF1FEC50FE4FA5919B
:10081000B491EC91ED2381E090E009F480E0DF9168
:10082000CF91089580E090E0FACF862F0C94EC03EE
:100830001F93CF93DF93282F30E0F901E255FE4F4D
:100840008491F901E259FD4FD491F901E85DFD4F22
:10085000C491CC23A9F0162F81110E948503EC2F9F
:10086000F0E0EE0FFF1FE25FFD4FA591B4918FB74F
:10087000F894EC91111108C0D095DE23DC938FBF62
:10088000DF91CF911F910895DE2BF8CF862F642F33
:100890000C941804CF93DF9390E0FC01E259FD4FD4
:1008A0002491885D9D4FFC0184918823C9F090E0DC
:1008B000880F991FFC01EC56FE4FA591B491FC01E5
:1008C000E25FFD4FC591D49161110DC09FB7F894BF
:1008D0008C91209582238C938881282328839FBF25
:1008E000DF91CF910895623051F49FB7F8943C9115
:1008F000822F809583238C93E8812E2BEFCF8FB7A7
:10090000F894EC912E2B2C938FBFEACF862F642F77
:100910000C944A043FB7F8948091190390911A03FC
:10092000A0911B03B0911C0326B5A89B05C02F3FC7
:1009300019F00196A11DB11D3FBFBA2FA92F982F05
:100940008827BC01CD01620F711D811D911D42E000
:10095000660F771F881F991F4A95D1F708958F92C8
:100960009F92AF92BF92CF92DF92EF92FF924B0194
:100970005C010E948A046B017C010E948A046C194C
:100980007D098E099F09683E734081059105A8F392
:1009900021E0821A9108A108B10888EEC80E83E010
:1009A000D81EE11CF11C81149104A104B10429F7A3
:1009B000FF90EF90DF90CF90BF90AF909F908F907F
:1009C000089520911603309117032817390771F401
:1009D0009091150380911403981741F0E09115034D
:1009E000F0E0EC52FD4F808190E008958FEF9FEF93
:1009F00008950895EF92FF920F931F93CF93DF9383
:100A0000DC015C96ED90FC905D97E114F10479F4C3
:100A100081E090E013969C938E93129790E080E093
:100A2000DF91CF911F910F91FF90EF900895519614
:100A3000ED91FC91529750968C915097982F9095EC
:100A40000FB75E962C915E97122F127021FD609564
:100A5000F8942081112319F1282B2083E701219795
:100A6000F1F728E0462F50E0308160FF1AC0382BA4
:100A70003083E7012197F1F7BA0175956795215009
:100A800089F7112381F08081892380830FBF5C96D1
:100A90008D919C910197F1F781E090E0C1CF2923DE
:100AA000DCCF3923E5CF9081892BEFCF209116033E
:100AB000309117032817390771F48091140320919E
:100AC000150390E0805C9F4F821B910960E470E009
:100AD0000E947517089590E080E008952091160314
:100AE0003091170328173907B9F4909115038091B5
:100AF0001403981789F0E0911503F0E0EC52FD4FD4
:100B000080812091150330E02F5F3F4F2F733327F3
:100B10002093150390E008958FEF9FEF08952091A3
:100B2000B102260F3327331F21323105ECF4209117
:100B30005503FC0190E080E0243069F082E00895E4
:100B4000A091B1022191AC014F565D4FA40FB52F7A
:100B5000B11D2C930196861798F38091B102680F0E
:100B60006093B10280E0089581E0089510925503EA
:100B700081E08093540310922F0361E084E10E948E
:100B8000180461E085E10E941804E9EBF0E080813F
:100B90008E7F808380818D7F808388E48093B800FE
:100BA00085E48093BC000895CF93DF9391E0909308
:100BB00090028823B9F0C091B800D091BA0080911A
:100BC000BC008A7B8093BC0060E084E10E94180432
:100BD00060E085E10E9418040E94B605D093BA0037
:100BE000C093B800DF91CF910895CF92DF92EF923A
:100BF000FF920F931F93CF93DF93D0917E0381E0F9
:100C0000D13208F09CC0C0917D030E948A046B0120
:100C10007C018091550381116CC082E08093550363
:100C200081E0809354038FEF80935303109252031B
:100C3000D0935103ADE5B3E0E1E3F3E080E0D813F6
:100C40008DC01092300380913003CC0FC82BC0931D
:100C5000300380912F03813009F084C010922F035C
:100C60000E948A046B017C01809130038093BB0059
:100C70008091570390915803A0915903B0915A0362
:100C8000892B8A2B8B2BA1F00E948A040091570399
:100C9000109158032091590330915A036C197D0922
:100CA0008E099F09061717072807390708F442C05D
:100CB0008091BC0083FDD8CF85EC8093BC000E945E
:100CC0008A046B017C0180915503823009F44CC089
:100CD000809153038F3F09F469C0809153038032A0
:100CE00009F466C080915303803309F463C084E043
:100CF00026C08091570390915803A0915903B09159
:100D00005A03892B8A2B8B2B09F483CF0E948A04E8
:100D100000915703109158032091590330915A03C1
:100D20006C197D098E099F090617170728073907CF
:100D300008F06FCF809156030E94D40585E0109291
:100D40005C0310927E0310925B03DF91CF911F91A1
:100D50000F91FF90EF90DF90CF9008959D91919328
:100D60008F5F6DCF85EEA9CF809157039091580387
:100D7000A0915903B0915A03892B8A2B8B2B09F42C
:100D8000A2CF0E948A04009157031091580320912A
:100D9000590330915A036C197D098E099F09061772
:100DA00017072807390708F08ECFC4CF80E0C7CFD8
:100DB00082E0C5CF83E0C3CFE0912203809121037D
:100DC000E81730F4F0E0E059FD4F808190E008959D
:100DD0008FEF9FEF089590912203809121032FEFD1
:100DE0003FEF981748F4E92FF0E0E059FD4F2081DC
:100DF00030E09F5F90932203C90108958091210301
:100E000090912203891B990B0895CF92DF92EF9264
:100E1000FF920F931F93CF93DF937C01CB018A0145
:100E200020915B03222389F0EB016B01C40ED51ED8
:100E3000CC15DD0569F06991D701ED91FC91019028
:100E4000F081E02DC7011995F3CF642F0E948F0523
:100E5000C801DF91CF911F910F91FF90EF90DF902C
:100E6000CF900895CF93DF931F92CDB7DEB76983FC
:100E700020915B032223F9F020917E03203258F069
:100E800021E030E0FC013383228390E080E00F908A
:100E9000DF91CF91089580915C03E82FF0E0E35A51
:100EA000FC4F998190838F5F80935C0380937E03D6
:100EB00081E090E0ECCF61E0CE0101960E948F05C9
:100EC000F7CF089590E080E00895CF93DF93EC0191
:100ED00060E08E810E94180461E08E810E941804F7
:100EE00060E08E810E9418048BE891E00197F1F791
:100EF000DF91CF910895CF92DF92EF92FF920F93FF
:100F00001F93CF93DF936C017C0187E0E80EF11C07
:100F1000D0E0C0E0062F10E0B8010C2E02C075959D
:100F200067950A94E2F76170F70181917F010E9451
:100F300018042196C430D10579F7C601DF91CF910D
:100F40001F910F91FF90EF90DF90CF900C94650769
:100F5000CF92DF92EF92FF920F931F93CF93DF9385
:100F6000EC01F62E642F8C810E9418048D818F3F36
:100F700019F060E00E9418040F2D10E08F8584FFA7
:100F800025C06E0187E0C80ED11CF12CE12CB80100
:100F90000E2C02C0759567950A94E2F76170F60110
:100FA00081916F010E941804FFEFEF1AFF0A88E099
:100FB000E816F10461F7CE01DF91CF911F910F91F7
:100FC000FF90EF90DF90CF900C946507B80184E01C
:100FD000759567958A95E1F7CE010E947B076F2D85
:100FE000CE01DF91CF911F910F91FF90EF90DF9095
:100FF000CF900C947B0740E0682F8BEC94E00C942E
:10100000A80781E00E94FB078BE39FE10197F1F7BE
:101010000895CF93DF93823029F49091DA04986099
:101020009093DA048093DE041092DF0480E48093CE
:10103000E00480E18093E10480E58093E20461E0D4
:101040008091CF040E944A048091D0048F3F19F010
:1010500061E00E944A0461E08091D1040E944A0448
:10106000CBECD4E09E012B5C34408091DA0484FD0B
:101070000BC084E090E021962817390744F461E022
:101080008E810E944A04EECF88E090E0F4CF8BE39B
:101090009DE00197F1F760E08091CF040E94180471
:1010A00060E08091D1040E9418048091D0048F3FA9
:1010B00019F060E00E9418048091DA0484FD34C0C5
:1010C00063E08BEC94E00E947B07CBE4D6E4CE0196
:1010D0000197F1F763E08BEC94E00E947B07219786
:1010E000F1F763E08BEC94E00E947B0783E592E0EC
:1010F0000197F1F762E08BEC94E00E947B0780910E
:10110000DA0480620E94FB0784E08093DB048CE0B9
:101110000E94FB070E94010882E08093DC0486E0C5
:10112000DF91CF910C94FB0780620E94FB078BE458
:1011300096E40197F1F78091DA0480620E94FB0740
:1011400083E592E00197F1F78091DA0480620E94D2
:10115000FB07D5CF843008F083E09091DE04891737
:1011600010F08FEF890FE82FF0E0E553FB4F8489F3
:1011700080680C94FB0741E00E94A80781E090E0A2
:1011800008958F929F92AF92BF920F931F93CF9328
:10119000DF93CDB7DEB7A1970FB6F894DEBF0FBED1
:1011A000CDBF19A2423008F44AE08E010F5D1F4FF7
:1011B000842E912CB12CA12CA50194010E94891799
:1011C000E62FB901CA01EA3044F5E05DD801EE939B
:1011D0008D01232B242B252B79F790E080E01097AD
:1011E00069F0FD0101900020E9F73197AF014A1B3A
:1011F0005B0BBD018BEC94E00E944B02A1960FB6F5
:10120000F894DEBF0FBECDBFDF91CF911F910F913C
:10121000BF90AF909F908F900895E95CD7CFCF9209
:10122000DF92EF92FF926C01092E000CEE08FF088E
:1012300097FF16C041E06DE28BEC94E00E94A80796
:1012400066277727CB016C197D098E099F094AE033
:101250000E94C1080196FF90EF90DF90CF90089513
:101260004AE0C701B601FF90EF90DF90CF900C9459
:10127000C10880E00E94AA0880912703082E000C74
:10128000990B0E940F0941E0609100028BEC94E001
:101290000E94A80742E050E06BE672E08BEC94E01D
:1012A0000E944B0281E00E94AA0880916F02082EE2
:1012B000000C990B0C940F090F931F93CF93DF939E
:1012C000EC0188819981009759F02A813B8126178A
:1012D000370730F081E0DF91CF911F910F91089592
:1012E0008B016F5F7F4F0E94EC18009759F0998334
:1012F00088831B830A832C813D81232B59F7FC01B2
:101300001082E8CF80E0E7CFCF93DF93EC018881B4
:101310009981009711F00E946318198218821D822A
:101320001C821B821A82DF91CF910895EF92FF9267
:101330000F931F93CF93DF93EC01FB01E080F180CB
:10134000E114F10411F10481158101151105A9F0D1
:101350008C819D81080F191FB801CE010E945C0984
:10136000882399F0288139818C819D81B701820F72
:10137000931F0E94D6191D830C83CE01DF91CF915C
:101380001F910F91FF90EF900895CE010E94840964
:10139000F4CFEF92FF920F931F93CF93DF93EC0163
:1013A0007B018A01BA010E945C0981110BC0CE0148
:1013B0000E948409CE01DF91CF911F910F91FF9080
:1013C000EF9008951D830C83B701888199810E9455
:1013D000D619F0CFFB0101900020E9F73197AF015A
:1013E000461B570B0C94C909AF92BF92CF92DF9264
:1013F000EF92FF920F931F93CF93DF93EC017B014A
:101400005A01CC24C394D12C452B29F4D12CC12CC6
:10141000AA24A394B12C198218821B821A821D82DD
:101420001C8250E040E06DE672E0CE010E94C909E6
:10143000D70114960D911C91C016D106E8F4A016A0
:10144000B10608F48501D701ED91FC911197E00FE9
:10145000F11FB08010826D917C916C0D7D1DCE01CD
:1014600061157105A9F00E94EA09F7018081918157
:10147000080F191FD801BC92CE01DF91CF911F91A7
:101480000F91FF90EF90DF90CF90BF90AF900895B5
:101490000E948409EACF0F931F93CF93DF93CDB7B8
:1014A000DEB762970FB6F894DEBF0FBECDBF8C01DA
:1014B000CB01F801118210821382128215821482EC
:1014C0004AE0BE016F5F7F4F0E94FA16BE016F5F58
:1014D0007F4FC8010E94EA0962960FB6F894DEBFFA
:1014E0000FBECDBFDF91CF911F910F9108950F9344
:1014F0001F93CF93DF93CDB7DEB7A2970FB6F894C3
:10150000DEBF0FBECDBF8C01CB01BA01F801118245
:10151000108213821282158214822AE0AE014F5F7C
:101520005F4F0E940517BE016F5F7F4FC8010E9489
:10153000EA09A2960FB6F894DEBF0FBECDBFDF91C9
:10154000CF911F910F910895CF93DF93EC01FB0191
:101550008617970749F0608171816115710541F027
:10156000448155810E94C909CE01DF91CF91089530
:101570000E948409F9CFFC01118210821382128229
:10158000158214820C94A40AFC0180819181009739
:1015900011F00C946318089585ED8093BC00809140
:1015A000570390915803A0915903B0915A0307969D
:1015B000A11DB11D23E0B695A795979587952A950E
:1015C000D1F72091BC0024FD03C01092550308956B
:1015D00040915703509158036091590370915A03F9
:1015E000452B462B472B69F30097A105B10541F028
:1015F00025E32A95F1F700000197A109B109E1CF90
:10160000809156030C94D405CF92DF92EF92FF9213
:101610000F931F93CF93DF93CDB7DEB768970FB6C5
:10162000F894DEBF0FBECDBF0E94010880912A034F
:101630008A3209F0DEC01092270310926F021092D6
:10164000290380912A03843339F480916F02811138
:1016500036C184E080936F0280912A03873339F486
:1016600080916F02811186C187E080936F02809123
:101670002A03803309F05DC080916F02882309F44A
:1016800063C0C82E082E000CDD08EE08FF089AE0A3
:10169000899F802D112480936F02B701A601CE018E
:1016A00001960E94770A0D811E81CE0101960E944B
:1016B000C40A012BF1F1B701A601CE0101960E94E7
:1016C000770A70E060E0CE0143960E944B0A4D819C
:1016D0005E81BE016F5F7F4FCE0107960E94F409C5
:1016E000BE01695F7F4FCE010D960E94BB0ABE010D
:1016F0006D5E7F4FCE010D960E949609BC01CE0112
:1017000001960E94A40ACE010D960E94C40ACE0141
:1017100007960E94C40ACE0143960E94C40A89819A
:101720009A810E94D31660936F02CE0101960E94A7
:10173000C40A80912A03823339F480916F028111A7
:1017400074C182E080936F0280912A03853339F45B
:1017500080916F028111C4C185E080936F028091F6
:101760002A03883339F480916F02811114C288E012
:1017700080936F0280912A03833209F067C281E06F
:101780008093290380912A03863339F480916F0274
:101790008111C2C286E080936F0280912A0389334F
:1017A00039F480916F02811112C389E080936F0236
:1017B00080912A039FEB980F923060F490916F0212
:1017C0009093270310926F02813409F05BC38BE280
:1017D0008093000268960FB6F894DEBF0FBECDBFAF
:1017E000DF91CF911F910F91FF90EF90DF90CF90FD
:1017F0000895813309F025CF80916F02811104C0D3
:1018000081E080936F021DCFC82E082E000CDD08EA
:10181000EE08FF089AE0899F802D11248F5F809346
:101820006F02B701A601CE0101960E94770A0D81D1
:101830001E81CE0101960E94C40A012B09F401CF3A
:10184000B701A601CE0101960E94770A61E070E01F
:10185000CE0143960E944B0A4D815E81BE016F5FAF
:101860007F4FCE0107960E94F409BE01695F7F4F4A
:10187000CE010D960E94BB0ABE016D5E7F4FCE0168
:101880000D960E949609BC01CE0101960E94A40A01
:10189000CE010D960E94C40ACE0107960E94C40A8A
:1018A000CE0143960E94C40A89819A810E94D31670
:1018B00060936F02CE0101960E94C40AC2CEC82E68
:1018C000082E000CDD08EE08FF089AE0899F802DA5
:1018D00011248C5F80936F02B701A601CE0101969F
:1018E0000E94770A0D811E81CE0101960E94C40AD2
:1018F000012B09F4B1CEB701A601CE0101960E94D9
:10190000770A64E070E0CE0143960E944B0A4D8155
:101910005E81BE016F5F7F4FCE0107960E94F40982
:10192000BE01695F7F4FCE010D960E94BB0ABE01CA
:101930006D5E7F4FCE010D960E949609BC01CE01CF
:1019400001960E94A40ACE010D960E94C40ACE01FF
:1019500007960E94C40ACE0143960E94C40A898158
:101960009A810E94D31660936F02CE0101960E9465
:10197000C40A72CEC82E082E000CDD08EE08FF083F
:101980009AE0899F802D1124895F80936F02B701AF
:10199000A601CE0101960E94770A0D811E81CE011B
:1019A00001960E94C40A012B09F461CEB701A60179
:1019B000CE0101960E94770A67E070E0CE0143965F
:1019C0000E944B0A4D815E81BE016F5F7F4FCE0149
:1019D00007960E94F409BE01695F7F4FCE010D9604
:1019E0000E94BB0ABE016D5E7F4FCE010D960E9424
:1019F0009609BC01CE0101960E94A40ACE010D9663
:101A00000E94C40ACE0107960E94C40ACE014396E2
:101A10000E94C40A89819A810E94D31660936F0242
:101A2000CE0101960E94C40A22CEC82E082E000CB8
:101A3000DD08EE08FF089AE0899F802D11248E5F53
:101A400080936F02B701A601CE0101960E94770A2A
:101A50000D811E81CE0101960E94C40A012B09F45A
:101A600073CEB701A601CE0101960E94770A62E00B
:101A700070E0CE0143960E944B0A4D815E81BE010B
:101A80006F5F7F4FCE0107960E94F409BE01695F28
:101A90007F4FCE010D960E94BB0ABE016D5E7F4F47
:101AA000CE010D960E949609BC01CE0101960E94BE
:101AB000A40ACE010D960E94C40ACE0107960E9488
:101AC000C40ACE0143960E94C40A89819A810E9469
:101AD000D31660936F02CE0101960E94C40A34CEE1
:101AE000C82E082E000CDD08EE08FF089AE0899F3A
:101AF000802D11248B5F80936F02B701A601CE0168
:101B000001960E94770A0D811E81CE0101960E94E6
:101B1000C40A012B09F423CEB701A601CE01019618
:101B20000E94770A65E070E0CE0143960E944B0A5E
:101B30004D815E81BE016F5F7F4FCE0107960E948F
:101B4000F409BE01695F7F4FCE010D960E94BB0A6A
:101B5000BE016D5E7F4FCE010D960E949609BC01BD
:101B6000CE0101960E94A40ACE010D960E94C40ADD
:101B7000CE0107960E94C40ACE0143960E94C40A71
:101B800089819A810E94D31660936F02CE010196DB
:101B90000E94C40AE4CDC82E082E000CDD08EE0811
:101BA000FF089AE0899F802D1124885F80936F023F
:101BB000B701A601CE0101960E94770A0D811E8110
:101BC000CE0101960E94C40A012B09F4D3CDB701BE
:101BD000A601CE0101960E94770A68E070E0CE016E
:101BE00043960E944B0A4D815E81BE016F5F7F4F1D
:101BF000CE0107960E94F409BE01695F7F4FCE01B6
:101C00000D960E94BB0ABE016D5E7F4FCE010D9600
:101C10000E949609BC01CE0101960E94A40ACE0141
:101C20000D960E94C40ACE0107960E94C40ACE01F6
:101C300043960E94C40A89819A810E94D3166093B8
:101C40006F02CE0101960E94C40A94CD833309F03D
:101C500099CD80916F02811104C083E080936F025F
:101C600091CDC82E082E000CDD08EE08FF089AE082
:101C7000899F802D11248D5F80936F02B701A6018B
:101C8000CE0101960E94770A0D811E81CE01019638
:101C90000E94C40A012B09F475CDB701A601CE013B
:101CA00001960E94770A63E070E0CE0143960E949D
:101CB0004B0A4D815E81BE016F5F7F4FCE0107965B
:101CC0000E94F409BE01695F7F4FCE010D960E940C
:101CD000BB0ABE016D5E7F4FCE010D960E94960934
:101CE000BC01CE0101960E94A40ACE010D960E946D
:101CF000C40ACE0107960E94C40ACE0143960E94F0
:101D0000C40A89819A810E94D31660936F02CE0122
:101D100001960E94C40A36CDC82E082E000CDD089C
:101D2000EE08FF089AE0899F802D11248A5F809336
:101D30006F02B701A601CE0101960E94770A0D81BC
:101D40001E81CE0101960E94C40A012B09F425CD03
:101D5000B701A601CE0101960E94770A66E070E005
:101D6000CE0143960E944B0A4D815E81BE016F5F9A
:101D70007F4FCE0107960E94F409BE01695F7F4F35
:101D8000CE010D960E94BB0ABE016D5E7F4FCE0153
:101D90000D960E949609BC01CE0101960E94A40AEC
:101DA000CE010D960E94C40ACE0107960E94C40A75
:101DB000CE0143960E94C40A89819A810E94D3165B
:101DC00060936F02CE0101960E94C40AE6CCC82E31
:101DD000082E000CDD08EE08FF089AE0899F802D90
:101DE0001124875F80936F02B701A601CE0101968F
:101DF0000E94770A0D811E81CE0101960E94C40ABD
:101E0000012B09F4D5CCB701A601CE0101960E94A1
:101E1000770A69E070E0CE0143960E944B0A4D813B
:101E20005E81BE016F5F7F4FCE0107960E94F4096D
:101E3000BE01695F7F4FCE010D960E94BB0ABE01B5
:101E40006D5E7F4FCE010D960E949609BC01CE01BA
:101E500001960E94A40ACE010D960E94C40ACE01EA
:101E600007960E94C40ACE0143960E94C40A898143
:101E70009A810E94D31660936F02CE0101960E9450
:101E8000C40A96CC8DE2A4CC1F920F920FB60F928B
:101E900011240BB60F922F933F934F935F936F9341
:101EA0007F938F939F93AF93BF93EF93FF938FE7AE
:101EB00093E00E94C902FF91EF91BF91AF919F9172
:101EC0008F917F916F915F914F913F912F910F90E3
:101ED0000BBE0F900FBE0F901F9018951F920F9280
:101EE0000FB60F9211240BB60F922F938F939F93DF
:101EF000EF93FF93E0918F03F09190038081E09145
:101F00009503F091960382FD1DC090818091980306
:101F10008F5F8F7320919903821741F0E0919803AE
:101F2000F0E0E158FC4F958F80939803FF91EF917B
:101F30009F918F912F910F900BBE0F900FBE0F901E
:101F40001F9018958081F2CF1F920F920FB60F92BB
:101F500011240BB60F922F933F934F935F936F9380
:101F60007F938F939F93AF93BF93EF93FF938CE1F6
:101F700094E00E94C902FF91EF91BF91AF919F91B0
:101F80008F917F916F915F914F913F912F910F9022
:101F90000BBE0F900FBE0F901F9018951F920F92BF
:101FA0000FB60F9211240BB60F922F938F939F931E
:101FB000EF93FF93E0912C04F0912D048081E09148
:101FC0003204F091330482FD1DC09081809135046C
:101FD0008F5F8F7320913604821741F0E0913504B2
:101FE000F0E0E45EFB4F958F80933504FF91EF9115
:101FF0009F918F912F910F900BBE0F900FBE0F905E
:102000001F9018958081F2CF1F920F920FB60F92FA
:1020100011242F933F938F939F93AF93BF938091FE
:102020002B0390912C03A0912D03B0912E0330919E
:10203000180323E0230F2D3758F50196A11DB11D7C
:102040002093180380932B0390932C03A0932D03CC
:10205000B0932E038091190390911A03A0911B0352
:10206000B0911C030196A11DB11D8093190390939B
:102070001A03A0931B03B0931C03BF91AF919F91D0
:102080008F913F912F910F900FBE0F901F90189539
:1020900026E8230F0296A11DB11DD2CF1F920F92E9
:1020A0000FB60F9211240BB60F922F933F934F93BD
:1020B0005F936F937F938F939F93AF93BF93EF93B0
:1020C000FF93E0911603F0911703309749F0A6852E
:1020D000B7858585968D91FF16C09C918923B1F4B3
:1020E000FF91EF91BF91AF919F918F917F916F91F0
:1020F0005F914F913F912F910F900BBE0F900FBEAC
:102100000F901F9018959C91892351F7A389B4894A
:102110009C918589809589238C93868997890197DD
:10212000F1F7608D718DA685B785558538E020E083
:10213000CB010197F1F7822F90E095958795282F95
:102140004C91452309F02068315091F7868D81FD2F
:1021500020958091140390E001968F739927309118
:102160001503381799F0A0911403B0E0AC52BD4F9D
:102170002C9380931403828D938D0197F1F7A3899B
:10218000B4898C919589892B8C93AACF868D816097
:10219000868FF1CF1F920F920FB60F9211240BB6BC
:1021A0000F922F933F934F935F936F937F938F93F0
:1021B0009F93AF93BF93EF93FF938091B900887F74
:1021C000803609F44DC008F040C0883209F4A9C037
:1021D00028F5803109F49DC0C8F4882309F4FBC0B8
:1021E000883009F496C0FF91EF91BF91AF919F9114
:1021F0008F917F916F915F914F913F912F910F90B0
:102200000BBE0F900FBE0F901F901895883109F4E8
:1022100088C0803241F78093530314C0803409F49E
:102220009DC040F48033B9F38833E9F680935303BB
:1022300085ECB0C0803509F485C0883509F496C0B6
:10224000883489F60E94CC0ACECF883909F48CC034
:1022500038F5883729F050F4883611F0803719F6B0
:1022600083E0809355031092D30257C0883809F455
:102270007BC0803919F0803809F0B5CF8091D30246
:10228000803208F071C0E091D30281E08E0F80931C
:10229000D3028091BB00F0E0ED54FD4F80833DC040
:1022A000803B39F0E0F4803A09F479C0883A09F0CB
:1022B0009ACF84E0809355031092B2021092B1023B
:1022C000E0911F03F091200319958091B1028111D3
:1022D0000FC081E08093B1021092910209C0803C4E
:1022E00009F4A6CF883C09F4A3CF883B09F07BCF43
:1022F000E091B20281E08E0F8093B202F0E0EF56DF
:10230000FD4F80818093BB009091B2028091B10219
:1023100029C0809130038093BB0085EC8093BC0082
:1023200062CF9091520380915103981758F5E09134
:10233000520381E08E0F80935203F0E0EF5CFC4F7C
:102340008081E9CFE091520381E08E0F80935203A8
:102350008091BB00F0E0EF5CFC4F808390915203D2
:10236000809151039817C8F285E8D8CFE0915203C5
:1023700081E08E0F809352038091BB00F0E0EF5C10
:10238000FC4F80838091540381115CCF81E0809366
:102390002F0384EA8093BC001092550324CF85EC70
:1023A0008093BC00109255038091D302803230F4A8
:1023B000E091D302F0E0ED54FD4F10826091D30222
:1023C00070E0E0911D03F0911E0383EB92E01995FC
:1023D0001092D30208CF1092530334CF1F920F9262
:1023E0000FB60F9211248F938EB58093280381E04E
:1023F000809326038F910F900FBE0F901F9018951A
:10240000109282031092810388EE93E0A0E0B0E086
:102410008093830390938403A0938503B0938603F2
:1024200023E232E03093800320937F0345ED50E0B8
:1024300050938C0340938B0344ED50E050938E03F4
:1024400040938D0340ED50E05093900340938F03F1
:1024500041ED50E0509392034093910342ED50E0E0
:10246000509394034093930346ED50E050939603AA
:1024700040939503109298031092990310929A0337
:1024800010929B0310921F0410921E04809320044C
:1024900090932104A0932204B093230430931D044D
:1024A00020931C0425EC30E0309329042093280469
:1024B00024EC30E030932B0420932A0420EC30E00D
:1024C00030932D0420932C0421EC30E030932F0422
:1024D00020932E0422EC30E030933104209330041A
:1024E00026EC30E03093330420933204109235040C
:1024F0001092360410923704109238041092BC04E3
:102500001092BB048093BD049093BE04A093BF04BB
:10251000B093C00425E332E03093BA042093B904A9
:1025200010925505109254058093560590935705C7
:10253000A0935805B09359058DE592E0909353050B
:1025400080935205109269051092680510926B05F0
:1025500010926A0510926D0510926C0510926F052D
:1025600010926E05609170056E7F6D7F60937005AF
:102570006695617081E0682783E10E94180461E03C
:1025800083E10E944A04E1E8F2E0E491E09362050D
:10259000EBE3F2E0E491F0E0EE0FFF1FE25FFD4FAE
:1025A00085919491909364058093630560E082E146
:1025B0000E944A048091700581FD04C061E082E1BF
:1025C0000E94180482E180935E05E0E8F2E0E49165
:1025D000E0935F05EAE3F2E0E491F0E0EE0FFF1F25
:1025E000EC50FE4F85919491909361058093600526
:1025F0001092E5041092E9041092E8041092EA04A3
:1026000083E592E09093E4048093E304EFEFF4E039
:102610008BE395E0108214821382158236968E1712
:102620009F07C1F785E092E09093460580934505AA
:1026300081E092E0909348058093470584E0809381
:10264000490580934A0589E092E090934405809380
:1026500043058AE090E090934C0580934B0584EF0E
:1026600091E090934E0580934D0510925105109284
:10267000500510923F0510924005109241051092AE
:10268000420510924F051092CE041092CD0487E4BB
:1026900092E09093CC048093CB0488E08093CF04A5
:1026A0008FEF8093D00489E08093D1048AE08093F7
:1026B000D2048BE08093D3048CE08093D4048DE02B
:1026C0008093D5041092D6041092D7041092D804A7
:1026D0001092D9041092DA0481E00E940908109245
:1026E000C6041092C5041092C8041092C704109238
:1026F000CA041092C90450E040E06DE672E085EC37
:1027000094E00C94C909CF93DF9300D000D01F92BE
:102710001F92CDB7DEB7789484B5826084BD84B54E
:10272000816084BD85B5826085BD85B5816085BDCC
:1027300080916E00816080936E0010928100809184
:10274000810082608093810080918100816080930C
:102750008100809180008160809380008091B10031
:1027600084608093B1008091B00081608093B0005C
:1027700080919100826080939100809191008160AE
:10278000809391008091900081608093900080916F
:10279000A10082608093A1008091A100816080935C
:1027A000A1008091A00081608093A0008091210110
:1027B00082608093210180912101816080932101B9
:1027C0008091200181608093200180917A00846053
:1027D00080937A0080917A00826080937A00809161
:1027E0007A00816080937A0080917A00806880937B
:1027F0007A001092C10082E00E9409088FE793E0FE
:102800000E948F018CE194E00E948F0110922203BC
:102810001092210310925C0310927E030E94B60571
:1028200089E492E09093200380931F038AE492E06E
:1028300090931E0380931D0361E082E30E944A048B
:102840008CB580648CBD109226038CB580688CBDDD
:1028500061E08EE00E944A0461E08FE00E944A0439
:1028600061E08EE10E944A0461E08FE10E944A0427
:1028700060E08EE00E94180460E08FE00E9418047F
:1028800060E08EE10E94180460E08FE10E9418046D
:10289000BB24B3948091250381118FC080912603BE
:1028A0008823E1F3F0902803F092240365EC74E0B0
:1028B000CE0101960E94BB0AFF8218860D811E81FF
:1028C0000F5F1F4FB801CE0101960E945C0988235B
:1028D00009F44DC029813A818D819E81BE01695FD5
:1028E0007F4F820F931F0E94D6191E830D83BE0156
:1028F0006F5F7F4F85EC94E00E94A40ACE010196A1
:102900000E94C40A21E2F21255C0B092250380E071
:102910000E94AA08F12CE12C10E000E08091C9048B
:102920009091CA040817190708F044C0680150E1E3
:10293000C50ED11C0C151D0511F18091C904909193
:10294000CA0408171907D8F4E091C504F091C60429
:10295000309791F410922303E3E2F3E041E06081C9
:102960008BEC94E00E94A8070F5F1F4FE3CFCE01CE
:1029700001960E948409BBCFE00FF11FEFCFC70182
:1029800001967C01E1E0EE22FF2480FF07C08091E8
:10299000C9049091CA040817190740F064E670E072
:1029A00080E090E00E94AF040E9401088E2D0E94FA
:1029B000AA08B4CF109226036DCF0E9401080E948E
:1029C00039091092280399249394412C512C3201F7
:1029D000439448E0842E90924F058FB7F89440912D
:1029E0002B0350912C0360912D0370912E038FBF08
:1029F00080913F0590914005A0914105B09142051D
:102A0000481B590B6A0B7B0B80914B0590914C0531
:102A1000B0E0A0E084179507A607B70708F058C1F3
:102A200010E080914905181760F4E0914505F09198
:102A30004605E10FF11D62E080810E944A041F5F9C
:102A4000F0CF312C80914A05381608F061C0E32C94
:102A5000F12CE0914705F0914805EE0DFF1D61E076
:102A600080810E944A04E0914705F0914805EE0DEF
:102A7000FF1D60E080810E941804D301C201032C75
:102A800004C0880F991FAA1FBB1F0A94D2F75C01CC
:102A90006C01C094D094212C80914905281608F52A
:102AA000022D10E0E0914505F0914605E00FF11F81
:102AB00080810E94EC030C5F1F4F000F111FF80173
:102AC000ED51FB4F892B41F4808191818A299B290B
:102AD000918380832394E0CF808191818C219D21FB
:102AE000F7CFE0914705F0914805EE0DFF1D61E03D
:102AF00080810E9418048091470590914805E80E56
:102B0000F91E60E0F70180810E944A0433949ACF55
:102B100093EEE92E94E0F92E8701F801878D90A1BC
:102B2000892B31F4148E8FEF9FEF968F858F11A232
:102B30000A5F1F4FEFE1F5E0E017F10771F7D12CC5
:102B400080914905D81608F053C0C12CAD2CB12C8A
:102B5000AA0CBB1CC50185519B4F5C0120914A0505
:102B6000C21608F043C0F501608171810C2C02C0CF
:102B7000769567950A94E2F7D29E900111242C0D68
:102B8000311DE3EEF4E080E0458D568D24173507C6
:102B900009F4E7C08F5F36968A30B1F760FF24C032
:102BA000E3EEF4E090E080E0448D411118C0E09144
:102BB0004305F0914405E20FF31F408156E0589F12
:102BC000F001599FF00D1124ED51FB4F448F368FCA
:102BD000258F10A2178E61E00E94D90105C00196D1
:102BE00036968A30910501F7C394B8CFD394A8CF15
:102BF00080E0F70191A19111892FF6E0EF0EF11C11
:102C0000E016F106B1F79FB7F89440912B0350916D
:102C10002C0360912D0370912E039FBF40933F05BD
:102C2000509340056093410570934205882309F451
:102C30004FC080910405882309F44AC080910205A1
:102C400090910305019709F043C08091FF048093A0
:102C50002A03811142C080912903882309F46BC0A3
:102C600080912803823009F066C0809100028B3287
:102C7000B9F590925B0380927D0310925C031092F1
:102C80007E036091270389EB94E00E9432070E9443
:102C9000F50561E08EE10E94180461E08FE10E9479
:102CA000180462E370E080E090E00E94AF0460E00E
:102CB0008EE10E94180460E08FE10E9418041092D7
:102CC0002803109229030E9439090E94580383CED9
:102CD00010924F0510922A03BECF0E94040BBBCF67
:102CE0008D3269F790925B0380927D0310925C03B2
:102CF00010927E0360912703772761950CF47095FD
:102D000089EB94E00E9432070E94F50561E08EE0B5
:102D10000E94180461E08FE00E94180462E370E0F2
:102D200080E090E00E94AF0460E08EE00E94180412
:102D300060E08FE0C2CF80912803823021F690922C
:102D40005B0380927D0310925C0310927E0360E02F
:102D500089EB94E00E9432070E94F5051092280347
:102D6000B2CF617039CF85EC94E00E94C40A8DE542
:102D700092E09093530580935205809116039091B1
:102D800017038255954071F4E0916505F091660551
:102D90009081809167058095892380831092170325
:102DA0001092160308951F93FC0199278827BC01F0
:102DB000E89411911032E9F3193010F01E30C8F385
:102DC0001B3251F01D3249F4689406C00E9414175A
:102DD000610F711D811D911D119110531A30B0F3B7
:102DE0003EF490958095709561957F4F8F4F9F4FE2
:102DF0001F910895BB274A3031F4992322F4BDE294
:102E0000909581959F4F0C944C17BB272A3051F415
:102E1000992342F4BDE290958095709561957F4F1E
:102E20008F4F9F4F0C942A17592F482F372F262F3B
:102E3000660F771F881F991F660F771F881F991FBE
:102E4000620F731F841F951F660F771F881F991FBE
:102E50000895BB27FA01A62F621771058105910518
:102E6000330B30FB66F0AA27660F771F881F991F68
:102E7000AA1FA21710F0A21B63953850A9F7A05DF6
:102E8000AA3308F0A95DA19336F7B111B19310826E
:102E9000CA010C946517BB27FB015527AA27880F89
:102EA000991FAA1FA41710F0A41B83955051B9F7BE
:102EB000A05DAA3308F0A95DA193009779F7B1113D
:102EC000B1931192CB010C946517DC01FC01672FC3
:102ED00071917723E1F7329704C07C916D937083F1
:102EE0006291AE17BF07C8F3089597FB072E16F43B
:102EF000009407D077FD09D00E94B31707FC05D0D6
:102F00003EF4909581959F4F0895709561957F4F00
:102F10000895A1E21A2EAA1BBB1BFD010DC0AA1F1A
:102F2000BB1FEE1FFF1FA217B307E407F50720F032
:102F3000A21BB30BE40BF50B661F771F881F991FAD
:102F40001A9469F760957095809590959B01AC01F6
:102F5000BD01CF010895EE0FFF1F881F8BBF0790A3
:102F6000F691E02D1994AA1BBB1B51E107C0AA1FC3
:102F7000BB1FA617B70710F0A61BB70B881F991F1A
:102F80005A95A9F780959095BC01CD0108950F93AE
:102F90001F93CF93DF938230910510F482E090E08D
:102FA000E0917305F091740530E020E0B0E0A0E01E
:102FB000309799F42115310509F44AC0281B390BC3
:102FC00024303105D8F58A819B816115710589F11D
:102FD000FB0193838283FE0111C0408151810281F4
:102FE000138148175907E0F04817590799F41097CB
:102FF00061F012960C93129713961C933296CF01A0
:10300000DF91CF911F910F91089500937305109355
:103010007405F4CF2115310551F04217530738F0EC
:10302000A901DB019A01BD01DF01F801C1CFEF0168
:10303000F9CF9093740580937305CDCFFE01E20F15
:10304000F31F819391932250310939832883D7CF7D
:103050002091710530917205232B41F420911B02C0
:1030600030911C0230937205209371052091190252
:1030700030911A022115310541F42DB73EB7409128
:103080001D0250911E02241B350BE0917105F09139
:103090007205E217F307A0F42E1B3F0B2817390720
:1030A00078F0AC014E5F5F4F2417350748F04E0FA4
:1030B0005F1F5093720540937105819391939FCF49
:1030C000F0E0E0E09CCFCF93DF930097E9F0FC01C4
:1030D000329713821282A0917305B0917405ED01AD
:1030E00030E020E01097A1F420813181820F931FFE
:1030F00020917105309172052817390709F061C0D8
:10310000F0937205E0937105DF91CF910895EA0184
:10311000CE17DF07E8F54A815B819E014115510515
:10312000B1F7E901FB83EA8349915991C40FD51F97
:10313000EC17FD0761F4808191810296840F951F41
:10314000E90199838883828193819B838A83F0E05C
:10315000E0E012968D919C9113970097B9F52D910F
:103160003C911197CD010296820F931F209171051A
:10317000309172052817390739F6309751F51092BA
:10318000740510927305B0937205A0937105BCCFBE
:10319000D383C28340815181840F951FC817D907FB
:1031A00061F44E5F5F4F88819981480F591F5183A9
:1031B00040838A819B81938382832115310509F0A5
:1031C000B0CFF0937405E09373059ECFFD01DC0151
:1031D000C0CF13821282D7CF4F925F926F927F92AD
:1031E0008F929F92AF92BF92CF92DF92EF92FF9217
:1031F0000F931F93CF93DF938C01009799F4CB012A
:10320000DF91CF911F910F91FF90EF90DF90CF90C2
:10321000BF90AF909F908F907F906F905F904F90F6
:103220000C94C717FC01E60FF71F9C0122503109CF
:10323000E217F30708F4AEC0D901CD91DC911197E4
:10324000C617D70720F1C530D10578F0CE01049715
:103250008617970750F0C61BD70B2297C193D193BF
:103260006D937C93CF010E946318C801DF91CF91C9
:103270001F910F91FF90EF90DF90CF90BF90AF9094
:103280009F908F907F906F905F904F9008955B011B
:10329000AC1ABD0A4C018C0E9D1EA0917305B09115
:1032A0007405512C412CF12CE12C109731F58091B3
:1032B0007105909172058815990509F05CC0461654
:1032C000570608F058C08091190290911A02009791
:1032D00041F48DB79EB740911D0250911E02841B90
:1032E000950BE817F90708F055C0F0937205E093C5
:1032F0007105F90171836083B8CF8D919C9111970D
:1033000012966C90129713967C901397A815B90596
:1033100059F56C0142E0C40ED11CCA14DB0420F143
:10332000AC014A195B09DA011296159780F06282A6
:10333000738251834083D9016D937C93E114F1042E
:1033400071F0D7011396FC93EE9312978ECF2296CD
:103350008C0F9D1FF90191838083F301EFCFF093D0
:103360007405E093730581CF4816590608F42C01C3
:103370007D01D3019ACFCB010E94C7177C01009732
:1033800049F0AE01B8010E94CD19C8010E9463182E
:1033900087016BCF10E000E068CFFB01DC0102C0C9
:1033A00001900D9241505040D8F70895FB01DC0187
:1033B00001900D920020E1F7089511E0CBE5D1E0F6
:1033C00000E006C0802FFE010E94AB172196011D70
:1033D000CC35D10780E00807A9F7F894FFCF201A71
:1033E0001B1C1D161718193738394434353643312C
:1033F0003233422A3023410000750580000000006E
:1034000000EB024B0278023803A90287029B0200FC
:10341000000000320705076207F904FE06EB06DC30
:103420000600000000BB084B0262076107000000B5
:103430000086044604150400000000FA044B0262F2
:0C34400007F90456056E05E1040D0A00B2
:10E000000D9489F10D94B2F10D94B2F10D94B2F129
:10E010000D94B2F10D94B2F10D94B2F10D94B2F1F0
:10E020000D94B2F10D94B2F10D94B2F10D94B2F1E0
:10E030000D94B2F10D94B2F10D94B2F10D94B2F1D0
:10E040000D94B2F10D94B2F10D94B2F10D94B2F1C0
:10E050000D94B2F10D94B2F10D94B2F10D94B2F1B0
:10E060000D94B2F10D94B2F10D94B2F10D94B2F1A0
:10E070000D94B2F10D94B2F10D94B2F10D94B2F190
:10E080000D94B2F10D94B2F10D94B2F10D94B2F180
:10E090000D94B2F10D94B2F10D94B2F10D94B2F170
:10E0A0000D94B2F10D94B2F10D94B2F10D94B2F160
:10E0B0000D94B2F10D94B2F10D94B2F10D94B2F150
:10E0C0000D94B2F10D94B2F10D94B2F10D94B2F140
:10E0D0000D94B2F10D94B2F10D94B2F10D94B2F130
:10E0E0000D94B2F141546D656761323536300041AF
:10E0F000726475696E6F206578706C6F72657220DE
:10E1000073746B3530305632206279204D4C530099
:10E11000426F6F746C6F616465723E004875683F52
:10E1200000436F6D70696C6564206F6E203D200048
:10E130004350552054797065202020203D20005FF9
:10E140005F4156525F415243485F5F3D2000415658
:10E1500052204C696243205665723D20004743437C
:10E160002056657273696F6E203D20004350552024
:10E1700049442020202020203D20004C6F7720663D
:10E18000757365202020203D20004869676820665F
:10E190007573652020203D200045787420667573D6
:10E1A00065202020203D20004C6F636B2066757336
:10E1B000652020203D20004D617220203720323024
:10E1C000313300312E362E3800342E332E350056A2
:10E1D00023202020414444522020206F7020636F70
:10E1E00064652020202020696E73747275637469E1
:10E1F0006F6E2061646472202020496E74657272B3
:10E20000757074006E6F20766563746F7200726A49
:10E210006D702020006A6D70200057686174207056
:10E220006F72743A00506F7274206E6F7420737541
:10E2300070706F72746564004D7573742062652030
:10E2400061206C6574746572002000577269747483
:10E25000696E672045450052656164696E672045B7
:10E26000450045452065727220636E743D00504F35
:10E27000525400303D5A65726F2061646472003FF1
:10E280003D43505520737461747300403D454550C3
:10E29000524F4D207465737400423D426C696E6B41
:10E2A000204C454400453D44756D70204545505215
:10E2B0004F4D00463D44756D7020464C415348001B
:10E2C000483D48656C70004C3D4C69737420492F83
:10E2D0004F20506F72747300513D51756974005234
:10E2E0003D44756D702052414D00563D73686F7707
:10E2F00020696E7465727275707420566563746FF0
:10E30000727300593D506F727420626C696E6B00BD
:10E310002A0011241FBECFEFD1E2DEBFCDBF01E046
:10E320000CBF12E0A0E0B2E0EEE1FDEF03E00BBFB6
:10E3300002C007900D92A030B107D9F712E0A0E01B
:10E34000B2E001C01D92AE30B107E1F70F9460F367
:10E350000D948DFE01E20EBF0FEF0DBF11241FBE05
:10E360000D9460F30D9400F020E030E040ED57E0B4
:10E3700005C0FA013197F1F72F5F3F4F2817390792
:10E38000C0F308959C01260F311DC901A0E0B0E043
:10E390002F5F3F4FABBFFC018791882361F08093D3
:10E3A000C6008091C00086FFFCCF8091C0008064D1
:10E3B0008093C000EACF08958DE08093C6008091DD
:10E3C000C00086FFFCCF8091C00080648093C000B5
:10E3D0008AE08093C6008091C00086FFFCCF8091C8
:10E3E000C00080648093C00008950F94C2F10F9420
:10E3F000DCF10895FC019081992359F09093C600B7
:10E400008091C00086FFFCCF8091C0008064809323
:10E41000C0003196992379F70895282F982F929567
:10E420009F70892F805D8A3308F0895F8093C600D2
:10E430008091C00086FFFCCF8091C00080648093F3
:10E44000C000822F8F70982F905D9A3308F0995FEB
:10E450009093C6008091C00086FFFCCF8091C000E1
:10E4600080648093C00008959C01FB01853691056E
:10E470001CF46330710594F0C90164E670E00F94F8
:10E480002EFE605D7F4F6093C6008091C00086FFC6
:10E49000FCCF8091C00080648093C0002B30310598
:10E4A00014F43297B4F0C90164E670E00F942EFEC4
:10E4B0006AE070E00F942EFE605D7F4F6093C600AF
:10E4C0008091C00086FFFCCF8091C0008064809363
:10E4D000C000C9016AE070E00F942EFEC0968093E0
:10E4E000C6008091C00086FFFCCF8091C000806490
:10E4F0008093C00008951F93182F8EE692EE60E07F
:10E500000F94C2F11093C6008091C00086FFFCCF2B
:10E510008091C00080648093C0000F94DCF11F9153
:10E5200008952F923F924F925F926F927F928F92B7
:10E530009F92AF92BF92CF92DF92EF92FF920F9392
:10E540001F93DF93CF93CDB7DEB762970FB6F894E2
:10E55000DEBF0FBECDBF382E622ECA01DB015C01CB
:10E560006D01772420E2222E2E010894411C511CBB
:10E570008BC081E0A81680E0B80681E0C80680E084
:10E58000D80628F0C601AA27BB270F940DF2BB2797
:10E59000AD2D9C2D8B2D0F940DF28A2D0F940DF225
:10E5A0002092C6008091C00086FFFCCF8091C00001
:10E5B00080648093C0009DE29093C6008091C0006B
:10E5C00086FFFCCF8091C00080648093C0002092C1
:10E5D000C6008091C00086FFFCCF8091C00080649F
:10E5E0008093C00019828601750188249924A1E0D6
:10E5F0003A1651F03A1620F0B2E03B1661F409C029
:10E600000BBFF701779007C0C7010F9477FE782EF4
:10E6100002C0F7017080872D0F940DF22092C60082
:10E620008091C00086FFFCCF8091C0008064809301
:10E63000C000872D8052F401EF70F0708F3520F408
:10E64000E40DF51D708204C0E40DF51D8EE280839B
:10E650000894E11CF11C011D111D0894811C911CE2
:10E6600090E18916910409F0C2CF80E190E0A0E02A
:10E67000B0E0A80EB91ECA1EDB1E198AC2010F9493
:10E68000FAF10F94DCF16A94662009F072CF629679
:10E690000FB6F894DEBF0FBECDBFCF91DF911F91B3
:10E6A0000F91FF90EF90DF90CF90BF90AF909F9031
:10E6B0008F907F906F905F904F903F902F90089534
:10E6C0002F923F924F925F926F927F928F929F9282
:10E6D000AF92BF92CF92DF92EF92FF920F931F9370
:10E6E000DF93CF93CDB7DEB7CD53D1400FB6F894BB
:10E6F000DEBF0FBECDBF01E20EBF0FEF0DBF94B75F
:10E70000F894A89514BE80916000886180936000A1
:10E7100010926000789493FF05C0E0910002F091A0
:10E7200001021995279A2F9A8091C00082608093E8
:10E73000C00080E18093C40088E18093C1000000A4
:10E74000EE24FF24870144E0A42EB12CCC24DD2448
:10E7500024C0C5010197F1F70894E11CF11C011DCB
:10E76000111D21E2E2162EE4F20620E0020720E06D
:10E77000120718F031E0C32ED12CC801B70127ECE5
:10E780003BE140E050E00F9441FE611571058105C9
:10E79000910519F485B1805885B98091C00087FD35
:10E7A00003C0C114D104A9F2A6014F5F5F4FC25E3E
:10E7B000DE4F59834883CE51D140C25EDE4F8881FF
:10E7C0009981CE51D140019711F00D9410FEC05D9A
:10E7D000DE4F19821882C053D14060E0C15DDE4F28
:10E7E0001882CF52D14088249924C35DDE4F19820C
:10E7F0001882CD52D140C05EDE4F188219821A8233
:10E800001B82C052D140CE5CDE4F188219821A8220
:10E810001B82C253D140EE24FF2487010BBFF701B6
:10E8200007911691C45CDE4F19830883CC53D14005
:10E830000D940BFEC25EDE4F28813981CE51D1404E
:10E840002130310509F52091C600C25EDE4F1982E4
:10E850001882CE51D14022C02F5F3F4F4F4F5F4FA4
:10E86000213082E138078AE7480780E0580780F0C6
:10E87000C45CDE4FE881F981CC53D140EF5FFF4F9C
:10E8800019F0EE27FF27099420E030E040E050E047
:10E890008091C00087FFE0CF2091C600C35DDE4FAE
:10E8A00048815981CD52D1404F5F5F4FC35DDE4FEC
:10E8B00059834883CD52D140213209F063C64A3092
:10E8C000510508F05FC60894811C911C53E0851621
:10E8D000910409F059C600E010E018C081E280936D
:10E8E000C6008091C00086FFFCCF8091C00080648C
:10E8F0008093C0002F5F3F4F2931310579F70F9486
:10E90000DCF10F5F1F4F0530110519F020E030E0FA
:10E91000E5CF10920A0210920B0210920C02109294
:10E920000D02109206021092070210920802109235
:10E930000902109202021092030210920402109235
:10E9400005028FEE90EE60E00F94F5F180E191EE1C
:10E9500060E00F94C2F18091C00087FFFCCF9091DE
:10E96000C600903608F09F759032B8F09093C600BC
:10E970008091C00086FFFCCF8091C00080648093AE
:10E98000C000A0E2A093C6008091C00086FFFCCF2B
:10E990008091C00080648093C000983409F4D7C18E
:10E9A0009934B8F4923409F459C1933458F490333B
:10E9B00019F1903308F4E3C59F33A1F1903409F0C5
:10E9C000DEC5BDC0953409F470C1963409F0D7C5D1
:10E9D00098C1923509F42BC2933538F49C3409F46C
:10E9E000F5C1913509F0CBC518C2963509F445C279
:10E9F000993509F0C4C567C483E792EE62E00F94CD
:10EA0000F5F110920602109207021092080210927D
:10EA1000090210920A0210920B0210920C0210923C
:10EA20000D0213C18FE792EE62E00F94F5F18FEEC5
:10EA300090EE60E00F94F5F181E291EE60E00F94CA
:10EA4000C2F187EB91EE60E00F94F5F180E391EE77
:10EA500060E00F94C2F184EE90EE60E00F94F5F167
:10EA60008FE391EE60E00F94C2F186E090E061E008
:10EA700070E00F9434F20F94DCF18DE591EE60E0DC
:10EA80000F94C2F189EC91EE60E00F94F5F18EE401
:10EA900091EE60E00F94C2F183EC91EE60E00F9490
:10EAA000F5F18CE691EE60E00F94C2F18EE10F94E7
:10EAB0000DF288E90F940DF281E00F940DF20F949E
:10EAC000DCF18BE791EE60E00F94C2F119E0E0E039
:10EAD000F0E010935700E4918E2F0F940DF20F94F5
:10EAE000DCF18AE891EE60E00F94C2F1E3E0F0E03F
:10EAF00010935700E4918E2F0F940DF20F94DCF1D8
:10EB000089E991EE60E00F94C2F1E2E0F0E0109349
:10EB10005700E4918E2F0F940DF20F94DCF188EAE8
:10EB200091EE60E00F94C2F1E1E0F0E01093570045
:10EB30001491812F0F940DF20F94DCF107CF8BE825
:10EB400092EE62E00F94F5F18BE492EE60E00F94A8
:10EB5000F5F10F94DCF100E010E019C0C8016F2D51
:10EB60000F947FFEFF2031F489E492EE60E00F9471
:10EB7000C2F10BC0F092C6008091C00086FFFCCFAE
:10EB80008091C00080648093C0000F5F1F4FC80158
:10EB900081519F41A0E0B0E0ABBFFC01F790BAE229
:10EBA000FB1621F0E2E000301E07C1F60F94DCF105
:10EBB0000F94DCF187E592EE60E00F94F5F10F948D
:10EBC000DCF1CC24DD2400E010E01EC0C8010F946D
:10EBD00077FEF82E882331F489E492EE60E00F94FA
:10EBE000C2F10BC08093C6008091C00086FFFCCFAD
:10EBF0008091C00080648093C000FE1419F00894D6
:10EC0000C11CD11C0F5F1F4FC80181519F41A0E063
:10EC1000B0E0ABBFFC01E790FAE2EF1621F022E092
:10EC20000030120799F60F94DCF10F94DCF182E6C4
:10EC300092EE60E00F94C2F1C60161E070E00F94C3
:10EC400034F20F94DCF10F94DCF110920202109276
:10EC50000302109204021092050278CE89E992EE26
:10EC600062E00F94F5F1279A2F9A16C02F9880E052
:10EC700090E0E0EDF7E03197F1F7019684369105E9
:10EC8000C1F72F9A80E090E0E0EDF7E03197F1F7DF
:10EC9000019684369105C1F78091C00087FFE6CFC9
:10ECA0008091C00087FFFCCF64C485EA92EE62E0E9
:10ECB0000F94F5F140910202509103026091040219
:10ECC0007091050281E020E10F9491F2809102029F
:10ECD00090910302A0910402B091050280509F4FD1
:10ECE000AF4FBF4F8093020290930302A0930402A0
:10ECF000B093050280509041A040B04008F426CE69
:10ED0000A4CF83EB92EE62E00F94F5F140910602FE
:10ED100050910702609108027091090280E020E1A1
:10ED20000F9491F28091060290910702A09108023F
:10ED3000B091090280509F4FAF4FBF4F80930602A2
:10ED400090930702A0930802B0930902FFCD80ECD4
:10ED500092EE62E00F94F5F183E792EE60E00F949B
:10ED6000F5F18FE792EE60E00F94F5F18BE892EE0B
:10ED700060E00F94F5F189E992EE60E00F94F5F10F
:10ED800085EA92EE60E00F94F5F183EB92EE60E09D
:10ED90000F94F5F180EC92EE60E00F94F5F187ECC2
:10EDA00092EE60E00F94F5F188ED92EE60E00F9442
:10EDB000F5F18FED92EE60E00F94F5F18AEE92EEB0
:10EDC00060E00F94F5F183E093EEBDCD87EC92EE19
:10EDD00062E00F94F5F181E40F947BF282E40F94EA
:10EDE0007BF283E40F947BF284E40F947BF285E45E
:10EDF0000F947BF286E40F947BF287E40F947BF20E
:10EE000088E40F947BF28AE40F947BF28BE40F94F6
:10EE10007BF28CE40F947BF299CD88ED92EE62E068
:10EE20000F94F5F1772473948824992409C48FED05
:10EE300092EE62E00F94F5F140910A0250910B02BC
:10EE400060910C0270910D0282E020E10F9491F22A
:10EE500080910A0290910B02A0910C02B0910D02D8
:10EE600080509F4FAF4FBF4F80930A0290930B0289
:10EE7000A0930C02B0930D0269CD8AEE92EE62E08F
:10EE80000F94F5F184EE90EE60E00F94F5F18FECC5
:10EE900091EE60E00F94F5F1662477244301CC5D98
:10EEA000DE4F19821882C452D140D401C301B695F5
:10EEB000A79597958795CA5DDE4F88839983AA8326
:10EEC000BB83C652D140CC5DDE4FA881B981C4520C
:10EED000D1401196CC5DDE4FB983A883C452D14096
:10EEE000CD0162E070E00F9434F2B0E2B093C6005E
:10EEF0008091C00086FFFCCF8091C0008064809329
:10EF0000C000EDE2E093C6008091C00086FFFCCF18
:10EF10008091C00080648093C000F0E2F093C6004E
:10EF20008091C00086FFFCCF8091C00080648093F8
:10EF3000C000CA5DDE4FE880F9800A811B81C6529D
:10EF4000D140BB27A12F902F8F2D0F940DF2CA5DBA
:10EF5000DE4F8881C652D1400F940DF2B0E2FB2EF5
:10EF6000F092C6008091C00086FFFCCF8091C00067
:10EF700080648093C0000DE30093C6008091C000C0
:10EF800086FFFCCF8091C00080648093C00010E2B7
:10EF90001093C6008091C00086FFFCCF8091C00016
:10EFA00080648093C0008BBEF3012791C65DDE4F65
:10EFB0002883CA52D140A22EBB24CC24DD2408943D
:10EFC000611C711C811C911C8BBEF3018791282E42
:10EFD0003324442455240894611C711C811C911C09
:10EFE0008BBEF3013791C55DDE4F3883CB52D140E4
:10EFF0000894611C711C811C911C8BBEF30147910C
:10F00000C45DDE4F4883CC52D140ADEFEA2EAFEF66
:10F01000FA2EAFEF0A2FAFEF1A2F6E0C7F1C801E57
:10F02000911E142D032DF22CEE24EA0CFB1C0C1D5A
:10F030001D1D0F940DF220E22093C6008091C000A8
:10F0400086FFFCCF8091C00080648093C000C65DC5
:10F05000DE4F8881CA52D1400F940DF230E23093D6
:10F06000C6008091C00086FFFCCF8091C000806404
:10F070008093C000C45DDE4F8881CC52D1400F9494
:10F080000DF240E24093C6008091C00086FFFCCFA5
:10F090008091C00080648093C000C55DDE4F888190
:10F0A000CB52D1400F940DF250E25093C6008091A4
:10F0B000C00086FFFCCF8091C00080648093C000B8
:10F0C0008FEFE8168FEFF80680E0080780E018075A
:10F0D00031F484E092EE60E00F94C2F1DFC0D80119
:10F0E000C7018070907CA070B0708050904CA040A0
:10F0F000B040D1F52FEF3FE340E050E0E222F322B1
:10F1000004231523CA5DDE4FA880B980CA80DB8046
:10F11000C652D140AE0CBF1CC01ED11EAA0CBB1CD7
:10F12000CC1CDD1C8EE092EE60E00F94C2F1BB2798
:10F13000A12F902F8F2D0F940DF28E2D0F940DF285
:10F1400030E23093C6008091C00086FFFCCF8091F2
:10F15000C00080648093C0004EE34093C60080915D
:10F16000C00086FFFCCF87C08EE09EEFA0E0B0E03D
:10F17000E822F9220A231B239CE0E91694E9F90608
:10F1800090E0090790E0190709F088C0C45DDE4FE0
:10F19000A881CC52D140EA2EFF2400E010E0102FCD
:10F1A0000F2DFE2CEE24C55DDE4FB881CB52D14031
:10F1B000EB0EF11C011D111DD601C501817090706F
:10F1C000A070B070DC0199278827E80EF91E0A1F8D
:10F1D0001B1F20EF30E040E050E0A222B322C42207
:10F1E000D52241E1AA0CBB1CCC1CDD1C4A95D1F7F1
:10F1F000EA0CFB1C0C1D1D1D81E090E0A0E0B0E0BE
:10F20000282239224A225B2235E1220C331C441C7D
:10F21000551C3A95D1F7E20CF31C041D151D57013E
:10F220006801AA0CBB1CCC1CDD1C85E192EE60E0E1
:10F230000F94C2F1C801AA27BB270F940DF2BB2778
:10F24000A12F902F8F2D0F940DF28E2D0F940DF274
:10F2500090E29093C6008091C00086FFFCCF809121
:10F26000C00080648093C000AEE3A093C60080918C
:10F27000C00086FFFCCF8091C00080648093C000F6
:10F28000C601AA27BB270F940DF2BB27AD2D9C2DDD
:10F290008B2D0F940DF28A2D0F940DF20F94DCF14B
:10F2A000CC5DDE4FE881F981C452D140F99709F471
:10F2B0004DCBF4E0EF2EF12C012D112D6E0C7F1CA7
:10F2C000801E911EF2CD83E093EE62E00F94F5F183
:10F2D0008AE192EE60E00F94C2F18091C00087FF56
:10F2E000FCCF1091C6001F751093C6008091C0001E
:10F2F00086FFFCCF8091C00080648093C0000F9493
:10F30000DCF1812F81548A3108F036C1163409F4BA
:10F3100095C0173490F4133409F44EC0143430F40B
:10F320001134F1F0123409F01DC130C0143409F465
:10F3300059C0153409F016C16BC01A3409F4C4C0A1
:10F340001B3438F4173409F48FC0183409F00AC19B
:10F35000A1C01B3409F4D2C01C3409F003C1E8C0B9
:10F360008FEF81B90DC082B1809582B980E090E0C5
:10F37000E0EDF7E03197F1F70196883C9105C1F790
:10F380008091C00087FFEFCF12B8EFC08FEF84B934
:10F390000DC085B1809585B980E090E0E0EDF7E0A3
:10F3A0003197F1F70196883C9105C1F78091C00033
:10F3B00087FFEFCF15B8D9C08FEF87B90DC088B1DF
:10F3C000809588B980E090E0E0EDF7E03197F1F7C3
:10F3D0000196883C9105C1F78091C00087FFEFCF6F
:10F3E00018B8C3C08FEF8AB90DC08BB180958BB9A7
:10F3F00080E090E0E0EDF7E03197F1F70196883C8E
:10F400009105C1F78091C00087FFEFCF1BB8ADC059
:10F410008FEF8DB90DC08EB180958EB980E090E0F0
:10F42000E0EDF7E03197F1F70196883C9105C1F7DF
:10F430008091C00087FFEFCF1EB897C08FEF80BBD1
:10F440000DC081B3809581BB80E090E0E0EDF7E0F6
:10F450003197F1F70196883C9105C1F78091C00082
:10F4600087FFEFCF11BA81C08FEF83BB0DC084B38C
:10F47000809584BB80E090E0E0EDF7E03197F1F714
:10F480000196883C9105C1F78091C00087FFEFCFBE
:10F4900014BA6BC08FEF809301010FC080910201FD
:10F4A00080958093020180E090E0E0EDF7E03197F5
:10F4B000F1F70196883C9105C1F78091C00087FF64
:10F4C000EDCF1092020151C08FEF809304010FC065
:10F4D0008091050180958093050180E090E0E0ED4A
:10F4E000F7E03197F1F70196883C9105C1F78091DB
:10F4F000C00087FFEDCF1092050137C08FEF8093DA
:10F5000007010FC08091080180958093080180E079
:10F5100090E0E0EDF7E03197F1F70196883C910536
:10F52000C1F78091C00087FFEDCF109208011DC088
:10F530008FEF80930A010FC080910B01809580931B
:10F540000B0180E090E0E0EDF7E03197F1F70196F4
:10F55000883C9105C1F78091C00087FFEDCF1092E4
:10F560000B0103C085E292EEEEC98091C00087FFD7
:10F57000FCCF8091C600EAC988E392EEE4C98CE131
:10F5800091EEE1C988249924933011F1943028F444
:10F59000913089F09230B8F408C0953061F195301F
:10F5A000F0F0963009F048C043C02B3109F042C951
:10F5B00091E06BE13FC96227C15DDE4F2883CF52E6
:10F5C000D14092E037C9B22FA0E0622793E032C960
:10F5D000822F90E0A82BB92B622794E02BC92E3004
:10F5E00009F039C3622795E0C05DDE4F19821882A9
:10F5F000C053D1401FC9E1E0F0E0EC0FFD1FC05D3A
:10F60000DE4F08811981C053D140E00FF11F2083E4
:10F610000F5F1F4FC05DDE4F19830883C053D14079
:10F6200062270A171B0709F005C9D80196E002C92D
:10F63000261709F010C303C0973009F0FBC87724E0
:10F640009981933109F412C19431C8F4963009F4C8
:10F65000D8C0973050F4923009F406C1933009F4C1
:10F660006DC0913009F059C253C0913109F477C08F
:10F67000923108F0BBC0903109F04FC2F5C098310B
:10F6800009F487C0993150F4953109F4EFC09531F0
:10F6900008F4C6C1963109F040C2C2C19A3109F4DA
:10F6A0006CC09A3108F491C09B3109F45BC09D3164
:10F6B00009F033C29D81903359F48F81882311F46E
:10F6C0009EE11CC0813011F091E018C098E916C08D
:10F6D000892F807591F0903539F4E0E0F0E089E011
:10F6E0008093570094910AC0983539F4E3E0F0E034
:10F6F00089E080935700949101C090E01A821B82A8
:10F700008D818C831D829E831F8227E030E009C299
:10F710001A8288E08B8381E48C8386E58D8382E581
:10F720008E8389E48F8383E5888780E589878FE5E9
:10F730008A8782E38B872BE030E0F3C18A818139AD
:10F7400041F0823941F0803911F48FE005C080E04A
:10F7500003C082E001C08AE01A828B8344C0772410
:10F76000739482C08D81882311F48EE12CC0813086
:10F7700011F081E028C088E926C01A82E1E0F0E0BB
:10F7800089E08093570084918B831C8224E030E0D1
:10F79000C8C18B81803589F48C81883039F4E2E0EE
:10F7A000F0E089E08093570084910DC0E0E0F0E044
:10F7B00089E080935700849106C0E3E0F0E089E09F
:10F7C0008093570084911A82DFCF8D81836C99E0FA
:10F7D000E1E0F0E0082E90935700E89507B600FCB2
:10F7E000FDCF1A821B8223E030E09BC180EC8A832C
:10F7F000CE5CDE4F188219821A821B82C253D1401E
:10F800008EC18A8190E0A0E0B0E0582F44273327D2
:10F8100022278B8190E0A0E0B0E0DC0199278827C7
:10F82000282B392B4A2B5B2B8D8190E0A0E0B0E098
:10F83000282B392B4A2B5B2B8C8190E0A0E0B0E089
:10F84000BA2FA92F982F8827282B392B4A2B5B2BCF
:10F85000220F331F441F551FC05EDE4F288339839C
:10F860004A835B83C052D1401A8259C13A81C95C34
:10F87000DE4F3883C753D140CA5CDE4F1882C6536F
:10F88000D1408B81C82EDD24CA5CDE4F488159816E
:10F89000C653D140C42AD52A933109F082C0CE5C28
:10F8A000DE4F88819981AA81BB81C253D1408050AB
:10F8B000904CA340B04030F583E0CE5CDE4FE88052
:10F8C000F9800A811B81C253D140F70100935B008C
:10F8D00080935700E89507B600FCFDCFCE5CDE4F65
:10F8E000088119812A813B81C253D14000501F4FAA
:10F8F0002F4F3F4FCE5CDE4F088319832A833B8313
:10F90000C253D140C05EDE4F488159816A817B81FC
:10F91000C052D140DE011B9631E08C9111962C91A2
:10F9200011971296C75CDE4F2883C953D140C85C3B
:10F93000DE4F1882C853D14090E0C85CDE4FE881AA
:10F94000F981C853D1408E2B9F2B0C01FA01609393
:10F950005B0030935700E89511244E5F5F4F6F4F67
:10F960007F4F0EEFE02E0FEFF02ECE0CDF1CC114F8
:10F97000D10499F685E0C05EDE4F088119812A81A5
:10F980003B81C052D140F80120935B008093570027
:10F99000E89507B600FCFDCF81E180935700E8951C
:10F9A00035C0C05EDE4F88819981AA81BB81C0527B
:10F9B000D140B695A795979587957C018601ABE0D8
:10F9C000AA2EB12CAC0EBD1E0BC0D5016D915D01F0
:10F9D000C7010F947FFE0894E11CF11C01501040F8
:10F9E0000115110591F7A60160E070E0440F551F65
:10F9F000661F771FC05EDE4FE880F9800A811B8199
:10FA0000C052D1404E0D5F1D601F711F1A82C05E33
:10FA1000DE4F488359836A837B83C052D1407FC0C5
:10FA2000FA80C55CDE4FF882CB53D140C65CDE4F16
:10FA30001882CA53D1408B81C82EDD24C65CDE4FAC
:10FA400008811981CA53D140C02AD12A1A828981DA
:10FA5000BE016D5F7F4F843121F59601C05EDE4FA0
:10FA6000E880F9800A811B81C052D1400BBFF701A9
:10FA700087919691DB018C9311969C936E5F7F4FDB
:10FA8000D801C7010296A11DB11DC05EDE4F88835B
:10FA90009983AA83BB83C052D14022503040F1F6F3
:10FAA00036C0C05EDE4F288139814A815B81C052F9
:10FAB000D1400894C108D108760100E010E0089414
:10FAC000C11CD11C0894E11CF11C011D111DE20E8A
:10FAD000F31E041F151F21BDBB27A52F942F832FB5
:10FAE00082BD2F5F3F4F4F4F5F4FF89A80B5DB01CC
:10FAF0008D93BD012E153F054007510761F7C05E8C
:10FB0000DE4F288339834A835B83C052D1409601FC
:10FB10002D5F3F4FFB01108204C080EC8A8322E0FE
:10FB200030E08BE18093C6008091C00086FFFCCF5F
:10FB30008091C00080648093C000C15DDE4FF88179
:10FB4000CF52D140F093C6008091C00086FFFCCF19
:10FB50008091C00080648093C000432F3093C60022
:10FB60008091C00086FFFCCF8091C00080648093AC
:10FB7000C000922F2093C6008091C00086FFFCCF6A
:10FB80008091C00080648093C0008EE08093C600A6
:10FB90008091C00086FFFCCF8091C000806480937C
:10FBA000C00065E1C15DDE4FE880CF52D1406E25D7
:10FBB00069276427FE01319610C090819093C6009A
:10FBC0008091C00086FFFCCF31968091C000806498
:10FBD0008093C0006927215030402115310569F715
:10FBE0006093C6008091C00086FFFCCF8091C0006A
:10FBF00080648093C00085B1805885B9772081F4F6
:10FC0000C15DDE4F0881CF52D1400F5FC15DDE4F35
:10FC10000883CF52D14090E0A0E0B0E00D941AF4F8
:10FC200027982F9880E090E020ED37E0F901319798
:10FC3000F1F7019684369105C9F700008091C00064
:10FC40008D7F8093C00081E180935700E895EE2777
:10FC5000FF270994FFCF90E00D941AF497FB092E2B
:10FC600007260AD077FD04D02ED006D000201AF443
:10FC7000709561957F4F0895F6F7909581959F4F08
:10FC80000895A1E21A2EAA1BBB1BFD010DC0AA1FDD
:10FC9000BB1FEE1FFF1FA217B307E407F50720F0F5
:10FCA000A21BB30BE40BF50B661F771F881F991F70
:10FCB0001A9469F760957095809590959B01AC01B9
:10FCC000BD01CF010895AA1BBB1B51E107C0AA1FAC
:10FCD000BB1FA617B70710F0A61BB70B881F991FED
:10FCE0005A95A9F780959095BC01CD010895F99991
:10FCF000FECF92BD81BDF89A992780B50895262F31
:10FD0000F999FECF1FBA92BD81BD20BD0FB6F89400
:0EFD1000FA9AF99A0FBE01960895F894FFCF63
:00000001FF
