:020000040000FA
:100000000C9447010C9478010C9478010C947801BD
:100010000C9478010C9478010C9478010C9478017C
:100020000C9478010C94E50C0C94E50C0C94E50C04
:100030000C9478010C9478010C9478010C9478015C
:100040000C9478010C9478010C9478010C9478014C
:100050000C9478010C9478010C9478010C947B0B2F
:100060000C9478010C94510B0C94270B0C94780190
:100070000C9478010C9478010C9478010C9478011C
:100080000C9478010C9478010C9478010C9478010C
:100090000C94FD0A0C94D30A0C9478010C94C50BB3
:1000A0000C9478010C9478010C9478010C947801EC
:1000B0000C9478010C9478010C9478010C947801DC
:1000C0000C9478010C9478010C9478010C94A90A92
:1000D0000C947F0A0C9478010C94550A0C942B0A0A
:1000E0000C9478010C94EE010C942F030C946A0389
:1000F0000C94FD010C94A8010C9437030C9460033C
:100100000C944A030C9411020C9452030C94650352
:100110000C944D040C9458030C94EF0C0C941F0297
:100120000C9475020C945C030C94A4050C943A0393
:100130000C9440030C9466030C94A1010C944E03A0
:100140000C9481090C94C2020C94F4050C942B03BA
:100150000C9433030C9444030C94C7050C944F0681
:100160000C9425030C94B4050C94A5050000220002
:10017000250028002B002E00310034000201000071
:10018000050108010B0100002000230026002900C2
:100190002C002F00320000010000030106010901BC
:1001A00000000A0B02090C0D0E08070304010000F1
:1001B000000000000000000000000000000000003F
:1001C00000000000000000000000000012111000FC
:1001D000000000000000000000000000000000001F
:1001E00000000000000000002100240027002A0079
:1001F0002D003000330001010000040107010A0155
:100200000102102020080810204010204080020128
:10021000020108040201010204081020408080400D
:10022000201008040201800402018040201008040C
:1002300002010804020101020408102040800102AA
:100240000408102040800505050507050808080872
:10025000020202020A0A080804040404010101015E
:100260000101010103030303030303030407070759
:100270000C0C0C0C0C0C0C0C0202020206060606FE
:10028000060606060B0B0B0B0B0B0B0BEF0C1124CE
:100290001FBECFEFD1E2DEBFCDBF00E00CBF26E036
:1002A000A0E3B3E001C01D92A13BB207E1F713E068
:1002B000A0E0B2E0E4E0F9E200E00BBF02C007908A
:1002C0000D92A033B107D9F711E0C7E4D1E000E007
:1002D00006C021970109802FFE010E944E12C634EC
:1002E000D10780E00807A9F70E94B70D0C9480148D
:1002F0000C940000FC01A089B18982E08C93A48554
:10030000B58586E08C93A685B78592E89C93108E80
:10031000A489B5898C93A289B3898C9180618C93CF
:10032000A289B3898C9188608C93A289B3898C91BE
:1003300080688C930288F389E02D80818F7D808393
:10034000089580917F0390918003891B990B0895F4
:10035000AF92BF92CF92DF92EF92FF920F931F93D3
:10036000CF93DF936C017B018B01040F151FEB0111
:100370005E01AE18BF08C017D10759F06991D601C8
:10038000ED91FC910190F081E02DC6011995892B2A
:1003900079F7C501DF91CF911F910F91FF90EF90F9
:1003A000DF90CF90BF90AF900895FC01A089B189F4
:1003B0008C91A689B78982FD0FC09C91818D8F5F3A
:1003C0008F73228D821749F0A18DAE0FBF2FB11D03
:1003D0005D969C93818F08958C910895FC01538DB7
:1003E000448D252F30E0842F90E0821B930B54170F
:1003F00010F0CF96089501970895FC01918D828D9C
:10040000981761F0A28DAE0FBF2FB11D5D968C9134
:10041000928D9F5F9F73928F90E008958FEF9FEF73
:100420000895FC01918D828D981731F0828DE80F2F
:10043000F11D858D90E008958FEF9FEF0895FC01E9
:10044000918D228D892F90E0805C9F4F821B9109B6
:100450008F739927089585E194E00E941F0221E09F
:10046000892B09F420E0822F089582EB94E00E940A
:100470001F0221E0892B09F420E0822F08958FE4E8
:1004800095E00E941F0221E0892B09F420E0822FD1
:1004900008958CEE95E00E941F0221E0892B09F45B
:1004A00020E0822F0895FC01A48DA80FB92FB11D63
:1004B000A35ABF4F2C91848D90E001968F7399279A
:1004C000848FA689B7892C93A089B1898C91837078
:1004D00080648C93938D848D981306C00288F38971
:1004E000E02D80818F7D80830895EF92FF920F939E
:1004F0001F93CF93DF93EC0181E0888F9B8D8C8DD0
:1005000098131AC0E889F989808185FF15C09FB7C3
:10051000F894EE89FF896083E889F9898081837086
:10052000806480839FBF81E090E0DF91CF911F9135
:100530000F91FF90EF900895F62E0B8D10E00F5F56
:100540001F4F0F731127E02E8C8D8E110CC00FB62C
:1005500007FCFACFE889F989808185FFF5CFCE01C4
:100560000E945302F1CFEB8DEC0FFD2FF11DE35AEA
:10057000FF4FF0829FB7F8940B8FEA89FB89808147
:100580008062CFCFCF93DF93EC01888D8823B9F0C1
:10059000AA89BB89E889F9898C9185FD03C080818E
:1005A00086FD0DC00FB607FCF7CF8C9185FFF2CF0B
:1005B000808185FFEDCFCE010E945302E9CFDF910C
:1005C000CF91089580E090E0892B29F00E944902A4
:1005D00081110E94000080E090E0892B29F00E94A8
:1005E0003F0281110E94000080E090E0892B29F0F9
:1005F0000E94350281110E94000080E090E0892B6A
:1006000029F00E942B0281110C9400000895815062
:10061000823108F05AC0E82FF0E08827ED5EFC4FE9
:100620008F4F0C944E123303370325032B032F03F4
:1006300065033A03400344034A034E03520358033D
:100640005C036503600366036A03809180008F7713
:10065000809380000895809180008F7DF9CF8091F4
:100660008000877FF5CF84B58F7784BD089584B5EA
:100670008F7DFBCF8091B0008F778093B00008957D
:100680008091B0008F7DF9CF809190008F7780931B
:1006900090000895809190008F7DF9CF8091900017
:1006A000877FF5CF8091A0008F778093A000089579
:1006B0008091A0008F7DF9CF8091A000877FF5CF3A
:1006C000809120018F7780932001089580912001EF
:1006D0008F7DF9CF80912001877FF5CFCF93DF9376
:1006E000282F30E0F901E056FE4F8491F901E050E7
:1006F000FE4FD491F901EA5BFD4FC491CC23A1F0E8
:1007000081110E940703EC2FF0E0EE0FFF1FEA5764
:10071000FE4FA591B491EC91ED2381E090E009F4B6
:1007200080E0DF91CF91089580E090E0FACF1F93B1
:10073000CF93DF93282F30E0F901E056FE4F8491EC
:10074000F901E050FE4FD491F901EA5BFD4FC491ED
:10075000CC23A9F0162F81110E940703EC2FF0E0A3
:10076000EE0FFF1FE459FE4FA591B4918FB7F89497
:10077000EC91111108C0D095DE23DC938FBFDF917F
:10078000CF911F910895DE2BF8CFCF93DF9390E0A8
:10079000FC01E050FE4F24918A5B9D4FFC01849147
:1007A0008823D1F090E0880F991FFC01EA51FE4F99
:1007B000A591B491FC01E459FE4FC591D49161110A
:1007C0000EC09FB7F8948C91E22FE0958E238C9306
:1007D0002881E223E8839FBFDF91CF9108958FB7EF
:1007E000F894EC91E22BEC938FBFF6CF3FB7F894DF
:1007F00080917B0390917C03A0917D03B0917E0357
:1008000026B5A89B05C02F3F19F00196A11DB11D6B
:100810003FBFBA2FA92F982F8827BC01CD01620FA7
:10082000711D811D911D42E0660F771F881F991F62
:100830004A95D1F708958F929F92AF92BF92CF922F
:10084000DF92EF92FF924B015C010E94F6036B0175
:100850007C010E94F6036C197D098E099F09683E90
:10086000734081059105A8F321E0821A9108A1083F
:10087000B10888EEC80E83E0D81EE11CF11C81147B
:100880009104A104B10429F7FF90EF90DF90CF907D
:10089000BF90AF909F908F90089508951F93CF932E
:1008A000DF93C1E0C0933203882399F1D091B8005F
:1008B0001091BA008091BC008A7B8093BC0060E0FC
:1008C00084E10E94970360E085E10E949703109203
:1008D000EB03C093EA031092C50361E084E10E9438
:1008E000970361E085E10E9497038091B9008E7FB4
:1008F0008093B9008091B9008D7F8093B90088E41E
:100900008093B80085E48093BC001093BA00D09324
:10091000B800DF91CF911F9108958F929F92AF926F
:10092000BF92CF92DF92EF92FF920F931F93CF93DC
:10093000DF93D0911404D13208F0D7C0182FC091A2
:1009400013040E94F6036B017C018091EB0381117B
:100950006BC082E08093EB031093EA038FEF8093E8
:10096000E9031092E803D093E703A3EFB3E0E7ECC9
:10097000F3E080E0D81391C01092C6038091C603C3
:10098000CC0FC82BC093C6038091C503813009F0FA
:1009900088C01092C5030E94F6036B017C01809110
:1009A000C6038093BB008091ED039091EE03A0916C
:1009B000EF03B091F003892B8A2B8B2BA1F00E94BF
:1009C000F6030091ED031091EE032091EF033091B7
:1009D000F0036C197D098E099F0906171707280770
:1009E000390708F442C08091BC0083FDD8CF85EC64
:1009F0008093BC000E94F6036B017C018091EB03A5
:100A0000823009F450C08091E9038F3F09F46FC030
:100A10008091E903803209F46CC08091E90380334E
:100A200009F469C084E026C08091ED039091EE0343
:100A3000A091EF03B091F003892B8A2B8B2B09F443
:100A400084CF0E94F6038090ED039090EE03A09077
:100A5000EF03B090F0036C197D098E099F0986168B
:100A60009706A806B90608F070CF8091EC030E94A3
:100A70004E0485E01092F203109214041092F103D8
:100A8000DF91CF911F910F91FF90EF90DF90CF906A
:100A9000BF90AF909F908F9008959D9191938F5F9D
:100AA00069CF85EEA5CF8091ED039091EE03A091E3
:100AB000EF03B091F003892B8A2B8B2B09F49ECF87
:100AC0000E94F6030091ED031091EE032091EF03D5
:100AD0003091F0036C197D098E099F0906171707DD
:100AE0002807390708F08ACFC0CF81E0C3CF80E064
:100AF000C1CF82E0BFCF83E0BDCF20915303260F4B
:100B00003327331F21323105ECF42091EB03FC0134
:100B100090E080E0243069F082E00895A0915303D2
:100B20002191AC014D5C5C4FA40FB52FB11D2C93EE
:100B30000196861798F380915303680F60935303CF
:100B400080E0089581E008950895E0918003809108
:100B50007F03E81730F4F0E0EF57FC4F808190E01E
:100B600008958FEF9FEF08959091800380917F0308
:100B70002FEF3FEF981748F4E92FF0E0EF57FC4FC5
:100B8000208130E09F5F90938003C9010895CF9248
:100B9000DF92EF92FF920F931F93CF93DF937C012D
:100BA000CB018A012091F103222389F0EB016B0133
:100BB000C40ED51ECC15DD0569F06991D701ED9104
:100BC000FC910190F081E02DC7011995F3CF642FBE
:100BD0000E947D05C801DF91CF911F910F91FF9079
:100BE000EF90DF90CF900895CF93DF931F92CDB712
:100BF000DEB769832091F1032223F9F020911404D8
:100C0000203258F021E030E0FC013383228390E071
:100C100080E00F90DF91CF9108958091F203E82F4B
:100C2000F0E0ED50FC4F998190838F5F8093F20349
:100C30008093140481E090E0ECCF61E0CE01019656
:100C40000E947D05F7CF0F931F93CF93DF93C82F9B
:100C50008B0181E08093F10380E58093130410926F
:100C6000F2031092140460E089E896E00E94F40513
:100C70006C2F89E896E00E94F405E801015F1F4FA0
:100C8000699189E896E00E94F405C017D107C1F781
:100C900081E0DF91CF911F910F910C948D0490E032
:100CA00080E008952F923F925F926F927F928F9291
:100CB0009F92AF92BF92CF92DF92EF92FF920F93EB
:100CC0001F93CF93DF9300D000D01F921F92CDB718
:100CD000DEB77090A403772009F4CBC0472D072C12
:100CE000000C550BBA0157FF04C066277727641B19
:100CF000750BE4E0F0E06930710511F0F0E0E0E040
:100D00008091A5039091A603DC01A855BC4F5C908F
:100D1000E52CF12C4701062E02C0959487940A9485
:100D2000E2F701E0802299246090A703262D30E0AD
:100D30001C012E0E3F1E5901022C02C0B594A7942F
:100D40000A94E2F711E0A122BB246901082E02C037
:100D5000D594C7940A94E2F7F601E170FF27F8876B
:100D6000EF83FC01349602C035952795EA95E2F7AA
:100D70008901017011271A830983A091A203B09100
:100D8000A30301E010E0F0E0E0E030E020E0FE83CB
:100D9000ED83E830F10530F567010E2E02C0D594E1
:100DA000C7940A94E2F7DC82CB82C0FE02C02F5FB8
:100DB0003F4FE930F10531F4C980DA80CD2811F0D8
:100DC0002F5F3F4F21303105F9F4A130B105D1F447
:100DD000399709F466C021E030E077FECCC030E0FE
:100DE00020E022C0E830F10521F7CF80D884CD285B
:100DF00011F02F5F3F4F2130310539F331960F5FEE
:100E00001F4FC5CF21E030E00A301105B9F7109728
:100E100009F4F5C077FEAFC0232B59F130E020E094
:100E20000AE010E01E830D8312970CF47BC027E0CC
:100E3000270D2F3008F059C0892809F456C0FB014E
:100E4000E554FC4F20812150208388559C4F01E0C0
:100E500010E020E030E06801790104C0CC0CDD1C1A
:100E6000EE1CFF1C6A95D2F7A60140954521FC01B6
:100E7000408328960FB6F894DEBF0FBECDBFDF913A
:100E8000CF911F910F91FF90EF90DF90CF90BF9087
:100E9000AF909F908F907F906F905F903F902F903A
:100EA000089524E030E077FCBFCF21E030E0232B31
:100EB00001F7FA01E554FC4F20812F5F2083F7E012
:100EC000F7150CF068C0F8E07F128AC041E050E0EE
:100ED00060E070E06A017B0104C0CC0CDD1CEE1CFC
:100EE000FF1C8A95D2F7C60179C0683071050CF4F1
:100EF000C0CFAB2809F4BDCFFB01E554FC4F808186
:100F00008150808381E090E0A0E0B0E004C0880FD1
:100F1000991FAA1FBB1F2A94D2F780958621809320
:100F2000A703A7CFED81FE81E554FC4F40814150DE
:100F300040830D811E81083011057CF488559C4F3B
:100F400041E050E060E070E00D8004C0440F551FA8
:100F5000661F771F0A94D2F788CF280F391F81E0C8
:100F600090E0A0E0B0E004C0880F991FAA1FBB1F4B
:100F70002A95D2F7D2CF2A173B070CF098CFF7E08B
:100F8000F715C4F0892809F074CFFA01E554FC4F35
:100F900020812F5F208388559C4F41E050E060E026
:100FA00070E004C0440F551F661F771F7A94D2F774
:100FB00045295DCFAB2809F05CCFFA01E554FC4F21
:100FC00080818F5F808381E090E0A0E0B0E004C08A
:100FD000880F991FAA1FBB1F2A94D2F786299FCF7B
:100FE0009C012C5F3F4F81E090E0A0E0B0E004C0A6
:100FF000880F991FAA1FBB1F2A95D2F7EFCF77FE44
:10100000BECF232B09F013CF34CF8EBD00000DB41B
:1010100007FEFDCF8EB50895FC0101900020E9F791
:101020003197AF01481B590BBC0185E996E00C9440
:10103000A801CF93DF93EC0160E08E810E949703BB
:1010400061E08E810E94970360E08E810E94970389
:101050008BE891E00197F1F7DF91CF910895CF925E
:10106000DF92EF92FF920F931F93CF93DF936C0168
:101070007C0187E0E80EF11CD0E0C0E0062F10E014
:10108000B8010C2E02C0759567950A94E2F761705D
:10109000F70181917F010E9497032196C430D10509
:1010A00079F7C601DF91CF911F910F91FF90EF90DB
:1010B000DF90CF900C941908CF92DF92EF92FF92BD
:1010C0000F931F93CF93DF93EC01F62E642F8C8147
:1010D0000E9497038D818F3F19F060E00E94970373
:1010E0000F2D10E08F8584FF25C06E0187E0C80EAC
:1010F000D11CF12CE12CB8010E2C02C0759567951E
:101100000A94E2F76170F60181916F010E949703E2
:10111000FFEFEF1AFF0A88E0E816F10461F7CE014D
:10112000DF91CF911F910F91FF90EF90DF90CF90C3
:101130000C941908B80184E0759567958A95E1F7D4
:10114000CE010E942F086F2DCE01DF91CF911F910C
:101150000F91FF90EF90DF90CF900C942F0840E01C
:10116000682F85E996E00C945C0881E00E94AF0846
:101170008BE39FE10197F1F70895FC0144815581CC
:101180006081718185E996E00E94A80185EA92E07C
:101190000E940C0862E370E080E090E00E941B0473
:1011A0000C94B508CF93DF93823029F49091A40674
:1011B00098609093A4068093A8061092A90680E4F4
:1011C0008093AA0680E18093AB0680E58093AC060D
:1011D00061E0809199060E94C50380919A068F3F35
:1011E00019F061E00E94C50361E080919B060E94B6
:1011F000C503C5E9D6E09E01255936408091A40675
:1012000084FD0BC084E090E021962817390744F450
:1012100061E08E810E94C503EECF88E090E0F4CFBC
:101220008BE39DE00197F1F760E0809199060E94C1
:10123000970360E080919B060E94970380919A0635
:101240008F3F19F060E00E9497038091A40684FD0F
:1012500034C063E085E996E00E942F08CBE4D6E431
:10126000CE010197F1F763E085E996E00E942F082F
:101270002197F1F763E085E996E00E942F0883E566
:1012800092E00197F1F762E085E996E00E942F086D
:101290008091A40680620E94AF0884E08093A50636
:1012A0008CE00E94AF080E94B50882E08093A606F9
:1012B00086E0DF91CF910C94AF0880620E94AF0866
:1012C0008BE496E40197F1F78091A40680620E9476
:1012D000AF0883E592E00197F1F78091A406806260
:1012E0000E94AF08D5CFE091A806E23040F4E1506B
:1012F000F0E0EB56F94F848980680C94AF08E1E088
:10130000F7CF41E00E945C0881E090E00895FC0185
:1013100080819181009711F00C94061308950F932A
:101320001F93CF93DF93EC0188819981009759F047
:101330002A813B812617370730F081E0DF91CF917A
:101340001F910F9108958B016F5F7F4F0E948F1344
:10135000009759F0998388831B830A832C813D81F0
:10136000232B59F7FC011082E8CF80E0E7CFEF9202
:10137000FF920F931F93CF93DF93EC017B018A01C0
:10138000BA010E948F0928813981811114C0211569
:10139000310519F0C9010E940613198218821D82B5
:1013A0001C821B821A82CE01DF91CF911F910F9177
:1013B000FF90EF9008951D830C83B701C9010E942F
:1013C0007914F1CFFC0111821082138212821582EE
:1013D0001482FB0101900020E9F73197AF01461B11
:1013E000570B0C94B70985ED8093BC008091ED03F9
:1013F0009091EE03A091EF03B091F0030796A11D29
:10140000B11D23E0B695A795979587952A95D1F7B5
:101410002091BC0024FD03C01092EB03089540917D
:10142000ED035091EE036091EF037091F003452BB3
:10143000462B472B69F30097A105B10541F025E341
:101440002A95F1F700000197A109B109E1CF809138
:10145000EC030C944E041F920F920FB60F921124BE
:101460000BB60F922F933F934F935F936F937F939E
:101470008F939F93AF93BF93EF93FF9385E194E096
:101480000E945302FF91EF91BF91AF919F918F9175
:101490007F916F915F914F913F912F910F900BBE74
:1014A0000F900FBE0F901F9018951F920F920FB6BE
:1014B0000F9211240BB60F922F933F934F935F938C
:1014C0006F937F938F939F93AF93BF93EF93FF930C
:1014D00085E194E00E94D501FF91EF91BF91AF911A
:1014E0009F918F917F916F915F914F913F912F913C
:1014F0000F900BBE0F900FBE0F901F9018951F926C
:101500000F920FB60F9211240BB60F922F933F93A9
:101510004F935F936F937F938F939F93AF93BF93FB
:10152000EF93FF9382EB94E00E945302FF91EF91BF
:10153000BF91AF919F918F917F916F915F914F91EB
:101540003F912F910F900BBE0F900FBE0F901F90E9
:1015500018951F920F920FB60F9211240BB60F928F
:101560002F933F934F935F936F937F938F939F93AB
:10157000AF93BF93EF93FF9382EB94E00E94D5016A
:10158000FF91EF91BF91AF919F918F917F916F915B
:101590005F914F913F912F910F900BBE0F900FBE17
:1015A0000F901F9018951F920F920FB60F92112453
:1015B0000BB60F922F933F934F935F936F937F934D
:1015C0008F939F93AF93BF93EF93FF938FE495E037
:1015D0000E945302FF91EF91BF91AF919F918F9124
:1015E0007F916F915F914F913F912F910F900BBE23
:1015F0000F900FBE0F901F9018951F920F920FB66D
:101600000F9211240BB60F922F933F934F935F933A
:101610006F937F938F939F93AF93BF93EF93FF93BA
:101620008FE495E00E94D501FF91EF91BF91AF91BA
:101630009F918F917F916F915F914F913F912F91EA
:101640000F900BBE0F900FBE0F901F9018951F921A
:101650000F920FB60F9211240BB60F922F933F9358
:101660004F935F936F937F938F939F93AF93BF93AA
:10167000EF93FF938CEE95E00E945302FF91EF9160
:10168000BF91AF919F918F917F916F915F914F919A
:101690003F912F910F900BBE0F900FBE0F901F9098
:1016A00018951F920F920FB60F9211240BB60F923E
:1016B0002F933F934F935F936F937F938F939F935A
:1016C000AF93BF93EF93FF938CEE95E00E94D5010B
:1016D000FF91EF91BF91AF919F918F917F916F910A
:1016E0005F914F913F912F910F900BBE0F900FBEC6
:1016F0000F901F9018951F920F920FB60F92112402
:101700002F933F938F939F93AF93BF9380917703D2
:1017100090917803A0917903B0917A033091760388
:1017200023E0230F2D3758F50196A11DB11D2093FD
:1017300076038093770390937803A0937903B09313
:101740007A0380917B0390917C03A0917D03B091FB
:101750007E030196A11DB11D80937B0390937C03B2
:10176000A0937D03B0937E03BF91AF919F918F9122
:101770003F912F910F900FBE0F901F90189526E864
:10178000230F0296A11DB11DD2CF1F920F920FB64B
:101790000F9211240BB60F922F933F934F935F93A9
:1017A0006F937F938F939F93AF93BF93EF93FF9329
:1017B0008091B900887F803609F44DC008F040C0A0
:1017C000883209F4A7C028F5803109F49BC0C8F419
:1017D000882309F4F7C0883009F494C0FF91EF9191
:1017E000BF91AF919F918F917F916F915F914F9139
:1017F0003F912F910F900BBE0F900FBE0F901F9037
:101800001895883109F486C0803241F78093E90346
:1018100014C0803409F49BC040F48033B9F388339A
:10182000E9F68093E90385ECAEC0803509F483C006
:10183000883509F494C0883489F60E94F309CECF24
:10184000883909F48AC038F5883729F050F4883689
:1018500011F0803719F683E08093EB031092750343
:1018600055C0883809F479C0803919F0803809F0FA
:10187000B5CF80917503803208F06FC0E091750399
:1018800081E08E0F809375038091BB00F0E0EB5AEE
:10189000FC4F80833BC0803B39F0D0F4803A09F4A0
:1018A00077C0883A09F09ACF84E08093EB031092D6
:1018B000540310925303F0E0E0E019958091530334
:1018C00081110FC081E0809353031092330309C04C
:1018D000803C09F4A8CF883C09F4A5CF883B09F0E7
:1018E0007DCFE091540381E08E0F80935403F0E0AC
:1018F000ED5CFC4F80818093BB00909154038091FC
:10190000530329C08091C6038093BB0085EC80936C
:10191000BC0064CF9091E8038091E703981758F5D5
:10192000E091E80381E08E0F8093E803F0E0E95353
:10193000FC4F8081E9CFE091E80381E08E0F809336
:10194000E8038091BB00F0E0E953FC4F8083909165
:10195000E8038091E7039817C8F285E8D8CFE091B3
:10196000E80381E08E0F8093E8038091BB00F0E0F4
:10197000E953FC4F80838091EA0381115ECF81E0BF
:101980008093C50384EA8093BC001092EB0326CFBA
:1019900085EC8093BC001092EB038091750380323C
:1019A00030F4E0917503F0E0EB5AFC4F1082609147
:1019B000750370E085E593E0F0E0E0E019951092A2
:1019C00075030CCF1092E90338CF1F920F920FB618
:1019D0000F9211240F900FBE0F901F901895E5E104
:1019E000F4E01382128288EE93E0A0E0B0E08483FA
:1019F0009583A683B78329E732E03183208345E3CB
:101A000051E05587448744E351E05787468740E3D8
:101A100051E0518B408B41E351E0538B428B42E3C9
:101A200051E0558B448B46E351E0578B468B118E2A
:101A3000128E138E148EE2EBF4E0138212828483F2
:101A40009583A683B7833183208345ED50E0558786
:101A5000448744ED50E05787468740ED50E0518B76
:101A6000408B41ED50E0538B428B42ED50E0558B63
:101A7000448B46ED50E0578B468B118E128E138EA1
:101A8000148EEFE4F5E01382128284839583A6839B
:101A9000B783318320834DEC50E0558744874CEC6D
:101AA00050E05787468748EC50E0518B408B49EC1B
:101AB00050E0538B428B4AEC50E0558B448B4EECFC
:101AC00050E0578B468B118E128E138E148EECEED7
:101AD000F5E01382128284839583A683B7833183D2
:101AE000208325EC30E03587248724EC30E03787ED
:101AF000268720EC30E0318B208B21EC30E0338BDB
:101B0000228B22EC30E0358B248B26EC30E0378BB7
:101B1000268B118E128E138E148EE9E8F6E0138256
:101B2000128284839583A683B7838BE892E09183A6
:101B30008083E5E9F6E0138212828DE992E09183D9
:101B4000808388E084838FEF858389E086838AE0C1
:101B500087838BE080878CE081878DE08287138686
:101B6000148615861686178681E00C94D208CF93CA
:101B7000DF93CDB7DEB7AD970FB6F894DEBF0FBEDB
:101B8000CDBF789484B5826084BD84B5816084BD06
:101B900085B5826085BD85B5816085BD80916E000B
:101BA000816080936E00109281008091810082603C
:101BB0008093810080918100816080938100809179
:101BC00080008160809380008091B1008460809368
:101BD000B1008091B00081608093B000809191004D
:101BE0008260809391008091910081608093910048
:101BF000809190008160809390008091A10082602C
:101C00008093A1008091A10081608093A1008091C8
:101C1000A00081608093A000809121018260809368
:101C20002101809121018160809321018091200117
:101C300081608093200180917A00846080937A0093
:101C400080917A00826080937A0080917A0081602E
:101C500080937A0080917A00806880937A00109255
:101C6000C1008FE495E00E947A018CEE95E00E941D
:101C70007A0182EB94E00E947A0185E194E00E946F
:101C80007A0161E083E00E94C50361E084E00E9484
:101C9000C50360E082E00E94C50360E085E00E9429
:101CA000C50360E086E00E94C50360E083E00E9417
:101CB000970360E084E00E94970360E082E00E9466
:101CC000970360E085E00E94970360E086E00E9451
:101CD000970361E085E30E94970381E08093F1031D
:101CE00080E5809313041092F2031092140460E0D4
:101CF00089E896E00E94F40560E089E896E00E9499
:101D0000F40581E00E948D040E94F6036B017C01C2
:101D10008091EB03811165C081E08093EB03809398
:101D2000EA039FEF9093E9031092E8039EE09093FB
:101D3000E7038093C6038091C603806A8093C6033D
:101D40008091C503813009F03BC21092C5030E9407
:101D5000F6036B017C018091C6038093BB008091E8
:101D6000ED039091EE03A091EF03B091F003892B66
:101D70008A2B8B2BA1F00E94F6030091ED031091AA
:101D8000EE032091EF033091F0036C197D098E0969
:101D90009F09061717072807390708F443C08091E1
:101DA000BC0083FDD8CF85EC8093BC000E94F60375
:101DB0006B017C018091EB03813009F403C28091B7
:101DC000E8031FE08F3010F41091E803E7ECF3E034
:101DD000A1E8B3E080E0811751F191919D938F5F6D
:101DE000FACF8091ED039091EE03A091EF03B091B3
:101DF000F003892B8A2B8B2B09F48ACF0E94F603E0
:101E00000091ED031091EE032091EF033091F00368
:101E10006C197D098E099F090617170728073907CE
:101E200008F076CF8091EC030E944E0410E01092EF
:101E3000800310937F03BCEAEB2EB3E0FB2E80916E
:101E40008003181731F089E896E00E94B405F70185
:101E50008083FFEFEF1AFF0A8BEBE81683E0F806AA
:101E600071F7ECEAF3E081918F3F19F4DF011197EC
:101E70001C92EE16FF06B9F786EB93E0ABEBB3E0EE
:101E8000ECEAF3E021912D938E179F07D9F780910B
:101E9000B6038093A8038091B7038093A903809130
:101EA000B8038093AA038091B9038093AB03809118
:101EB000BA038093A70382E00E94D20888EA92E0E6
:101EC0000E940C080E94730987EB92E00E940C08A4
:101ED00064E670E080E090E00E941B040E94B50878
:101EE00065EC72E08E010F5F1F4FC8010E94E2098E
:101EF000C8010E94BD08C8010E94870982E00E94B3
:101F00006E03892B09F480C185E00E946E03813045
:101F1000910539F086E00E946E03019731F486E066
:101F200090E09093A3038093A2038091A2039091E9
:101F3000A3031BA21AA21DA21CA21FA21EA24AE05A
:101F4000B8010E94E311F80101900020E9F73197F0
:101F5000AF01401B510BB801CE0182960E94B70918
:101F600065ED72E0CE0188960E94E2098EA19FA1E4
:101F7000CAA0DBA0ECA4FDA4E80EF91EC114D10494
:101F800009F44FC1892B99F0B701CE0188960E94C0
:101F90008F09882309F445C128A539A58CA59DA5DD
:101FA000B601820F931F0E947914FDA6ECA61A8237
:101FB00019821C821B821E821D8268A579A561156B
:101FC000710529F04CA55DA5C8010E94B709C8019B
:101FD0000E94BD08C8010E948709CE0188960E9410
:101FE0008709CE0182960E9487098CEE95E00E94B7
:101FF0007A01FFB6F8948091A103811127C0EBE725
:10200000F2E08491E5E3F2E09491E82FF0E0EE0F46
:10201000FF1FEA51FE4FA591B491EC91E92321F401
:1020200061E085E30E94970361E085E30E94C503B8
:102030008CB580618CBD8CB580648CBD61E084E31F
:102040000E94C50361E083E30E94C5038091A10360
:102050008F5F8093A103FFBE8CB58C7F81608CBDA8
:102060008DB581608DBD60E085E30E94970380910E
:10207000A2039091A303009709F0E0C061E5E62E6A
:1020800062E0F62E75E7C72E72E0D72EF701819138
:102090007F010E9405086AE070E080E090E00E9405
:1020A0001B04CE14DF0491F78DED92E00E940C0822
:1020B0000E9473098EEE92E00E940C0864E670E0C4
:1020C00080E090E00E941B040E94B5086CEF72E073
:1020D000C8010E94E209C8010E94BD08C8010E940F
:1020E00087095E0180E1A80EB11C95EC892E93E072
:1020F000992E2AE0422E512C612C712C34E0232E93
:10210000312C82E00E946E03019709F0C7C061E0A4
:1021100083E00E94970361E084E00E94970362E3FA
:1021200070E080E090E00E941B0460E083E00E9489
:10213000970360E084E00E9497038BE093E00E94A5
:102140000C080E9473098CEBC82E83E0D82EF60190
:1021500021916F0130E050E040E019A27E01F1E2F0
:10216000EF0EF11CCA01B901A30192010E942C12C9
:10217000605DF70162937F0121153105410551052D
:1021800089F7309719F0CF010E940C088C149D0438
:10219000F1F664E670E080E090E00E941B040E948B
:1021A000B5088091A5039091A6030196B1010E9404
:1021B00018129093A6038093A5030E94E202A1CF78
:1021C00085EEF2CD8091ED039091EE03A091EF03A7
:1021D000B091F003892B8A2B8B2B09F4EBCD0E9455
:1021E000F6030091ED031091EE032091EF0330917F
:1021F000F0036C197D098E099F0906171707280738
:10220000390708F0D7CD0ECE85E00E946E03892BEA
:1022100009F07ACE86E00E946E03892B09F46ECE17
:1022200073CE88A599A5009711F00E94061319A6F0
:1022300018A61DA61CA61BA61AA6B9CE813091050C
:10224000A9F453E3E52E52E0F52EF70181917F01C9
:102250000E9405086AE070E080E090E00E941B04A4
:10226000F1E5EF16F2E0FF0681F71ECF02970CF4BE
:102270001BCF46E0E42E42E0F42EF70181917F016E
:102280000E9405086AE070E080E090E00E941B0474
:10229000F3E3EF16F2E0FF0681F706CF85E00E9438
:1022A0006E03ACEAB3E0EBEBF3E00197E1F086E01C
:1022B0000E946E03019709F047C0F8011192AE1613
:1022C000BF06E1F7B80180E00E94230661E273E0F7
:1022D000CE0182960E94E209CE0182960E94BD083C
:1022E000CE01829628C081918D9383E0E53CF8076A
:1022F000D1F78091A8038093B6038091A9038093BE
:10230000B7038091AA038093B8038091AB038093B5
:10231000B9038091A7038093BA036CEA73E080E06D
:102320000E94230665E173E0C8010E94E209C8012A
:102330000E94BD08C8010E94870964E670E080E041
:1023400090E00E941B042DCF8091A5039091A603DD
:102350008130910521F19CF4892B09F022CF8CEE7C
:1023600095E00E941F02892B09F41BCF8CEE95E0AB
:102370000E94FD018093A4030E94520612CF823076
:102380009105B9F0039709F00CCF8FE495E00E9416
:102390001F02892B09F405CF8FE495E0E9CF85E191
:1023A00094E00E941F02892B09F4FBCE85E194E0A2
:1023B000DFCF82EB94E00E941F02892B09F4F1CE5B
:1023C00082EB94E0D5CFBB274A3031F4992322F435
:1023D000BDE2909581959F4F0C94EF11BB27FB01B7
:1023E0005527AA27880F991FAA1FA41710F0A41B0E
:1023F00083955051B9F7A05DAA3308F0A95DA19368
:10240000009779F7B111B1931192CB010C94081296
:10241000DC01FC01672F71917723E1F7329704C04B
:102420007C916D9370836291AE17BF07C8F30895D6
:1024300097FB072E16F4009407D077FD09D00E9471
:10244000561207FC05D03EF4909581959F4F089554
:10245000709561957F4F0895A1E21A2EAA1BBB1BB0
:10246000FD010DC0AA1FBB1FEE1FFF1FA217B30760
:10247000E407F50720F0A21BB30BE40BF50B661F76
:10248000771F881F991F1A9469F76095709580953A
:1024900090959B01AC01BD01CF010895EE0FFF1F88
:1024A000881F8BBF0790F691E02D1994AA1BBB1BC8
:1024B00051E107C0AA1FBB1FA617B70710F0A61B44
:1024C000B70B881F991F5A95A9F780959095BC0165
:1024D000CD0108950F931F93CF93DF938230910521
:1024E00010F482E090E0E091AF06F091B00630E0A9
:1024F00020E0B0E0A0E0309799F42115310509F40F
:102500004AC0281B390B24303105D8F58A819B81BC
:102510006115710589F1FB0193838283FE0111C06E
:10252000408151810281138148175907E0F0481713
:10253000590799F4109761F012960C93129713961D
:102540001C933296CF01DF91CF911F910F91089587
:102550000093AF061093B006F4CF2115310551F06A
:102560004217530738F0A901DB019A01BD01DF01D1
:10257000F801C1CFEF01F9CF9093B0068093AF0679
:10258000CDCFFE01E20FF31F8193919322503109C9
:1025900039832883D7CF2091AD063091AE06232B07
:1025A00041F420910202309103023093AE06209351
:1025B000AD0620910002309101022115310541F450
:1025C0002DB73EB74091040250910502241B350BF4
:1025D000E091AD06F091AE06E217F307A0F42E1BD2
:1025E0003F0B2817390778F0AC014E5F5F4F241777
:1025F000350748F04E0F5F1F5093AE064093AD066F
:10260000819391939FCFF0E0E0E09CCFCF93DF9355
:102610000097E9F0FC01329713821282A091AF0675
:10262000B091B006ED0130E020E01097A1F42081D8
:102630003181820F931F2091AD063091AE0628178D
:10264000390709F061C0F093AE06E093AD06DF9163
:10265000CF910895EA01CE17DF07E8F54A815B8143
:102660009E0141155105B1F7E901FB83EA834991C8
:102670005991C40FD51FEC17FD0761F4808191813A
:102680000296840F951FE901998388838281938143
:102690009B838A83F0E0E0E012968D919C911397E2
:1026A0000097B9F52D913C911197CD010296820FBB
:1026B000931F2091AD063091AE062817390739F6E1
:1026C000309751F51092B0061092AF06B093AE0657
:1026D000A093AD06BCCFD383C28340815181840FC8
:1026E000951FC817D90761F44E5F5F4F88819981A4
:1026F000480F591F518340838A819B819383828332
:102700002115310509F0B0CFF093B006E093AF0684
:102710009ECFFD01DC01C0CF13821282D7CF4F9232
:102720005F926F927F928F929F92AF92BF92CF9261
:10273000DF92EF92FF920F931F93CF93DF938C0161
:10274000009799F4CB01DF91CF911F910F91FF90EA
:10275000EF90DF90CF90BF90AF909F908F907F9041
:102760006F905F904F900C946A12FC01E60FF71F78
:102770009C0122503109E217F30708F4AEC0D901D9
:10278000CD91DC911197C617D70720F1C530D1053F
:1027900078F0CE0104978617970750F0C61BD70B29
:1027A0002297C193D1936D937C93CF010E9406131E
:1027B000C801DF91CF911F910F91FF90EF90DF90B3
:1027C000CF90BF90AF909F908F907F906F905F90D1
:1027D0004F9008955B01AC1ABD0A4C018C0E9D1EF2
:1027E000A091AF06B091B006512C412CF12CE12CF8
:1027F000109731F58091AD069091AE068815990538
:1028000009F05CC04616570608F058C080910002D7
:1028100090910102009741F48DB79EB74091040258
:1028200050910502841B950BE817F90708F055C075
:10283000F093AE06E093AD06F90171836083B8CFE3
:102840008D919C91119712966C90129713967C9093
:102850001397A815B90559F56C0142E0C40ED11CB7
:10286000CA14DB0420F1AC014A195B09DA011296A3
:10287000159780F06282738251834083D9016D93F2
:102880007C93E114F10471F0D7011396FC93EE935D
:1028900012978ECF22968C0F9D1FF9019183808312
:1028A000F301EFCFF093B006E093AF0681CF481667
:1028B000590608F42C017D01D3019ACFCB010E9467
:1028C0006A127C01009749F0AE01B8010E947014B1
:1028D000C8010E94061387016BCF10E000E068CFAB
:1028E000FB01DC0102C001900D9241505040D8F72D
:1028F0000895FB01DC0101900D920020E1F708959D
:10290000F894FFCF0000B10680007472756D7028D6
:10291000313D3C783C3D3329626964656E28343C26
:102920003D783C3D36296265726E696528373C3DCD
:10293000783C3D392921007472756D7028313D3C19
:10294000783C3D3429626964656E28353C3D783CAD
:102950003D392921007472756D7028313031303164
:10296000303130313029626964656E283031303160
:10297000303130313031292100000000007502A8CB
:1029800001EE01C2021F02FD01110200000000F46D
:1029900005C7054F06A405A101B405A50500000063
:1029A000008109A8014F064D040D0A0070696E32BE
:1029B00020666F72206D756C74690070696E3520C9
:1029C000666F7220736F6C6F0070696E3620666F71
:1029D00072206D756C746936006D6F646520697363
:1029E0000070696E3220666F7220726573756C7448
:1029F000730070696E3520666F72207361766500B2
:102A000070696E3620666F7220726573657400316E
:102A1000323334353637383900646F6E6520736170
:102A200076696E6700646F6E6520726573657469A0
:042A30006E670000CD
:10E000000D9489F10D94B2F10D94B2F10D94B2F129
:10E010000D94B2F10D94B2F10D94B2F10D94B2F1F0
:10E020000D94B2F10D94B2F10D94B2F10D94B2F1E0
:10E030000D94B2F10D94B2F10D94B2F10D94B2F1D0
:10E040000D94B2F10D94B2F10D94B2F10D94B2F1C0
:10E050000D94B2F10D94B2F10D94B2F10D94B2F1B0
:10E060000D94B2F10D94B2F10D94B2F10D94B2F1A0
:10E070000D94B2F10D94B2F10D94B2F10D94B2F190
:10E080000D94B2F10D94B2F10D94B2F10D94B2F180
:10E090000D94B2F10D94B2F10D94B2F10D94B2F170
:10E0A0000D94B2F10D94B2F10D94B2F10D94B2F160
:10E0B0000D94B2F10D94B2F10D94B2F10D94B2F150
:10E0C0000D94B2F10D94B2F10D94B2F10D94B2F140
:10E0D0000D94B2F10D94B2F10D94B2F10D94B2F130
:10E0E0000D94B2F141546D656761323536300041AF
:10E0F000726475696E6F206578706C6F72657220DE
:10E1000073746B3530305632206279204D4C530099
:10E11000426F6F746C6F616465723E004875683F52
:10E1200000436F6D70696C6564206F6E203D200048
:10E130004350552054797065202020203D20005FF9
:10E140005F4156525F415243485F5F3D2000415658
:10E1500052204C696243205665723D20004743437C
:10E160002056657273696F6E203D20004350552024
:10E1700049442020202020203D20004C6F7720663D
:10E18000757365202020203D20004869676820665F
:10E190007573652020203D200045787420667573D6
:10E1A00065202020203D20004C6F636B2066757336
:10E1B000652020203D20004D617220203720323024
:10E1C000313300312E362E3800342E332E350056A2
:10E1D00023202020414444522020206F7020636F70
:10E1E00064652020202020696E73747275637469E1
:10E1F0006F6E2061646472202020496E74657272B3
:10E20000757074006E6F20766563746F7200726A49
:10E210006D702020006A6D70200057686174207056
:10E220006F72743A00506F7274206E6F7420737541
:10E2300070706F72746564004D7573742062652030
:10E2400061206C6574746572002000577269747483
:10E25000696E672045450052656164696E672045B7
:10E26000450045452065727220636E743D00504F35
:10E27000525400303D5A65726F2061646472003FF1
:10E280003D43505520737461747300403D454550C3
:10E29000524F4D207465737400423D426C696E6B41
:10E2A000204C454400453D44756D70204545505215
:10E2B0004F4D00463D44756D7020464C415348001B
:10E2C000483D48656C70004C3D4C69737420492F83
:10E2D0004F20506F72747300513D51756974005234
:10E2E0003D44756D702052414D00563D73686F7707
:10E2F00020696E7465727275707420566563746FF0
:10E30000727300593D506F727420626C696E6B00BD
:10E310002A0011241FBECFEFD1E2DEBFCDBF01E046
:10E320000CBF12E0A0E0B2E0EEE1FDEF03E00BBFB6
:10E3300002C007900D92A030B107D9F712E0A0E01B
:10E34000B2E001C01D92AE30B107E1F70F9460F367
:10E350000D948DFE01E20EBF0FEF0DBF11241FBE05
:10E360000D9460F30D9400F020E030E040ED57E0B4
:10E3700005C0FA013197F1F72F5F3F4F2817390792
:10E38000C0F308959C01260F311DC901A0E0B0E043
:10E390002F5F3F4FABBFFC018791882361F08093D3
:10E3A000C6008091C00086FFFCCF8091C0008064D1
:10E3B0008093C000EACF08958DE08093C6008091DD
:10E3C000C00086FFFCCF8091C00080648093C000B5
:10E3D0008AE08093C6008091C00086FFFCCF8091C8
:10E3E000C00080648093C00008950F94C2F10F9420
:10E3F000DCF10895FC019081992359F09093C600B7
:10E400008091C00086FFFCCF8091C0008064809323
:10E41000C0003196992379F70895282F982F929567
:10E420009F70892F805D8A3308F0895F8093C600D2
:10E430008091C00086FFFCCF8091C00080648093F3
:10E44000C000822F8F70982F905D9A3308F0995FEB
:10E450009093C6008091C00086FFFCCF8091C000E1
:10E4600080648093C00008959C01FB01853691056E
:10E470001CF46330710594F0C90164E670E00F94F8
:10E480002EFE605D7F4F6093C6008091C00086FFC6
:10E49000FCCF8091C00080648093C0002B30310598
:10E4A00014F43297B4F0C90164E670E00F942EFEC4
:10E4B0006AE070E00F942EFE605D7F4F6093C600AF
:10E4C0008091C00086FFFCCF8091C0008064809363
:10E4D000C000C9016AE070E00F942EFEC0968093E0
:10E4E000C6008091C00086FFFCCF8091C000806490
:10E4F0008093C00008951F93182F8EE692EE60E07F
:10E500000F94C2F11093C6008091C00086FFFCCF2B
:10E510008091C00080648093C0000F94DCF11F9153
:10E5200008952F923F924F925F926F927F928F92B7
:10E530009F92AF92BF92CF92DF92EF92FF920F9392
:10E540001F93DF93CF93CDB7DEB762970FB6F894E2
:10E55000DEBF0FBECDBF382E622ECA01DB015C01CB
:10E560006D01772420E2222E2E010894411C511CBB
:10E570008BC081E0A81680E0B80681E0C80680E084
:10E58000D80628F0C601AA27BB270F940DF2BB2797
:10E59000AD2D9C2D8B2D0F940DF28A2D0F940DF225
:10E5A0002092C6008091C00086FFFCCF8091C00001
:10E5B00080648093C0009DE29093C6008091C0006B
:10E5C00086FFFCCF8091C00080648093C0002092C1
:10E5D000C6008091C00086FFFCCF8091C00080649F
:10E5E0008093C00019828601750188249924A1E0D6
:10E5F0003A1651F03A1620F0B2E03B1661F409C029
:10E600000BBFF701779007C0C7010F9477FE782EF4
:10E6100002C0F7017080872D0F940DF22092C60082
:10E620008091C00086FFFCCF8091C0008064809301
:10E63000C000872D8052F401EF70F0708F3520F408
:10E64000E40DF51D708204C0E40DF51D8EE280839B
:10E650000894E11CF11C011D111D0894811C911CE2
:10E6600090E18916910409F0C2CF80E190E0A0E02A
:10E67000B0E0A80EB91ECA1EDB1E198AC2010F9493
:10E68000FAF10F94DCF16A94662009F072CF629679
:10E690000FB6F894DEBF0FBECDBFCF91DF911F91B3
:10E6A0000F91FF90EF90DF90CF90BF90AF909F9031
:10E6B0008F907F906F905F904F903F902F90089534
:10E6C0002F923F924F925F926F927F928F929F9282
:10E6D000AF92BF92CF92DF92EF92FF920F931F9370
:10E6E000DF93CF93CDB7DEB7CD53D1400FB6F894BB
:10E6F000DEBF0FBECDBF01E20EBF0FEF0DBF94B75F
:10E70000F894A89514BE80916000886180936000A1
:10E7100010926000789493FF05C0E0910002F091A0
:10E7200001021995279A2F9A8091C00082608093E8
:10E73000C00080E18093C40088E18093C1000000A4
:10E74000EE24FF24870144E0A42EB12CCC24DD2448
:10E7500024C0C5010197F1F70894E11CF11C011DCB
:10E76000111D21E2E2162EE4F20620E0020720E06D
:10E77000120718F031E0C32ED12CC801B70127ECE5
:10E780003BE140E050E00F9441FE611571058105C9
:10E79000910519F485B1805885B98091C00087FD35
:10E7A00003C0C114D104A9F2A6014F5F5F4FC25E3E
:10E7B000DE4F59834883CE51D140C25EDE4F8881FF
:10E7C0009981CE51D140019711F00D9410FEC05D9A
:10E7D000DE4F19821882C053D14060E0C15DDE4F28
:10E7E0001882CF52D14088249924C35DDE4F19820C
:10E7F0001882CD52D140C05EDE4F188219821A8233
:10E800001B82C052D140CE5CDE4F188219821A8220
:10E810001B82C253D140EE24FF2487010BBFF701B6
:10E8200007911691C45CDE4F19830883CC53D14005
:10E830000D940BFEC25EDE4F28813981CE51D1404E
:10E840002130310509F52091C600C25EDE4F1982E4
:10E850001882CE51D14022C02F5F3F4F4F4F5F4FA4
:10E86000213082E138078AE7480780E0580780F0C6
:10E87000C45CDE4FE881F981CC53D140EF5FFF4F9C
:10E8800019F0EE27FF27099420E030E040E050E047
:10E890008091C00087FFE0CF2091C600C35DDE4FAE
:10E8A00048815981CD52D1404F5F5F4FC35DDE4FEC
:10E8B00059834883CD52D140213209F063C64A3092
:10E8C000510508F05FC60894811C911C53E0851621
:10E8D000910409F059C600E010E018C081E280936D
:10E8E000C6008091C00086FFFCCF8091C00080648C
:10E8F0008093C0002F5F3F4F2931310579F70F9486
:10E90000DCF10F5F1F4F0530110519F020E030E0FA
:10E91000E5CF10920A0210920B0210920C02109294
:10E920000D02109206021092070210920802109235
:10E930000902109202021092030210920402109235
:10E9400005028FEE90EE60E00F94F5F180E191EE1C
:10E9500060E00F94C2F18091C00087FFFCCF9091DE
:10E96000C600903608F09F759032B8F09093C600BC
:10E970008091C00086FFFCCF8091C00080648093AE
:10E98000C000A0E2A093C6008091C00086FFFCCF2B
:10E990008091C00080648093C000983409F4D7C18E
:10E9A0009934B8F4923409F459C1933458F490333B
:10E9B00019F1903308F4E3C59F33A1F1903409F0C5
:10E9C000DEC5BDC0953409F470C1963409F0D7C5D1
:10E9D00098C1923509F42BC2933538F49C3409F46C
:10E9E000F5C1913509F0CBC518C2963509F445C279
:10E9F000993509F0C4C567C483E792EE62E00F94CD
:10EA0000F5F110920602109207021092080210927D
:10EA1000090210920A0210920B0210920C0210923C
:10EA20000D0213C18FE792EE62E00F94F5F18FEEC5
:10EA300090EE60E00F94F5F181E291EE60E00F94CA
:10EA4000C2F187EB91EE60E00F94F5F180E391EE77
:10EA500060E00F94C2F184EE90EE60E00F94F5F167
:10EA60008FE391EE60E00F94C2F186E090E061E008
:10EA700070E00F9434F20F94DCF18DE591EE60E0DC
:10EA80000F94C2F189EC91EE60E00F94F5F18EE401
:10EA900091EE60E00F94C2F183EC91EE60E00F9490
:10EAA000F5F18CE691EE60E00F94C2F18EE10F94E7
:10EAB0000DF288E90F940DF281E00F940DF20F949E
:10EAC000DCF18BE791EE60E00F94C2F119E0E0E039
:10EAD000F0E010935700E4918E2F0F940DF20F94F5
:10EAE000DCF18AE891EE60E00F94C2F1E3E0F0E03F
:10EAF00010935700E4918E2F0F940DF20F94DCF1D8
:10EB000089E991EE60E00F94C2F1E2E0F0E0109349
:10EB10005700E4918E2F0F940DF20F94DCF188EAE8
:10EB200091EE60E00F94C2F1E1E0F0E01093570045
:10EB30001491812F0F940DF20F94DCF107CF8BE825
:10EB400092EE62E00F94F5F18BE492EE60E00F94A8
:10EB5000F5F10F94DCF100E010E019C0C8016F2D51
:10EB60000F947FFEFF2031F489E492EE60E00F9471
:10EB7000C2F10BC0F092C6008091C00086FFFCCFAE
:10EB80008091C00080648093C0000F5F1F4FC80158
:10EB900081519F41A0E0B0E0ABBFFC01F790BAE229
:10EBA000FB1621F0E2E000301E07C1F60F94DCF105
:10EBB0000F94DCF187E592EE60E00F94F5F10F948D
:10EBC000DCF1CC24DD2400E010E01EC0C8010F946D
:10EBD00077FEF82E882331F489E492EE60E00F94FA
:10EBE000C2F10BC08093C6008091C00086FFFCCFAD
:10EBF0008091C00080648093C000FE1419F00894D6
:10EC0000C11CD11C0F5F1F4FC80181519F41A0E063
:10EC1000B0E0ABBFFC01E790FAE2EF1621F022E092
:10EC20000030120799F60F94DCF10F94DCF182E6C4
:10EC300092EE60E00F94C2F1C60161E070E00F94C3
:10EC400034F20F94DCF10F94DCF110920202109276
:10EC50000302109204021092050278CE89E992EE26
:10EC600062E00F94F5F1279A2F9A16C02F9880E052
:10EC700090E0E0EDF7E03197F1F7019684369105E9
:10EC8000C1F72F9A80E090E0E0EDF7E03197F1F7DF
:10EC9000019684369105C1F78091C00087FFE6CFC9
:10ECA0008091C00087FFFCCF64C485EA92EE62E0E9
:10ECB0000F94F5F140910202509103026091040219
:10ECC0007091050281E020E10F9491F2809102029F
:10ECD00090910302A0910402B091050280509F4FD1
:10ECE000AF4FBF4F8093020290930302A0930402A0
:10ECF000B093050280509041A040B04008F426CE69
:10ED0000A4CF83EB92EE62E00F94F5F140910602FE
:10ED100050910702609108027091090280E020E1A1
:10ED20000F9491F28091060290910702A09108023F
:10ED3000B091090280509F4FAF4FBF4F80930602A2
:10ED400090930702A0930802B0930902FFCD80ECD4
:10ED500092EE62E00F94F5F183E792EE60E00F949B
:10ED6000F5F18FE792EE60E00F94F5F18BE892EE0B
:10ED700060E00F94F5F189E992EE60E00F94F5F10F
:10ED800085EA92EE60E00F94F5F183EB92EE60E09D
:10ED90000F94F5F180EC92EE60E00F94F5F187ECC2
:10EDA00092EE60E00F94F5F188ED92EE60E00F9442
:10EDB000F5F18FED92EE60E00F94F5F18AEE92EEB0
:10EDC00060E00F94F5F183E093EEBDCD87EC92EE19
:10EDD00062E00F94F5F181E40F947BF282E40F94EA
:10EDE0007BF283E40F947BF284E40F947BF285E45E
:10EDF0000F947BF286E40F947BF287E40F947BF20E
:10EE000088E40F947BF28AE40F947BF28BE40F94F6
:10EE10007BF28CE40F947BF299CD88ED92EE62E068
:10EE20000F94F5F1772473948824992409C48FED05
:10EE300092EE62E00F94F5F140910A0250910B02BC
:10EE400060910C0270910D0282E020E10F9491F22A
:10EE500080910A0290910B02A0910C02B0910D02D8
:10EE600080509F4FAF4FBF4F80930A0290930B0289
:10EE7000A0930C02B0930D0269CD8AEE92EE62E08F
:10EE80000F94F5F184EE90EE60E00F94F5F18FECC5
:10EE900091EE60E00F94F5F1662477244301CC5D98
:10EEA000DE4F19821882C452D140D401C301B695F5
:10EEB000A79597958795CA5DDE4F88839983AA8326
:10EEC000BB83C652D140CC5DDE4FA881B981C4520C
:10EED000D1401196CC5DDE4FB983A883C452D14096
:10EEE000CD0162E070E00F9434F2B0E2B093C6005E
:10EEF0008091C00086FFFCCF8091C0008064809329
:10EF0000C000EDE2E093C6008091C00086FFFCCF18
:10EF10008091C00080648093C000F0E2F093C6004E
:10EF20008091C00086FFFCCF8091C00080648093F8
:10EF3000C000CA5DDE4FE880F9800A811B81C6529D
:10EF4000D140BB27A12F902F8F2D0F940DF2CA5DBA
:10EF5000DE4F8881C652D1400F940DF2B0E2FB2EF5
:10EF6000F092C6008091C00086FFFCCF8091C00067
:10EF700080648093C0000DE30093C6008091C000C0
:10EF800086FFFCCF8091C00080648093C00010E2B7
:10EF90001093C6008091C00086FFFCCF8091C00016
:10EFA00080648093C0008BBEF3012791C65DDE4F65
:10EFB0002883CA52D140A22EBB24CC24DD2408943D
:10EFC000611C711C811C911C8BBEF3018791282E42
:10EFD0003324442455240894611C711C811C911C09
:10EFE0008BBEF3013791C55DDE4F3883CB52D140E4
:10EFF0000894611C711C811C911C8BBEF30147910C
:10F00000C45DDE4F4883CC52D140ADEFEA2EAFEF66
:10F01000FA2EAFEF0A2FAFEF1A2F6E0C7F1C801E57
:10F02000911E142D032DF22CEE24EA0CFB1C0C1D5A
:10F030001D1D0F940DF220E22093C6008091C000A8
:10F0400086FFFCCF8091C00080648093C000C65DC5
:10F05000DE4F8881CA52D1400F940DF230E23093D6
:10F06000C6008091C00086FFFCCF8091C000806404
:10F070008093C000C45DDE4F8881CC52D1400F9494
:10F080000DF240E24093C6008091C00086FFFCCFA5
:10F090008091C00080648093C000C55DDE4F888190
:10F0A000CB52D1400F940DF250E25093C6008091A4
:10F0B000C00086FFFCCF8091C00080648093C000B8
:10F0C0008FEFE8168FEFF80680E0080780E018075A
:10F0D00031F484E092EE60E00F94C2F1DFC0D80119
:10F0E000C7018070907CA070B0708050904CA040A0
:10F0F000B040D1F52FEF3FE340E050E0E222F322B1
:10F1000004231523CA5DDE4FA880B980CA80DB8046
:10F11000C652D140AE0CBF1CC01ED11EAA0CBB1CD7
:10F12000CC1CDD1C8EE092EE60E00F94C2F1BB2798
:10F13000A12F902F8F2D0F940DF28E2D0F940DF285
:10F1400030E23093C6008091C00086FFFCCF8091F2
:10F15000C00080648093C0004EE34093C60080915D
:10F16000C00086FFFCCF87C08EE09EEFA0E0B0E03D
:10F17000E822F9220A231B239CE0E91694E9F90608
:10F1800090E0090790E0190709F088C0C45DDE4FE0
:10F19000A881CC52D140EA2EFF2400E010E0102FCD
:10F1A0000F2DFE2CEE24C55DDE4FB881CB52D14031
:10F1B000EB0EF11C011D111DD601C501817090706F
:10F1C000A070B070DC0199278827E80EF91E0A1F8D
:10F1D0001B1F20EF30E040E050E0A222B322C42207
:10F1E000D52241E1AA0CBB1CCC1CDD1C4A95D1F7F1
:10F1F000EA0CFB1C0C1D1D1D81E090E0A0E0B0E0BE
:10F20000282239224A225B2235E1220C331C441C7D
:10F21000551C3A95D1F7E20CF31C041D151D57013E
:10F220006801AA0CBB1CCC1CDD1C85E192EE60E0E1
:10F230000F94C2F1C801AA27BB270F940DF2BB2778
:10F24000A12F902F8F2D0F940DF28E2D0F940DF274
:10F2500090E29093C6008091C00086FFFCCF809121
:10F26000C00080648093C000AEE3A093C60080918C
:10F27000C00086FFFCCF8091C00080648093C000F6
:10F28000C601AA27BB270F940DF2BB27AD2D9C2DDD
:10F290008B2D0F940DF28A2D0F940DF20F94DCF14B
:10F2A000CC5DDE4FE881F981C452D140F99709F471
:10F2B0004DCBF4E0EF2EF12C012D112D6E0C7F1CA7
:10F2C000801E911EF2CD83E093EE62E00F94F5F183
:10F2D0008AE192EE60E00F94C2F18091C00087FF56
:10F2E000FCCF1091C6001F751093C6008091C0001E
:10F2F00086FFFCCF8091C00080648093C0000F9493
:10F30000DCF1812F81548A3108F036C1163409F4BA
:10F3100095C0173490F4133409F44EC0143430F40B
:10F320001134F1F0123409F01DC130C0143409F465
:10F3300059C0153409F016C16BC01A3409F4C4C0A1
:10F340001B3438F4173409F48FC0183409F00AC19B
:10F35000A1C01B3409F4D2C01C3409F003C1E8C0B9
:10F360008FEF81B90DC082B1809582B980E090E0C5
:10F37000E0EDF7E03197F1F70196883C9105C1F790
:10F380008091C00087FFEFCF12B8EFC08FEF84B934
:10F390000DC085B1809585B980E090E0E0EDF7E0A3
:10F3A0003197F1F70196883C9105C1F78091C00033
:10F3B00087FFEFCF15B8D9C08FEF87B90DC088B1DF
:10F3C000809588B980E090E0E0EDF7E03197F1F7C3
:10F3D0000196883C9105C1F78091C00087FFEFCF6F
:10F3E00018B8C3C08FEF8AB90DC08BB180958BB9A7
:10F3F00080E090E0E0EDF7E03197F1F70196883C8E
:10F400009105C1F78091C00087FFEFCF1BB8ADC059
:10F410008FEF8DB90DC08EB180958EB980E090E0F0
:10F42000E0EDF7E03197F1F70196883C9105C1F7DF
:10F430008091C00087FFEFCF1EB897C08FEF80BBD1
:10F440000DC081B3809581BB80E090E0E0EDF7E0F6
:10F450003197F1F70196883C9105C1F78091C00082
:10F4600087FFEFCF11BA81C08FEF83BB0DC084B38C
:10F47000809584BB80E090E0E0EDF7E03197F1F714
:10F480000196883C9105C1F78091C00087FFEFCFBE
:10F4900014BA6BC08FEF809301010FC080910201FD
:10F4A00080958093020180E090E0E0EDF7E03197F5
:10F4B000F1F70196883C9105C1F78091C00087FF64
:10F4C000EDCF1092020151C08FEF809304010FC065
:10F4D0008091050180958093050180E090E0E0ED4A
:10F4E000F7E03197F1F70196883C9105C1F78091DB
:10F4F000C00087FFEDCF1092050137C08FEF8093DA
:10F5000007010FC08091080180958093080180E079
:10F5100090E0E0EDF7E03197F1F70196883C910536
:10F52000C1F78091C00087FFEDCF109208011DC088
:10F530008FEF80930A010FC080910B01809580931B
:10F540000B0180E090E0E0EDF7E03197F1F70196F4
:10F55000883C9105C1F78091C00087FFEDCF1092E4
:10F560000B0103C085E292EEEEC98091C00087FFD7
:10F57000FCCF8091C600EAC988E392EEE4C98CE131
:10F5800091EEE1C988249924933011F1943028F444
:10F59000913089F09230B8F408C0953061F195301F
:10F5A000F0F0963009F048C043C02B3109F042C951
:10F5B00091E06BE13FC96227C15DDE4F2883CF52E6
:10F5C000D14092E037C9B22FA0E0622793E032C960
:10F5D000822F90E0A82BB92B622794E02BC92E3004
:10F5E00009F039C3622795E0C05DDE4F19821882A9
:10F5F000C053D1401FC9E1E0F0E0EC0FFD1FC05D3A
:10F60000DE4F08811981C053D140E00FF11F2083E4
:10F610000F5F1F4FC05DDE4F19830883C053D14079
:10F6200062270A171B0709F005C9D80196E002C92D
:10F63000261709F010C303C0973009F0FBC87724E0
:10F640009981933109F412C19431C8F4963009F4C8
:10F65000D8C0973050F4923009F406C1933009F4C1
:10F660006DC0913009F059C253C0913109F477C08F
:10F67000923108F0BBC0903109F04FC2F5C098310B
:10F6800009F487C0993150F4953109F4EFC09531F0
:10F6900008F4C6C1963109F040C2C2C19A3109F4DA
:10F6A0006CC09A3108F491C09B3109F45BC09D3164
:10F6B00009F033C29D81903359F48F81882311F46E
:10F6C0009EE11CC0813011F091E018C098E916C08D
:10F6D000892F807591F0903539F4E0E0F0E089E011
:10F6E0008093570094910AC0983539F4E3E0F0E034
:10F6F00089E080935700949101C090E01A821B82A8
:10F700008D818C831D829E831F8227E030E009C299
:10F710001A8288E08B8381E48C8386E58D8382E581
:10F720008E8389E48F8383E5888780E589878FE5E9
:10F730008A8782E38B872BE030E0F3C18A818139AD
:10F7400041F0823941F0803911F48FE005C080E04A
:10F7500003C082E001C08AE01A828B8344C0772410
:10F76000739482C08D81882311F48EE12CC0813086
:10F7700011F081E028C088E926C01A82E1E0F0E0BB
:10F7800089E08093570084918B831C8224E030E0D1
:10F79000C8C18B81803589F48C81883039F4E2E0EE
:10F7A000F0E089E08093570084910DC0E0E0F0E044
:10F7B00089E080935700849106C0E3E0F0E089E09F
:10F7C0008093570084911A82DFCF8D81836C99E0FA
:10F7D000E1E0F0E0082E90935700E89507B600FCB2
:10F7E000FDCF1A821B8223E030E09BC180EC8A832C
:10F7F000CE5CDE4F188219821A821B82C253D1401E
:10F800008EC18A8190E0A0E0B0E0582F44273327D2
:10F8100022278B8190E0A0E0B0E0DC0199278827C7
:10F82000282B392B4A2B5B2B8D8190E0A0E0B0E098
:10F83000282B392B4A2B5B2B8C8190E0A0E0B0E089
:10F84000BA2FA92F982F8827282B392B4A2B5B2BCF
:10F85000220F331F441F551FC05EDE4F288339839C
:10F860004A835B83C052D1401A8259C13A81C95C34
:10F87000DE4F3883C753D140CA5CDE4F1882C6536F
:10F88000D1408B81C82EDD24CA5CDE4F488159816E
:10F89000C653D140C42AD52A933109F082C0CE5C28
:10F8A000DE4F88819981AA81BB81C253D1408050AB
:10F8B000904CA340B04030F583E0CE5CDE4FE88052
:10F8C000F9800A811B81C253D140F70100935B008C
:10F8D00080935700E89507B600FCFDCFCE5CDE4F65
:10F8E000088119812A813B81C253D14000501F4FAA
:10F8F0002F4F3F4FCE5CDE4F088319832A833B8313
:10F90000C253D140C05EDE4F488159816A817B81FC
:10F91000C052D140DE011B9631E08C9111962C91A2
:10F9200011971296C75CDE4F2883C953D140C85C3B
:10F93000DE4F1882C853D14090E0C85CDE4FE881AA
:10F94000F981C853D1408E2B9F2B0C01FA01609393
:10F950005B0030935700E89511244E5F5F4F6F4F67
:10F960007F4F0EEFE02E0FEFF02ECE0CDF1CC114F8
:10F97000D10499F685E0C05EDE4F088119812A81A5
:10F980003B81C052D140F80120935B008093570027
:10F99000E89507B600FCFDCF81E180935700E8951C
:10F9A00035C0C05EDE4F88819981AA81BB81C0527B
:10F9B000D140B695A795979587957C018601ABE0D8
:10F9C000AA2EB12CAC0EBD1E0BC0D5016D915D01F0
:10F9D000C7010F947FFE0894E11CF11C01501040F8
:10F9E0000115110591F7A60160E070E0440F551F65
:10F9F000661F771FC05EDE4FE880F9800A811B8199
:10FA0000C052D1404E0D5F1D601F711F1A82C05E33
:10FA1000DE4F488359836A837B83C052D1407FC0C5
:10FA2000FA80C55CDE4FF882CB53D140C65CDE4F16
:10FA30001882CA53D1408B81C82EDD24C65CDE4FAC
:10FA400008811981CA53D140C02AD12A1A828981DA
:10FA5000BE016D5F7F4F843121F59601C05EDE4FA0
:10FA6000E880F9800A811B81C052D1400BBFF701A9
:10FA700087919691DB018C9311969C936E5F7F4FDB
:10FA8000D801C7010296A11DB11DC05EDE4F88835B
:10FA90009983AA83BB83C052D14022503040F1F6F3
:10FAA00036C0C05EDE4F288139814A815B81C052F9
:10FAB000D1400894C108D108760100E010E0089414
:10FAC000C11CD11C0894E11CF11C011D111DE20E8A
:10FAD000F31E041F151F21BDBB27A52F942F832FB5
:10FAE00082BD2F5F3F4F4F4F5F4FF89A80B5DB01CC
:10FAF0008D93BD012E153F054007510761F7C05E8C
:10FB0000DE4F288339834A835B83C052D1409601FC
:10FB10002D5F3F4FFB01108204C080EC8A8322E0FE
:10FB200030E08BE18093C6008091C00086FFFCCF5F
:10FB30008091C00080648093C000C15DDE4FF88179
:10FB4000CF52D140F093C6008091C00086FFFCCF19
:10FB50008091C00080648093C000432F3093C60022
:10FB60008091C00086FFFCCF8091C00080648093AC
:10FB7000C000922F2093C6008091C00086FFFCCF6A
:10FB80008091C00080648093C0008EE08093C600A6
:10FB90008091C00086FFFCCF8091C000806480937C
:10FBA000C00065E1C15DDE4FE880CF52D1406E25D7
:10FBB00069276427FE01319610C090819093C6009A
:10FBC0008091C00086FFFCCF31968091C000806498
:10FBD0008093C0006927215030402115310569F715
:10FBE0006093C6008091C00086FFFCCF8091C0006A
:10FBF00080648093C00085B1805885B9772081F4F6
:10FC0000C15DDE4F0881CF52D1400F5FC15DDE4F35
:10FC10000883CF52D14090E0A0E0B0E00D941AF4F8
:10FC200027982F9880E090E020ED37E0F901319798
:10FC3000F1F7019684369105C9F700008091C00064
:10FC40008D7F8093C00081E180935700E895EE2777
:10FC5000FF270994FFCF90E00D941AF497FB092E2B
:10FC600007260AD077FD04D02ED006D000201AF443
:10FC7000709561957F4F0895F6F7909581959F4F08
:10FC80000895A1E21A2EAA1BBB1BFD010DC0AA1FDD
:10FC9000BB1FEE1FFF1FA217B307E407F50720F0F5
:10FCA000A21BB30BE40BF50B661F771F881F991F70
:10FCB0001A9469F760957095809590959B01AC01B9
:10FCC000BD01CF010895AA1BBB1B51E107C0AA1FAC
:10FCD000BB1FA617B70710F0A61BB70B881F991FED
:10FCE0005A95A9F780959095BC01CD010895F99991
:10FCF000FECF92BD81BDF89A992780B50895262F31
:10FD0000F999FECF1FBA92BD81BD20BD0FB6F89400
:0EFD1000FA9AF99A0FBE01960895F894FFCF63
:00000001FF
